:100000000C949B010C943C0F0C94150F0C94C301A1
:100010000C94C3010C94C3010C94C3010C94C30150
:100020000C94C3010C94C3010C94C3010C94C30140
:100030000C94C3010C94C3010C94C3010C94C30130
:100040000C94CB0E0C94C3010C9437160C9411161F
:100050000C94C3010C94C3010C94C3010C94C30110
:100060000C949D130C94C30149067C0685069006EA
:100070009806980698069806980698069806A60682
:10008000A117A617B717C817D317E317F317201828
:10009000281853184418531853185A187A18A718C0
:1000A000D51802192F195C19881907634236B79BB6
:1000B000D8A71A39685618AEBAAB558C1D3CB7CCC8
:1000C0005763BD6DEDFD753EF6177231BF00000040
:1000D000803F455252200020646F6E65002077619A
:1000E000697400206F6E202000206F66662000205B
:1000F0002D2D2D2000636C656172007365740053B3
:100100007475636B2000474649205465737420461C
:1001100061696C757265004572724A616E4665620E
:100120004D61724170724D61794A756E4A756C41CC
:1001300075675365704F63744E6F76446563002036
:1001400020002532640020202000202020002025CF
:100150003264002020002530326400202000253247
:10016000640053657420436C6F636B00534D5457A8
:1001700054465300534D54575446530020200025F5
:100180003032640020200025326400457869740014
:10019000202020200045646974204576656E742017
:1001A0000000000000240027002A000000000025B5
:1001B0000028002B00000000002300260029000476
:1001C00004040404040404020202020202030303FE
:1001D00003030301020408102040800102040810F8
:1001E0002001020408102052656C61792046616983
:1001F0006C7572653A2000322E342E320053573A15
:1002000000342E332E310048573A004A3137373206
:100210002048796472612000554E4B007365716E01
:10022000746C00736861726564004D3A004D3A5019
:100230004155534544002532643A253032642563E4
:100240004D2000204361722025733A202564252526
:100250000050696C6F74206465726174650020439E
:1002600061722025733A202573302E256400416D7C
:100270006D65746572004E6F00596573004578694D
:1002800074204D656E75733F004E6F0059657300A5
:1002900043616C6962726174696F6E3F004E6F00FA
:1002A00059657300436F6E666967204576656E74A5
:1002B000733F004E6F0059657300456E61626C6557
:1002C000204453543F004E6F0059657300536574CA
:1002D00020436C6F636B3F0020416D70730043756A
:1002E0007272656E7420417661696C2E005365717F
:1002F00075656E7469616C00536861726564004F66
:100300007065726174696E67204D6F646500253396
:100310006C756D41002532642E253031644100003A
:1003200000000800020100000304070000000000B4
:1003300000000000162911241FBECFEFD8E0DEBF59
:10034000CDBF24E0A4E8B1E001C01D92AA35B207F8
:10035000E1F711E0A0E0B1E0E4E1F6E602C00590CB
:100360000D92A438B107D9F711E0CBE9D1E004C070
:100370002197FE010E94002CCA39D107C9F70E94BB
:100380004A230C9408330C94000060E088E00E943B
:10039000020E60E087E00E94020E1092D8031092D5
:1003A000D7031092A6031092A5030E94BF0E60937C
:1003B000620270936302809364029093650281E00D
:1003C000809366020895CF93DF93EC01C536D10583
:1003D00050F064E670E080E090E00E94850EC45624
:1003E000D109A895F3CFBE0180E090E00E94850E70
:1003F000A895DF91CF9108950F931F938091520498
:1004000090915304A0915404B0915504892B8A2BE8
:100410008B2BA9F00E94BF0E00915204109153043F
:100420002091540430915504DC01CB01801B910BC9
:10043000A20BB30BC297A105B10508F444C01092FA
:100440005204109253041092540410925504809157
:1004500045048823C1F08091430480620E94662095
:1004600082E10E94DF120E9470208091430480622A
:1004700061E070E090E00E94CD208EE893E00E9461
:10048000660D80958F7140914E0450914F0460919C
:1004900050047091510480FF19C0452B462B472B07
:1004A00091F40E94BF0E60934E0470934F048093AA
:1004B00050049093510460935204709353048093BA
:1004C00054049093550480E090E02EC0452B462BB9
:1004D000472BC9F30E94BF0E6093520470935304DC
:1004E000809354049093550400914E0410914F044E
:1004F0002091500430915104DC01CB01801B910B01
:10050000A20BB30B10924E0410924F0410925004A1
:10051000109251048B3F9105A105B10518F481E0BB
:1005200090E002C082E090E01F910F9108958F92B9
:100530009F92AF92BF92EF92FF920F931F93CF9330
:10054000DF937C010E94BF0E4B015C01C0E0D0E054
:100550000FE017E20E94BF0EDC01CB018819990958
:10056000AA09BB094497A105B10568F4F701878181
:100570000E946E0EC817D90708F4EC018017910786
:1005800048F78C01E7CF0B5F110901331140A0F050
:10059000C63683E0D80798F4CE01875093408F3554
:1005A000910580F0835A9F4F8D35910570F0C256AA
:1005B000D240C834D10560F085E090E00BC081E006
:1005C00090E008C082E090E005C083E090E002C0C7
:1005D00084E090E0DF91CF911F910F91FF90EF9019
:1005E000BF90AF909F908F900895CF92DF92EF923F
:1005F000FF920F931F93CF93DF93EC018B018881C0
:10060000813019F440911A0402C040911B04023059
:10061000110518F4602F8D81A4C020910104309140
:100620000204A8EEB3E00E94C2320330110521F4A7
:1006300096958795779567954423D1F0A42F440F1D
:10064000BB0BAC59BF4F9B01AC010E94983224E612
:1006500030E040E050E00E94A032203787E13807C8
:100660004105510568F460E777E180E090E010C053
:100670006133E5E77E078105910508F098C01AC04F
:10068000CA01B901213335474105510508F08FC032
:100690002CE330E040E050E00E94A032942F832F02
:1006A000722F662728EE33E040E050E00E946E3261
:1006B000790109C0603727E172078105910540F78C
:1006C000EE24EA94F12CCD80DE8061E08C2D0E9436
:1006D000320EFFEFEF16F10409F441C0F601FF27D7
:1006E000E15EFC4FE491E330E1F058F4E23099F53B
:1006F00084B5806284BD27B530E058E4C52ED12C86
:100700003DC0E430D9F0E83031F58091B00080622E
:100710008093B0002091B30030E084EBC82ED12C40
:100720002DC0809180008068809380002091860099
:100730003091870048E8C42ED12C2CC080918000D5
:1007400080628093800020918600309187009AE833
:10075000C92ED12C1FC0E7FC02C060E001C061E0DF
:100760008C2D0E94020E19A308A3DF91CF911F9137
:100770000F91FF90EF90DF90CF900895D7010E94E6
:10078000C2322FEF30E040E050E00E94A032F6018C
:100790002083E9CFD7010E94C2322FEF30E040E042
:1007A00050E00E94A032F60131832083DCCF60E369
:1007B00075E780E090E06CCFFC01809161028111CF
:1007C00012C0258536852530310581F083899489CD
:1007D000A589B689892B8A2B8B2B39F423853485FF
:1007E00081E0232B19F480E0089581E008950F93B0
:1007F0001F93CF93DF938C01EB018091A503909120
:10080000A603892B49F48091D7039091D803892BB3
:1008100019F461307105C1F0F801838594858C1756
:100820009D07A9F06C2F83810E94020EF801D487E6
:10083000C3870E94BF0E609362027093630280932D
:1008400064029093650203C00E947504E5CFDF91B6
:10085000CF911F910F91089560E070E08AE993E0D5
:100860000E94F50260E070E08CEC93E00E94F502DB
:1008700060E070E08AE993E00E94F70360E070E0D6
:100880008CEC93E00E94F703A895FECFC82F81E07F
:100890000E94B0210E94692166E071E080E092E050
:1008A0000E94513280E092E00E942A2161E080E0C3
:1008B0000E942C216FEF70E080E092E00E945132A4
:1008C00080E092E00E942A21CC2319F06BEF70E0C7
:1008D00002C065EF70E080E092E00E94513280E05B
:1008E00092E00E942A210E942C04CF92DF92EF9284
:1008F000FF920F931F93CF93DF9310926602C2E390
:10090000D0E00BEF1CE761E083E00E94020EC8011B
:100910000197F1F760E083E00E94020EC8010197A1
:10092000F1F780916602811103C0A895219759F7CC
:10093000809166028823B9F00E94BF0E6B017C0192
:1009400024E6C20ED11CE11CF11C82E00E94D90DEC
:10095000019759F4A8950E94BF0EC616D706E8065F
:10096000F90698F781E00E94460480E991E00E9430
:10097000E30110926602DF91CF911F910F91FF90DA
:10098000EF90DF90CF9008950F931F93CF93DF9355
:10099000EC01CE01837099278130910549F00297CF
:1009A00051F0CC7FCE0181600E94C404C260F1CFBF
:1009B00001E410E002C002E418E061E0812F0E942F
:1009C0002C21802F0E9419228AE30E9419229E0165
:1009D0002873332720313105B1F048F42115310552
:1009E00079F028303105E9F469EE70E00EC0283165
:1009F0003105A1F020323105A1F467ED70E005C0AA
:100A00006FEE70E002C063EE70E080E092E00E9462
:100A1000513280E092E00E942A2138C06DED70E0F2
:100A2000F4CF81E00E94B02162ED70E080E092E0BE
:100A30000E94513280E092E00E942A219E01207C97
:100A4000317020383105B9F038F42115310589F0BD
:100A500020343105C1F015C0211581E0380769F057
:100A6000203481E0380759F0203C310551F484E509
:100A70000BC086E409C087E407C082E505C085E4B1
:100A800003C08FE301C08FE40E94192289E791E03F
:100A90000E942A21C2FF0CC061E086E0810F0E9403
:100AA0002C218AE2DF91CF911F910F910C94192292
:100AB000DF91CF911F910F910895CF92DF92EF9226
:100AC000FF920F931F93CF93DF93EC010E94BF0E11
:100AD0006B017C018E01037011270E941122CE014F
:100AE000807C91708038910561F48091FF018430A1
:100AF00040F4C0925604D0925704E0925804F09209
:100B000059040230110528F00230110509F047C0E0
:100B100024C061E070E08AE993E00E94F5028091D0
:100B2000A7039091A803059771F085E090E090935A
:100B3000A8038093A703C092B103D092B203E092BE
:100B4000B303F092B4031092AD031092AE0310926F
:100B5000AF031092B003012B11F561E070E08CEC53
:100B600093E00E94F5028091D9039091DA030597F2
:100B700071F085E090E09093DA038093D903C092FE
:100B8000E303D092E403E092E503F092E6031092CF
:100B9000DF031092E0031092E1031092E203CE0112
:100BA000DF91CF911F910F91FF90EF90DF90CF9049
:100BB0000C94C404CF92DF92EF92FF920E94A80F90
:100BC0006B017C0180910304882369F0C701B601A1
:100BD0000E94CD1E882339F0C701B601605F714FB6
:100BE0008F4F9F4F02C0C701B601FF90EF90DF907B
:100BF000CF900895EF92FF920F931F93CF93DF93BF
:100C00001F92CDB7DEB78C01E12CF12CF801619178
:100C10008F01C70169830E9458326981681719F0F2
:100C2000C7010E946032FFEFEF1AFF0A8CE3E8165B
:100C3000F10461F70F90DF91CF911F910F91FF9019
:100C4000EF900895FF920F931F93CF93DF9300D0FF
:100C500000D0CDB7DEB7F82E0E94FC018C01FF203A
:100C600039F00E946921109299011092980104C0F4
:100C70008130910509F075C090919901492F50E09C
:100C80004C30510508F0AFC0FA01EC5CFF4F0C94FA
:100C9000002CF11005C0809198018F5F809398011E
:100CA00080919801863010F010929801E09198019F
:100CB000E53008F098C034E0E39FF0011124EC5FC8
:100CC000FB4F80818093970191819093960192814F
:100CD0009093950193819093940191E08C3008F466
:100CE00090E090939301811102C08CE00BC08D3095
:100CF00008F479C08C5006C0809197018F5F8D30C9
:100D000008F081E0809397016EC0809196018F5F1B
:100D10008C3318F48093960166C01092960163C0DC
:100D200081E090919301911180E0809393015BC0E9
:100D30002CEF290F81E090E001C0880F2A95EAF797
:100D4000909195018927809395014DC080919401E0
:100D50008F5F833018F48093940145C01092940102
:100D600042C0029709F041C09091990191110FC0C2
:100D700080919801853059F484E697E190930501BC
:100D800080930401109267020E9469215AC19F5FFB
:100D9000909399019C3048F1809197019091930133
:100DA000911103C08C3031F44AC1913019F48C3068
:100DB00009F0845FE091980194E0E99FF00111242B
:100DC000EC5FFB4F80838091960181838091950138
:100DD00082838091940183838EEF93E00E94FA05D1
:100DE000109299012EC101E010E00E94BF0E28EE82
:100DF00033E040E050E00E94A03221E0643F7140C7
:100E00008105910508F420E0012B29F490919201CD
:100E1000921709F416C12093920160E080E00E94CD
:100E20002C2165E971E080E092E00E94513280E07F
:100E300092E00E942A2180919201882339F08091CA
:100E40009901811103C060E971E006C060919801C9
:100E5000653059F46BE871E080E092E00E94513215
:100E600080E092E00E942A210AC070E06F5F7F4F0D
:100E7000072E000C880B990B4AE00E94242261E0A7
:100E800080E00E942C2180919801853049F400E196
:100E900010E080E20E94192201501109D1F7D1C05F
:100EA0001091970167E871E080E092E00E94513272
:100EB0001F921F9380E092E09F938F938E010F5FAC
:100EC0001F4F1F930F930E94B02F0F900F900F9002
:100ED0000F900F900F9080919201882369F080917C
:100EE0009901813049F464E871E080E092E00E9469
:100EF000513280E092E001C0C8010E942A218AE3B9
:100F00000E941922F09096016FE771E080E092E074
:100F10000E9451321F92FF9280E092E09F938F9344
:100F20001F930F930E94B02F0F900F900F900F9070
:100F30000F900F9080919201882369F08091990120
:100F4000823049F46CE771E080E092E00E94513217
:100F500080E092E001C0C8010E942A2180919201A4
:100F6000882331F080919901833011F480E207C029
:100F700080919301813011F081E401C080E50E94ED
:100F8000192280E20E94192200E010E06CE671E074
:100F900080E092E00E945132E0E0F2E00190002017
:100FA000E9F73197E050F2400E171F0758F580918E
:100FB000990190E098012C5F3F4F2817390731F4D1
:100FC00080919201882311F080E217C080919501F1
:100FD00090E0002E02C0959587950A94E2F780FF75
:100FE0000BC064E771E080E092E00E945132F801AA
:100FF000E050FE4F808101C08DE20E9419220F5FF8
:101000001F4FC4CF80E20E941922809199018B303A
:1010100031F480919201882311F080E20DC080911B
:101020009401811102C08EE407C0813011F483E580
:1010300003C0823031F487E40E94192202C080E0AC
:10104000B9CE0F900F900F900F90DF91CF911F911D
:101050000F91FF9008954F925F926F927F928F92BF
:101060009F92AF92BF92CF92DF92EF92FF920F9337
:101070001F93CF93DF93CDB7DEB762970FB6F89487
:10108000DEBF0FBECDBFF82E0E94FC018C01FF20F9
:1010900009F460C00E94692162E671E080E092E09C
:1010A0000E94513280E092E00E942A210E94DA05DB
:1010B0006B017C010E946D122091E802222331F025
:1010C000822F90E02D3020F00C9702C08CE090E051
:1010D00080939701C701B6010E946D128091E802CA
:1010E00090E021E00C970CF420E020939301C701DD
:1010F000B6010E946D128091E70280939601C701AC
:10110000B6010E946D128091EA0280939101C7019D
:10111000B6010E946D128091EB0280939001C7018D
:10112000B6010E946D128091EC0290E09C012E5459
:10113000384F88970B9728F430938F0120938E01B6
:1011400006C08AED97E090938F0180938E011092F4
:1011500099015DC08130910509F051C090919901CC
:10116000923001F128F4992349F0913081F0D7C2EF
:10117000943061F110F1953091F1D1C280919701D5
:101180008F5F8D3008F081E080939701C8C2809115
:1011900096018F5F8C3318F480939601C0C2109231
:1011A0009601BDC2809193018F5F823018F48093C5
:1011B0009301B5C210929301B2C2809191018F5FE9
:1011C000803208F081E080939101A9C28091900162
:1011D0008F5F8D3008F081E080939001A0C28091F4
:1011E0008E0190918F010196853E27E0920710F0C5
:1011F0008AED97E090938F0180938E0190C20297C1
:1012000009F08DC2809199018F5F8093990180913F
:101210009901863008F481C29091930180919701E1
:10122000911105C08C3051F41092970107C0913094
:1012300029F48C3019F0845F8093970180918E019E
:10124000825B8E87809190018D87809191018C8740
:10125000809197018A878091960189871886CE01AF
:1012600008960E9432106B017C0180910304882350
:1012700031F0C701B6010E94CD1E811170C30E94DA
:10128000A80F6F87788B898B9A8BC701B6010E9454
:10129000810FAE014F5F5F4FC701B6010E949C11E5
:1012A00088E60E94662060E08EE893E00E94AA0D26
:1012B00060E88EE893E00E94AA0D8A811AE0612F0F
:1012C0000E94CC2B692F30E1839F600D11248EE8A2
:1012D00093E00E94AA0D8B81612F0E94CC2B692F75
:1012E00040E1849F600D11248EE893E00E94AA0DD6
:1012F0008C81612F0E94CC2B692F50E1859F600D5E
:1013000011248EE893E00E94AA0D8D81612F0E9426
:10131000CC2B692F20E1829F600D11248EE893E091
:101320000E94AA0D8E81612F0E94CC2B692F30E183
:10133000839F600D11248EE893E00E94AA0D8F8197
:101340008E51612F0E94CC2B692F40E1849F600D4C
:1013500011248EE893E00E94AA0D0E947020882339
:1013600019F010929A011EC001E000939A0188E6DC
:101370000E94662060E08EE893E00E94AA0D8981B9
:10138000612F0E94CC2B692F50E1859F600D1124A5
:101390008EE893E00E94AA0D0E9470208111E1CF97
:1013A00000939A01C701B6010E945A2D4B015C01BE
:1013B000209128043091290440912A0450912B0453
:1013C0000E94732C87FF34C01092280410922904C5
:1013D00010922A0410922B041092240410922504D7
:1013E00010922604109227041092200410922104D7
:1013F000109222041092230480912E0490912F04C5
:10140000A0913004B091310480933204909333045E
:10141000A0933404B093350410923604109237042C
:10142000109238041092390410922C0410922D045A
:10143000409028045090290460902A0470902B0456
:1014400020E030E0A901C301B2010E94732C811198
:101450000FC0409132045091330460913404709174
:101460003504950184018CE194E00E94E91442C1A5
:10147000C701B6012F85388949895A89621B730BC8
:10148000840B950B0E945A2D6B017C01A3019201E4
:10149000C501B4010E94062C9B01AC01C701B60135
:1014A0000E94782C20E030EC48EA57E40E94AE2EEF
:1014B0006B017C0120E030E0A9010E94332E181658
:1014C0005CF420E030E040EA52E4C701B6010E943B
:1014D000332E18165CF040C020E030E040EA52ECB9
:1014E000C701B6010E94732C87FF36C010922804F2
:1014F0001092290410922A0410922B0410922404B2
:1015000010922504109226041092270410922004B1
:1015100010922104109222041092230480912E0430
:1015200090912F04A0913004B09131048093320443
:1015300090933304A0933404B0933504109236048E
:1015400010923704109238041092390410922C042F
:1015500010922D0480E0D0C010912D04112309F4C5
:1015600074C0A70196016091360470913704809190
:101570003804909139040E94062C2B013C01612F04
:10158000110F770B880B990B0E945C2D9B01AC010E
:10159000C301B2010E94782C2B013C012FE632E1FD
:1015A00043E85AE30E94732C87FDA0CFA301920168
:1015B000C301B2010E94612F811198CF950184016E
:1015C000B301A2018CE194E00E94E9148090200410
:1015D00090902104A0902204B090230420E030E0F9
:1015E000A901C501B4010E94332E18165CF42DEB3D
:1015F00037E346E855E3C501B4010E94732C87FF29
:101600000BC017C02DEB37E346E855EBC501B4011D
:101610000E94332E18166CF0A501940160912404E9
:101620007091250480912604909127040E94782CC3
:1016300003C060E070E0CB01609332047093330428
:1016400080933404909335040EC04091320450913D
:1016500033046091340470913504950184018CE168
:1016600094E00E94E914C0923604D0923704E092CC
:101670003804F092390420913204309133044091BF
:10168000340450913504C701B6010E94782C6B01D7
:101690007C0120E030E0A9010E94332E20E030E000
:1016A00040E05FE387FD05C0C701B6010E94072C3B
:1016B00004C0C701B6010E94062C0E94242D80910F
:1016C0002C049B01280F311D87FD3A9520383105E8
:1016D00014F09FE704C020383F4F2CF490E8981B8B
:1016E00090932D0402C060932D0490912D04890FD6
:1016F00080932C0480912C040E94630F8EEF93E062
:101700000E94FA0584E697E1909305018093040115
:10171000109267020E94692129C102E010E00E9434
:10172000BF0E28EE33E040E050E00E94A03221E0FE
:10173000643F71408105910508F420E0012B29F4F4
:1017400090919201921709F411C12093920161E0E6
:1017500080E00E942C21109197016EE571E080E0FD
:1017600092E00E9451321F921F9380E092E09F937B
:101770008F938E010F5F1F4F1F930F930E94B02F07
:101780000F900F900F900F900F900F9080919901F4
:1017900081110DC080919201882349F06BE571E0C1
:1017A00080E092E00E94513280E092E001C0C801E6
:1017B0000E942A218AE30E941922F090960166E590
:1017C00071E080E092E00E9451321F92FF9280E02F
:1017D00092E09F938F931F930F930E94B02F0F90CF
:1017E0000F900F900F900F900F9080919901813082
:1017F00069F480919201882349F063E571E080E00B
:1018000092E00E94513280E092E001C0C8010E9443
:101810002A2180919901823031F4809192018823AC
:1018200011F080E207C080919301811102C081E430
:1018300001C080E50E941922F09091016EE471E0F0
:1018400080E092E00E9451321F92FF9280E092E08D
:101850009F938F931F930F930E94B02F0F900F9021
:101860000F900F900F900F9080919901833069F441
:1018700080919201882349F06AE471E080E092E06F
:101880000E94513280E092E001C0C8010E942A21EA
:101890008DE20E94192280919901843069F480912F
:1018A0009201882349F066E471E080E092E00E94B2
:1018B000513280E092E019C02091900183E0289F8E
:1018C00090011124A4E8B1E080E090E0FC01E20F77
:1018D000F31FE95EFE4FE491ED930196833091058D
:1018E000A9F71092870184E891E00E942A218DE2F5
:1018F0000E94192280918E0190918F0164E670E020
:101900000E94D82BF82EE92E62E471E080E092E08C
:101910000E945132EF92FF9280E092E09F938F936A
:101920001F930F930E94B02F0F900F900F900F9066
:101930000F900F9080919901853069F48091920108
:10194000882349F06FE371E080E092E00E94513219
:1019500080E092E001C0C8010E942A2107C090E106
:10196000C91A9EE0D90AE108F10889CC62960FB63F
:10197000F894DEBF0FBECDBFDF91CF911F910F91C5
:10198000FF90EF90DF90CF90BF90AF909F908F909F
:101990007F906F905F904F900895833081F028F48E
:1019A000813099F08230A1F008958730A9F0883015
:1019B000B9F08430D1F4809180008F7D03C0809194
:1019C00080008F7780938000089584B58F7702C060
:1019D00084B58F7D84BD08958091B0008F7703C05A
:1019E0008091B0008F7D8093B00008953FB7F89448
:1019F0008091F1019091F201A091F301B091F40175
:101A000026B5A89B05C02F3F19F00196A11DB11D59
:101A10003FBFBA2FA92F982F8827820F911DA11D94
:101A2000B11DBC01CD0142E0660F771F881F991FD1
:101A30004A95D1F70895089580918C0390E0209104
:101A40008D03821B9109089585ED8093BC008091E0
:101A5000BC0084FDFCCF1092C40208954091BD01EA
:101A6000262F30E0240F311D21323105DCF4209186
:101A7000C4022430C9F4FC0180E090E0861758F4D9
:101A80003091BD012191DC01A556BE4FA30FB11DC0
:101A90002C930196F3CF8091BD01680F6093BD0137
:101AA00080E0089581E0089582E008950895E0912E
:101AB0008D0380918C03E81730F4F0E0E258FD4F7D
:101AC000808190E008958FEF9FEF089590918D03AE
:101AD00080918C03981750F4E92FF0E0E258FD4F05
:101AE000208130E09F5F90938D0302C02FEF3FEF86
:101AF000C9010895CF92DF92EF92FF920F931F9347
:101B0000CF93DF937C01262F972F8A018091E502E6
:101B1000882391F0C62FD72F6E01C40ED51ECC1589
:101B2000DD0571F06991D701ED91FC910190F08193
:101B3000E02DC7010995F3CF642F822F0E942E0D4F
:101B4000C801DF91CF911F910F91FF90EF90DF902F
:101B5000CF900895CF93DF931F92CDB7DEB76983FF
:101B60002091E5022223D1F020918A03203240F017
:101B700021E030E0FC013383228380E090E015C057
:101B800080918B03E82FF0E0EB53FD4F9981908318
:101B90008F5F80938B0380938A0305C061E0CE0141
:101BA00001960E942E0D81E090E00F90DF91CF9181
:101BB0000895CF93DF93282F30E0F901E15EFC4FC9
:101BC0008491F901ED52FE4FD491F901E154FE4F99
:101BD000C491CC2391F081110E94CD0CEC2FF0E048
:101BE000EE0FFF1FEB54FE4FA591B491EC91ED2346
:101BF00081E090E021F480E002C080E090E0DF919D
:101C0000CF9108951F93CF93DF93282F30E0F901F0
:101C1000E15EFC4F8491F901ED52FE4FD491F90140
:101C2000E154FE4FC491CC23C9F0162F81110E94BC
:101C3000CD0CEC2FF0E0EE0FFF1FE555FE4FA59108
:101C4000B4918FB7F894111105C09C91ED2FE095D8
:101C5000E92302C0EC91ED2BEC938FBFDF91CF9184
:101C60001F910895CF93DF9390E0FC01ED52FE4F5A
:101C70002491FC01E154FE4F8491882361F190E0AE
:101C8000880F991FFC01EF55FE4FC591D491FC01BF
:101C9000E555FE4FA591B491611109C09FB7F89425
:101CA0008881209582238883EC912E230BC062309B
:101CB00061F49FB7F8943881822F809583238883BD
:101CC000EC912E2B2C939FBF06C08FB7F894E88120
:101CD0002E2B28838FBFDF91CF9108958E3008F08F
:101CE0008E508770806480937C0080917A0080643D
:101CF00080937A0080917A0086FDFCCF80917800F5
:101D00002091790090E0922B08958F929F92AF924C
:101D1000BF92CF92DF92EF92FF926B017C010E9403
:101D2000F60C4B015C01C114D104E104F104F1F0A3
:101D30000E94F60CDC01CB0188199909AA09BB099C
:101D4000883E9340A105B10570F321E0C21AD10885
:101D5000E108F10888EE880E83E0981EA11CB11CF2
:101D6000C114D104E104F10419F7DDCFFF90EF9025
:101D7000DF90CF90BF90AF909F908F9008952FB736
:101D8000F8946091ED017091EE018091EF019091D6
:101D9000F0012FBF08951F920F920FB60F921124DA
:101DA0002F933F938F939F93AF93BF938091ED01B8
:101DB0009091EE01A091EF01B091F0013091EC0112
:101DC00023E0230F2D3720F40196A11DB11D05C07E
:101DD00026E8230F0296A11DB11D2093EC018093EC
:101DE000ED019093EE01A093EF01B093F00180918B
:101DF000F1019091F201A091F301B091F4010196EB
:101E0000A11DB11D8093F1019093F201A093F30104
:101E1000B093F401BF91AF919F918F913F912F911A
:101E20000F900FBE0F901F9018951F920F920FB634
:101E30000F9211242F933F934F935F936F937F9350
:101E40008F939F93AF93BF93EF93FF93E091020122
:101E5000F09103010995FF91EF91BF91AF919F918F
:101E60008F917F916F915F914F913F912F910F9043
:101E70000FBE0F901F9018951F920F920FB60F92E2
:101E800011242F933F934F935F936F937F938F937F
:101E90009F93AF93BF93EF93FF93E0910001F09175
:101EA00001010995FF91EF91BF91AF919F918F91A2
:101EB0007F916F915F914F913F912F910F900FBE46
:101EC0000F901F901895CF93682F082E000C770B5A
:101ED00077FF03C0719561957109C62FCF7187FF98
:101EE000C06288E60E94662067E08EE893E00E9468
:101EF000AA0D6C2F8EE893E00E94AA0DCF910C944E
:101F000070206093F9017093FA018093FB01909324
:101F1000FC01DC01CB01845D9E4FAF4FBF4F80932E
:101F2000F5019093F601A093F701B093F80182E0D8
:101F300090E09093EB018093EA010E94BF0E6093C2
:101F4000E6017093E7018093E8019093E901089519
:101F5000CF92DF92EF92FF920F931F930E94BF0EDA
:101F6000C090E601D090E701E090E801F090E9012F
:101F70008B019C010C191D092E093F098091F90163
:101F80009091FA01A091FB01B091FC01083E134031
:101F900021053105D0F00196A11DB11D8093F901F5
:101FA0009093FA01A093FB01B093FC01B701A60145
:101FB00048515C4F6F4F7F4F4093E6015093E701CC
:101FC0006093E8017093E901C9CF4091F501509108
:101FD000F6016091F7017091F80184179507A60743
:101FE000B70788F1E091FD01F091FE01309759F1BA
:101FF0000995611571058105910519F00E94810F00
:1020000022C08091F9019091FA01A091FB01B09159
:10201000FC01845D9E4FAF4FBF4F8093F5019093BD
:10202000F601A093F701B093F80181E090E02091D0
:10203000EA013091EB01232B11F480E090E09093C2
:10204000EB018093EA016091F9017091FA018091AE
:10205000FB019091FC011F910F91FF90EF90DF9099
:10206000CF9008956F927F928F929F92AF92BF927E
:10207000CF92DF92EF92FF920F931F93CF93DF9354
:10208000EC01EE81AE2FB0E020E833E341EE51E009
:102090000E948D324B015C0122EB37E0FD0104E62A
:1020A00010E080E9E82EFF24F394C901825B974099
:1020B0008E179F07DCF4C90183709927892B99F447
:1020C000C901B8010E94EC2B892B31F4C901B70179
:1020D0000E94EC2B892B39F480E8880E81E5981E4C
:1020E00081E0A81EB11C2F5F3F4FDFCF6D80712CA8
:1020F000EE54F84FCF0164E670E00E94EC2B7C01B7
:10210000CF0160E971E00E94EC2B6C0101E010E06E
:10211000E370FF27061517052CF50230110581F431
:10212000309771F4E114F10419F4C114D10441F4AD
:1021300080E8880E8BE3981E86E2A81EB11C0FC0B3
:10214000D801AB5EBE4FAC91B0E020E831E541E094
:1021500050E00E948D32860E971EA81EB91E0F5F9A
:102160001F4FD8CF49812A8130E0A0E1BEE00E9414
:10217000C2326B017C01242F30E0ACE3B0E00E945E
:10218000C232DC01CB018C0D9D1DAE1DBF1D28810F
:102190006C017D01C20ED11CE11CF11CAC81B0E0D0
:1021A000119720E831E541E050E00E949832DC01CF
:1021B000CB018C0D9D1DAE1DBF1DBC01CD01680D59
:1021C000791D8A1D9B1DDF91CF911F910F91FF906B
:1021D000EF90DF90CF90BF90AF909F908F907F90C7
:1021E0006F9008951F93CF93DF93CDB7DEB72797F6
:1021F0000FB6F894DEBF0FBECDBF88E60E94662002
:1022000060E08EE893E00E94AA0D0E94702088236F
:1022100019F010929A0183C081E080939A0167E0DF
:1022200070E088E690E00E94CD2080918C0390E0E1
:1022300020918D03821B910907970CF470C08EE8E2
:1022400093E00E94660D182F8695869586958E7070
:10225000982F990F990F890F912F9F70890F89835C
:102260008EE893E00E94660D282F22952F70982FFC
:102270009F708AE0289F900D11249A838EE893E046
:102280000E94660D982F282F269526952695267054
:10229000822F880F880F280F9F70920F9B838EE8E4
:1022A00093E00E94660D282F22952F70982F9F7023
:1022B0008AE0289F900D11249C838EE893E00E9471
:1022C000660D282F22952F70982F9F708AE0289FE7
:1022D000900D11249D838EE893E00E94660D282FB7
:1022E00022952F70982F9F708AE0289F900D1124BF
:1022F0009E838EE893E00E94660D982F9F70925EF9
:10230000282F22952F708AE0289F900D11249F83FB
:1023100017FD05C0CE0101960E94321003C060E097
:1023200070E0CB0127960FB6F894DEBF0FBECDBF8D
:10233000DF91CF911F9108956F927F928F929F921C
:10234000AF92BF92CF92DF92EF92FF920F931F93C3
:10235000CF93DF93EA012CE3C22ED12CE12CF12C98
:10236000A70196010E94A0326883CA01B901A701A2
:1023700096010E94A0326983CA01B90128E130E0C8
:1023800040E050E00E94A03269017A016A83CA01EC
:10239000B9016C5F7F4F8F4F9F4F27E030E040E0E7
:1023A00050E00E94A0326F5F6B83812C912C54010E
:1023B00040E034E6632E712C00E911E0242F30E078
:1023C0002E54384FF901E370FF27309789F4C90183
:1023D000B3010E94EC2B892B31F4C901B8010E9492
:1023E000EC2B892B29F48EE691E0A0E0B0E004C04C
:1023F0008DE691E0A0E0B0E0880E991EAA1EBB1EFB
:10240000D501C401AA27BB27C816D906EA06FB06D0
:1024100010F04F5FD3CF4E83309799F4C90164E633
:1024200070E00E94EC2B892B39F4C90160E971E05E
:102430000E94EC2B892B29F48EE691E0A0E0B0E01D
:1024400004C08DE691E0A0E0B0E0881A990AAA0ADB
:10245000BB0AC818D908EA08FB08C90164E670E09D
:102460000E94EC2B8C01C90160E971E00E94EC2B09
:10247000A6E1B1E020E0213041F4309751F401159C
:10248000110529F4009729F402C04C9103C04DE1D5
:1024900001C04CE150E060E070E0C416D506E606ED
:1024A000F70640F0C41AD50AE60AF70A2F5F11961C
:1024B0002C3009F72F5F2D83C394CC82DF91CF910D
:1024C0001F910F91FF90EF90DF90CF90BF90AF9052
:1024D0009F908F907F906F900895CF92DF92EF92B0
:1024E000FF92C090E201D090E301E090E401F0900F
:1024F000E5016C157D058E059F0571F06B017C0172
:1025000046EE52E00E949C11C092E201D092E3019B
:10251000E092E401F092E501FF90EF90DF90CF9020
:102520000895CF92DF92EF92FF92CF936B017C01DF
:102530009B01AC016EEF7FEF81E090E00E94BC2B2D
:102540009B01AC0160E074E284EF90E00E94A03255
:10255000C0E0EC2FF0E0EE0FFF1FE359FE4F80814B
:102560009181CF5F82179307A0F3A7019601220FF5
:10257000331F441F551FEC2FF0E0EE0FFF1FE359F0
:10258000FE4FA081B1810E948D329B01AC0160E0C1
:1025900074E284EF90E00E94A03230938700209391
:1025A000860080918100C770887FC82BC09381000E
:1025B00081E0CF91FF90EF90DF90CF900895682F4A
:1025C0008EE893E00C94AA0DCF93DF931F92CDB7C2
:1025D000DEB7FC018185806269830E94662089E004
:1025E0000E94DF126981862F0E94DF120E947020F4
:1025F0008111FCCF0F90DF91CF910895CF93DF939E
:102600001F92CDB7DEB7FC018185806269830E948D
:10261000662083E10E94DF126981862F0E94DF120B
:102620000E9470208111FCCF0F90DF91CF9108950F
:10263000FF920F931F93CF93DF938C01C62FF42E3D
:10264000FC0186858130B1F56585C4FD6061C5FDFD
:102650006860C6FD6460C7FD6260D62FFF2011F080
:10266000D06A01C0D0626D2FC8010E94FE126D2F8A
:102670006F7DC8010E94FE12F8016585C0FD606192
:10268000C1FD6860C2FD6460C3FD6260C62FFF20AB
:1026900011F0C06A01C0C0626C2FC8010E94FE1216
:1026A0006C2F6F7DC801DF91CF911F910F91FF902B
:1026B0000C94FE12607F70E075956795442311F0CD
:1026C000666001C06460F801858183FD02C0D0E0CE
:1026D00001C0D0E8D62B6D2FC8010E94E4126D2FE7
:1026E0006B7FC8010E94E412CF70CC0FCC0FCC0FCF
:1026F000FF2011F0C66001C0C460F801858183FD30
:1027000002C060E001C060E8C62B6C2FC8010E94C7
:10271000E4126C2F6B7FC801DF91CF911F910F9155
:10272000FF900C94E412FC012385222319F041E070
:102730000E94181381E090E008951F920F920FB647
:102740000F9211242F933F934F935F936F937F9337
:102750008F939F93AF93BF93EF93FF938091B900B3
:10276000887F803609F49CC068F5883209F45BC024
:1027700090F4803109F454C038F4882309F4F6C089
:10278000883009F44DC0F6C0883109F44CC080325D
:1027900009F45DC0EFC0803409F468C048F48033A8
:1027A00009F455C0883309F0E5C08093C202D8C04F
:1027B000803509F44FC0883509F45DC0883409F0CC
:1027C000D9C0D6C0883909F4C7C0A8F4883709F43D
:1027D00067C038F4883609F463C0803709F460C0F4
:1027E000C9C0883809F4B8C0803909F45FC080389E
:1027F00009F0C0C05BC0803B09F486C038F4803A61
:1028000009F466C0883A09F47FC0B4C0803C09F47A
:10281000A7C0883C09F4A4C0883B09F48AC0AAC0B8
:1028200080919F0210C09091C1028091C0029817C0
:1028300070F5E091C10281E08E0F8093C102F0E05B
:10284000E056FD4F80818093BB0085EC86C080936D
:10285000C2028EC0E091C10281E08E0F8093C1025E
:102860008091BB00F0E0E056FD4F80839091C10263
:102870008091C0026EC0E091C10281E08E0F809312
:10288000C1028091BB00F0E0E056FD4F8083809153
:10289000C30281116DC081E080939E0284EA61C011
:1028A00083E08093C4021092E101CFCF8091E101D7
:1028B000803208F051C0E091E10181E08E0F8093F9
:1028C000E1018091BB00F0E0EF53FE4F8083BDCF6C
:1028D00085EC8093BC001092C4028091E1018032AB
:1028E00030F4E091E101F0E0EF53FE4F108260918F
:1028F000E10170E0E091BF01F091C00181EC91E055
:1029000009951092E10136C084E08093C4021092D0
:10291000BE011092BD01E091BB01F091BC0109958F
:102920008091BD01811105C081E08093BD011092AD
:102930009B01E091BE0181E08E0F8093BE01F0E02B
:10294000E556FE4F80818093BB009091BE0180913F
:10295000BD01981708F479CF85E88093BC000AC0C0
:1029600085EC8093BC001092C40204C01092C20295
:102970000E94240DFF91EF91BF91AF919F918F9194
:102980007F916F915F914F913F912F910F900FBE6B
:102990000F901F9018951092C40281E08093C3029B
:1029A00010929E0261E082E10E94020E61E083E1EA
:1029B0000E94020EE9EBF0E080818E7F80838081AF
:1029C0008D7F808388E48093B80085E48093BC0089
:1029D00008952F923F924F925F926F927F928F92C3
:1029E0009F92AF92BF92CF92DF92EF92FF920F939E
:1029F0001F93CF93DF9300D000D0CDB7DEB71C017B
:102A00002A013B0148015901DC011C968D919D91E1
:102A10000D90BC91A02D89839A83AB83BC83A901BF
:102A20009801BC01CD010E94062C6B017C0120E0C5
:102A300030E0A9010E94332E181624F4F7FAF0941E
:102A4000F7F8F094F1012081318142815381C7016F
:102A5000B6010E94782C0E94F22C6B017C01298126
:102A60003A814B815C81C501B4010E94332E181656
:102A70007CF5D10118962D913D914D915C911B975C
:102A8000C701B6010E94AE2EA30192010E94072C3D
:102A9000F101608771878287938724813581468120
:102AA0005781C701B6010E94AE2E20E030E040E819
:102AB0005FE30E94072CD10114966D937D938D9353
:102AC0009C931797F10184869586A686B78625C0C4
:102AD000A3019201C701B6010E94AE2E9B01AC0179
:102AE000D10118966D917D918D919C911B970E94BB
:102AF000072CF1016087718782879387A701960170
:102B000064817581868197810E94072CD10114967A
:102B10006D937D938D939C9317970F900F900F90CB
:102B20000F90DF91CF911F910F91FF90EF90DF9069
:102B3000CF90BF90AF909F908F907F906F905F905D
:102B40004F903F902F900895CF92DF92EF92FF9297
:102B5000CF93DF93EC016A017B0161E070E00E949A
:102B6000F50264E070E089819A810E94F502C092CA
:102B70004A04D0924B04E0924C04F0924D048881B8
:102B800090E02F8D211103C028E130E002C020E247
:102B900030E0822B932B0E94C404E981FA8180816A
:102BA000886090E0DF91CF91FF90EF90DF90CF9021
:102BB0000C94C404CF92DF92EF92FF920F931F9375
:102BC000CF93DF936C017A018B01C0E0D0E0CE158A
:102BD000DF0589F0D8016D918D01D601ED91FC9151
:102BE0000190F081E02DC6010995892B11F47E0139
:102BF00002C02196ECCFC701DF91CF911F910F91B9
:102C0000FF90EF90DF90CF9008950E947B2F8DEE84
:102C100092E00E949A2121E0892B09F420E0822F82
:102C200008951F920F920FB60F9211242F933F9386
:102C30004F935F936F937F938F939F93AF93BF93C4
:102C4000EF93FF938DEE92E00E94C022FF91EF91EF
:102C5000BF91AF919F918F917F916F915F914F91B4
:102C60003F912F910F900FBE0F901F9018951F92BC
:102C70000F920FB60F9211242F938F939F93EF9380
:102C8000FF93E091FD02F091FE028081E091030349
:102C9000F091040382FD12C09081809106038F5F42
:102CA0008F7320910703821751F0E0910603F0E043
:102CB000E351FD4F958F8093060301C08081FF9102
:102CC000EF919F918F912F910F900FBE0F901F90BA
:102CD0001895CF92DF92EF92FF920F931F93CF93AD
:102CE000DF93CDB7DEB761970FB6F894DEBF0FBEA6
:102CF000CDBF182F0E94FC019C01112329F00E94D6
:102D0000692110926F023AC090916F0290FF05C046
:102D1000A9E1B4E0EBE1F4E004C0A8E1B4E0EAE149
:102D2000F4E02130310521F022303105A9F0BDC099
:102D3000923018F0943010F507C08C918F5F863078
:102D40000CF08BEF8C931AC080818150863F14F079
:102D5000808314C0108212C09F5F90936F029430E2
:102D600068F08EEF93E00E94FA0584E697E1909375
:102D70000501809304011092670297C080916F0251
:102D800080FF0BC00DE711E049E1C42E44E0D42ED2
:102D90005BE1E52E54E0F52E0AC00BE711E028E1D7
:102DA000C22E24E0D22E3AE1E32E34E0F32E82301C
:102DB00090F1843008F079C00E94692161E572E0E9
:102DC00080E092E00E94513280E092E00E942A214D
:102DD00061E080E00E942C21F701F080CF2C0F2CC5
:102DE000000CDD0863E472E080E092E00E94513262
:102DF000DF92FF921F930F9380E092E09F938F9357
:102E00001F9281E18F938E010F5F1F4F1F930F93CE
:102E10000E94802F42C00E9469216EE672E080E02D
:102E200092E00E94513280E092E00E942A2161E00B
:102E300080E00E942C21F6012081822F022E000CBE
:102E4000990B97FF03C0919581959109D82EC92EB2
:102E500027FD05C091E8E92E91E0F92E04C08FE727
:102E6000E82E81E0F82E6EE572E080E092E00E94AC
:102E70005132CF92DF92FF92EF921F930F9380E037
:102E800092E09F938F931F9281E18F938E010F5F4A
:102E90001F4F1F930F930E94802FC8010E942A2169
:102EA0000FB6F894DEBF0FBECDBF61960FB6F89493
:102EB000DEBF0FBECDBFDF91CF911F910F91FF906D
:102EC000EF90DF90CF900895CF93C82F0E94FC0120
:102ED000CC2361F083E00E94B0210E94692187EE3B
:102EE00093E090937702809376021FC0009709F4D5
:102EF00043C281309105B1F48091740290917502C2
:102F00000196909375028093740220917202309121
:102F100073022817390708F0DFC01092750210926B
:102F20007402DAC0029709F0D7C0E0917602F091FE
:102F30007702E730F10508F066C0E05CFF4F0C94C3
:102F4000002C80917402809300040CC0E091740204
:102F5000F0917502E65BFE4F808190E09093020451
:102F6000809301048EEF93E00E94FA054CC080919B
:102F7000740290917502892B09F045C08BE298E0AC
:102F8000909305018093040181E0CF910C942B086C
:102F900081E02091740230917502232B09F080E0CA
:102FA00080930304DFCF8091740290917502892B86
:102FB00051F582E296E0909305018093040181E04F
:102FC000CF910C9422068091740290917502892B06
:102FD000D1F489E696E1909305018093040181E0A4
:102FE000CF910C9469168091740290917502892B8F
:102FF00019F410926702C0C187EE93E090937702B4
:1030000080937602B9C18091760290917702019601
:103010008730910528F4909377028093760204C05C
:103020001092770210927602E0917602F091770288
:10303000E730F10508F048C0E95BFF4F0C94002C25
:103040008091000490E0909375028093740236C0E2
:103050006091010470910204EAE4F1E050E040E084
:1030600080E090E0219130E06217730711F4582F4F
:10307000492F01968B309105A9F750937402409324
:1030800075028AE090E01CC081E090E090937302AA
:103090008093720290910304892790E090937502C7
:1030A0008093740211C081E090E090937502809348
:1030B000740206C0109275021092740281E090E0D2
:1030C00090937302809372028091740290917502C2
:1030D00090937102809370020E946921E0917602C0
:1030E000F0917702E730F10508F046C1E25BFF4F4F
:1030F0000C94002C6FEF72E080E092E00E9451325D
:1031000080E092E00E942A2161E080E00E942C2170
:103110002091740230917502809170029091710239
:103120002817390711F080E201C08BE20E941922B2
:103130008091740290917502009731F0019709F027
:103140001BC16DEE72E00FC168EF72E00CC16EED55
:1031500072E080E092E00E94513280E092E00E94B2
:103160002A2161E080E00E942C212091740230919C
:10317000750280917002909171022817390711F041
:1031800080E201C08BE20E941922E0917402F0916A
:103190007502E65BFE4F608170E080E090E04AE0FF
:1031A0000E94242268ED72E0DEC06DEC72E080E0E7
:1031B00092E00E94513280E092E00E942A2161E078
:1031C00080E00E942C212091740230917502809140
:1031D0007002909171022817390711F080E201C046
:1031E0008BE20E94192280917402909175020097DF
:1031F00031F0019709F0C0C066EC72E0B4C069EC30
:1032000072E0B1C06AEB72E080E092E00E9451325D
:1032100080E092E00E942A2161E080E00E942C215F
:103220002091740230917502809170029091710228
:103230002817390711F080E201C08BE20E941922A1
:103240008091740290917502009731F0019709F016
:1032500093C063EB72E087C066EB72E084C064EAFF
:1032600072E080E092E00E94513280E092E00E94A1
:103270002A2161E080E00E942C212091740230918B
:10328000750280917002909171022817390711F030
:1032900080E201C08BE20E94192280917402909119
:1032A0007502009731F0019709F066C06DE972E090
:1032B0005AC060EA72E057C060E972E080E092E0D4
:1032C0000E94513280E092E00E942A2161E080E079
:1032D0000E942C212091740230917502809170021D
:1032E000909171022817390711F080E201C08BE23A
:1032F0000E9419228091740290917502009729F022
:103300000197D1F569E872E02EC06CE872E02BC03D
:103310006DE772E080E092E00E94513280E092E03E
:103320000E942A2161E080E00E942C2120917402F9
:1033300030917502809170029091710228173907BF
:1033400011F080E201C08BE20E9419228091740288
:1033500090917502009729F0019771F466E772E089
:1033600002C069E772E080E092E00E94513280E0A2
:1033700092E0CF910C942A21CF9108950F931F933F
:10338000CF93DF93EC018B899C89AD89BE89892B12
:103390008A2B8B2B89F00E94BF0E0B891C892D89EB
:1033A0003E89DC01CB01801B910BA20BB30B85394D
:1033B0009141A105B105D8F48F89988DA98DBA8D59
:1033C000892B8A2B8B2B09F448C00E94BF0E0F89D2
:1033D000188D298D3A8DDC01CB01801B910BA20B3E
:1033E000B30B893B9B40A105B10580F436C01B8A15
:1033F0001C8A1D8A1E8A8881806190E00E94C40414
:1034000061E070E0CE010E94F703D6CF1F8A188ECC
:10341000198E1A8E60E070E0CE010E94F703809151
:103420006102882329F08881886090E00E94C404AA
:1034300089819A810E94DC03E981FA81811104C0AB
:1034400085859685029749F464E070E0CF01DF91AD
:10345000CF911F910F910C94F502DF91CF911F91A5
:103460000F9108952F923F924F925F926F927F92A9
:103470008F929F92AF92BF92CF92DF92EF92FF9284
:103480000F931F93CF93DF93CDB7DEB72F970FB670
:10349000F894DEBF0FBECDBFFC01838594850197F4
:1034A00021F485859685059749F51786108A118A36
:1034B000128A16A617A610AA11AA12A613A614A657
:1034C00015A616A217A210A611A62F960FB6F8944D
:1034D000DEBF0FBECDBFDF91CF911F910F91FF9047
:1034E000EF90DF90CF90BF90AF909F908F907F90A4
:1034F0006F905F904F903F902F9008958081813022
:1035000021F4409018044D8203C0509019045D824C
:10351000FF87EE870E94BF0E6E837F83888799871F
:10352000212C312CCC24CA94DC2C760119821A82ED
:103530001B821C8200E010E0812C912C54010E941F
:10354000BF0EAB01BC01DB01CA014E805F80688405
:10355000798484199509A609B7098397A105B1054E
:1035600008F087C0EE85FF8581854C875D876A8777
:103570007B870E946E0E2C01990F660877084C8598
:103580005D856A857B85FFEFCF16DF06EF06FF06B8
:1035900041F181E021E0C21622E0D206E104F1040B
:1035A0000CF480E091E031E0431632E05306610410
:1035B00071040CF490E08917A1F0DB01CA01C98005
:1035C000DA80EB80FC808C199D09AE09BF09069753
:1035D000A105B10530F00F5F1F4F49835A836B83FC
:1035E0007C830130110508F441C00330110520F03F
:1035F0000330110591F03AC0C301B2017250810944
:1036000091099B01AC010E94BC2B860E971EA81E3F
:10361000B91E2FEF221A320A29C0910140E050E072
:10362000C501B4010E94A032CA01B9010E945A2DFD
:103630000E94212F0E942B2D9B01AC01AAE6B0E035
:103640000E948D32693833E1730781059105A8F036
:103650004D81E4E64E02600111240D2C000CEE08B1
:10366000FF08C60ED71EE81EF91E09C073016201CD
:1036700066CFC12CD12C760102C06B017C010E9467
:10368000BF0EEE85FF85038D148D258D368D2B01A4
:103690003C01401A510A620A730A49EE441643E09B
:1036A00054066104710420F0638F748F858F968FA8
:1036B0002091010430910204A8EEB3E00E94C232CE
:1036C000EE85FF8520A131A12330310529F021E0CD
:1036D00030E040E050E004C022E030E040E050E064
:1036E0000E94A032DA01C90188519C4FAF4FBF4FF1
:1036F000EE85FF858C159D05AE05BF0508F043C01E
:1037000087859089A189B289892B8A2B8B2B49F4D3
:103710000E94BF0EEE85FF856787708B818B928B31
:1037200036C00E94BF0EEE85FF850785108921896E
:103730003289DC01CB01801B910BA20BB30B813AC8
:103740009F40A105B10518F1EE85FF85808188664F
:1037500090E02F960FB6F894DEBF0FBECDBFDF917D
:10376000CF911F910F91FF90EF90DF90CF90BF907E
:10377000AF909F908F907F906F905F904F903F9011
:103780002F900C945D051786108A118A128A0E9468
:10379000BF0E0E945A2D4B015C01C701B6010E9469
:1037A0005A2DAB01BC01950184018E859F858296BF
:1037B0000E94E914EE85FF858081880F880F880FAD
:1037C00061E088500E942C21EE85FF858081805C1D
:1037D0000E9419228AE30E941922EE85FF85C6A065
:1037E000D7A0E0A4F1A420E030E0A901C701B60110
:1037F0000E94332E18165CF42DEB37E346E855E3B0
:10380000C701B6010E94732C87FF0BC015C02DEBBA
:1038100037E346E855EBC701B6010E94332E181670
:103820005CF0A7019601EE85FF8562A573A584A5CE
:1038300095A50E94782C03C060E070E0CB010E9447
:103840002B2D6B017C012AE030E040E050E00E942B
:10385000A032F8EECF16F3E0DF06E104F104B8F48D
:103860006EE073E080E092E02A873B874C875D87BB
:103870000E945132AAE0B0E02A853B854C855D85E7
:103880000E948D329F938F937F936F9331C0CA01B3
:10389000B90124E630E040E050E00E94A032CB01C4
:1038A0006AE070E00E94EC2B21E030E0059714F410
:1038B00020E030E05B01A20EB31EC701B60128EE86
:1038C00033E040E050E00E94A03289018AE0A8166F
:1038D000B10421F40F5F1F4FA12CB12C65E173E0FF
:1038E00080E092E00E945132BF92AF921F930F93FB
:1038F00080E092E09F938F9388E792E09F938F936D
:103900000E94B02F0FB6F894DEBF0FBECDBF88E780
:1039100092E02F960FB6F894DEBF0FBECDBFDF91B9
:10392000CF911F910F91FF90EF90DF90CF90BF90BC
:10393000AF909F908F907F906F905F904F903F904F
:103940002F900C942A21EF92FF920F931F93CF9305
:10395000DF93EC018B01809161028111B3C18D85F0
:103960009E858530910509F4FEC16817790709F431
:103970000DC280910004882321F0813009F49DC09C
:1039800005C27E876D876530710540F4633071052F
:1039900008F047C06130710530F4F8C16530710539
:1039A00009F480C1F3C160E070E0CE010E94F7032A
:1039B0000130110549F089819A810E94DC0381114F
:1039C00006C064E070E005C061E070E002C063E042
:1039D00070E0CE010E94F502888190E0013011056F
:1039E00019F028E030E002C020E030E0822B932B79
:1039F0000E94C4041B8A1C8A1D8A1E8A89819A819E
:103A0000FC0120A131A12330310509F0BFC164E0E0
:103A100070E0DF91CF911F910F91FF90EF900C9488
:103A2000F502CE010E94DC038111B0C189819A8127
:103A30000E94DC038823E1F00E94BF0E6B8B7C8B1D
:103A40008D8B9E8B63E070E089819A810E94F502E4
:103A500063E070E0CE010E94F5028881886190E009
:103A6000DF91CF911F910F91FF90EF900C94C404C0
:103A700089819A81FC0120A131A12430310521F4F2
:103A800063E070E00E94F50264E070E0CE010E9405
:103A9000F5021B8A1C8A1D8A1E8A8881806190E03B
:103AA0000E94C40461E070E0CE01DF91CF911F91CC
:103AB0000F91FF90EF900C94F703E981FA81E58470
:103AC000F6846530710558F46330710508F0CAC09A
:103AD0006130710549F06230710591F1F0C06530D7
:103AE000710509F4DFC0EBC060E070E0CE010E9418
:103AF000F70361E070E0CE010E94F50210924A04E3
:103B000010924B0410924C0410924D04F2E0EF1608
:103B1000F10469F464E070E089819A810E94F50201
:103B2000E981FA818081886090E00E94C4048881E4
:103B300090E00E94C4041F8EE981FA81178EBFC0F5
:103B400060E070E0CE010E94F7038D859E850397AB
:103B5000029708F044C082E0E816F10491F5E9818B
:103B6000FA81878D81110BC061E070E0CE010E9467
:103B7000F50264E070E089819A810E94F502E98192
:103B8000FA81808190E0278D211103C028E030E088
:103B900002C020E230E0822B932B0E94C404888173
:103BA000806290E00E94C40481E08F8F0E94BF0E6B
:103BB00060934A0470934B0480934C0490934D049B
:103BC0007EC08881886090E00E94C40410924A04FC
:103BD00010924B0410924C0410924D0470C0E1E01E
:103BE000EE16F10491F464E070E0CE010E94F5025B
:103BF0001F8EE981FA81178E10924A0410924B04AD
:103C000010924C0410924D041BC0E894E1F8888196
:103C1000EF28E1F4909160029813B8C09F8D911144
:103C200015C064E070E0CE010E94F5020E94BF0E54
:103C300060934A0470934B0480934C0490934D041A
:103C40008881886090E00E94C40439C090E02F8D84
:103C5000211103C028E130E002C020E230E0822BD5
:103C6000932BF1CFCE010E94DC03811128C088A1E3
:103C700099A1049721F08881886E90E018C0109275
:103C80004A0410924B0410924C0410924D04888107
:103C9000806190E00E94C40461E070E0CE010E9467
:103CA000F7030DC08881886290E080649160DF91A5
:103CB000CF911F910F91FF90EF900C945D051E879F
:103CC0000D8764C06130710509F05CC0888190E0A7
:103CD0000E94C4041E870D878F89988DA98DBA8D87
:103CE000892B8A2B8B2BA9F01F8A188E198E1A8E7E
:103CF00060E070E0CE010E94F70389819A810E9402
:103D0000DC03E981FA81811128C0858596850297B7
:103D100021F1809161028823C9F102301105B1F5CA
:103D20008D859E85019729F48881809360021E8786
:103D30000D872881822F886090E030910004313017
:103D400039F430916002321303C024E030E002C045
:103D500020E030E0822B932B83CE64E070E0CF0133
:103D60000E94F502D6CF6130710561F41E861D8672
:103D7000E981FA8185859685019709F0ADCF10928A
:103D8000FF01AACF0230110509F4A6CFDF91CF9130
:103D90001F910F91FF90EF9008952F923F924F92B5
:103DA0005F926F927F928F929F92AF92BF92CF92CB
:103DB000DF92EF92FF920F931F93CF93DF93CDB7D4
:103DC000DEB728970FB6F894DEBF0FBECDBF6B01EC
:103DD0007C0120E831E541E050E00E94A0322D83D3
:103DE0003E834F83588781E1282E81E0382E810160
:103DF00005501109C701B6010E946D128091EB02B6
:103E0000F10131979081981728F481E0D8012D9124
:103E10003C9140C1891708F42FC15101B3E0AB1A9E
:103E2000B108F50180813196843009F47CC090801E
:103E3000C701B6010E946D12F501A081B0E020E833
:103E40003AE349E050E00E948D322B013C01809121
:103E5000EA0221E030E040E050E0281B310941094E
:103E60005109DA01C9012D813E814F815885280F02
:103E7000391F4A1F5B1F60E871E581E090E00E94F6
:103E8000BC2B640D751D861D971D20E831E541E0B2
:103E900050E00E94A03229013A01DA01C901890DDE
:103EA000911DA11DB11D4C015D01CA01B9016C5FDD
:103EB0007F4F8F4F9F4F27E030E040E050E00E945F
:103EC000A032A5019401261B370B480B590B60E863
:103ED00071E581E090E00E94BC2B69837A838B833B
:103EE0009C834B015C0190E8891A91E5990A91E065
:103EF000A90AB108A301920160E871E581E090E0B0
:103F00000E94BC2B86169706A806B90648F489803D
:103F10009A80AB80BC80A9EE9A0EA7E0AA1EB11CC5
:103F2000F10120819AC0B080C701B6010E946D12D4
:103F30008091EA022D813E814F815885281B3109ED
:103F40004109510960E871E581E090E00E94BC2BD5
:103F5000705D854D9F4F20E831E541E050E00E94C3
:103F6000A03229013A01C701B6010E946D12809169
:103F7000EA022D813E814F815885281B3109410974
:103F8000510960E871E581E090E00E94BC2B705D12
:103F9000854D9F4F0E946D128091EA0221E030E032
:103FA00040E050E0281B310941095109240D351D1D
:103FB000461D571D60E871E581E090E00E94BC2B32
:103FC000605871458140910920E831E541E050E0B9
:103FD0000E94A03229013A01CA01B9016C5F7F4FEA
:103FE0008F4F9F4F27E030E040E050E00E94A0322A
:103FF000A3019201261B370B480B590B2B0D311DCA
:10400000411D511D60E871E581E090E00E94BC2BEC
:1040100069837A838B839C834B015C0130E8831A2C
:1040200031E5930A31E0A30AB108A301920160E8E7
:1040300071E581E090E00E94BC2B681579058A0546
:104040009B0548F489809A80AB80BC804CE8941A28
:104050004AE0A40AB108D1012C9130E0A0E1BEE011
:104060000E94C232860E971EA81EB91EC814D9041B
:10407000EA04FB0408F0C9CEB6E02B1A3108E5E0EB
:104080002E16E1E03E0609F0B2CE81E020910C014F
:1040900030910D01232B09F080E028960FB6F8949B
:1040A000DEBF0FBECDBFDF91CF911F910F91FF906B
:1040B000EF90DF90CF90BF90AF909F908F907F90C8
:1040C0006F905F904F903F902F90089591E0909364
:1040D000E5028093490410928B0310928A0308959D
:1040E00020918A0390914904213208F04AC08091BE
:1040F000C4028111FCCF32E03093C40231E030932E
:10410000C3023FEF3093C2021092C1022093C0025B
:10411000A5ECB2E040EA52E0FA013E2F341B321720
:1041200018F43D913193F9CF10929F0220919F0294
:10413000990F922B90939F0290919E02913061F47F
:1041400010929E0290919F029093BB009091BC00B0
:1041500093FDF8CF95EC01C095EE9093BC00909143
:10416000C4029230E1F39091C2029F3F79F08091B6
:10417000C202803241F08091C202803331F084E08B
:1041800005C081E003C082E001C083E010928B0390
:1041900010928A031092E50208959091C402911141
:1041A000FCCF613208F060E291E09093C4029093FA
:1041B000C3022FEF2093C2021092C102260F209358
:1041C000C00290939F0290919F02880F892B809349
:1041D0009F0280919E02813061F410929E02809134
:1041E0009F028093BB008091BC0083FDF8CF85ECDB
:1041F00001C085EE8093BC008091C4028130E1F360
:104200008091C102861710F46091C102A0EAB2E069
:104210002EE732E0F9018E2F821B861718F48D915C
:104220008193F9CF10928D0360938C03862F0895AC
:10423000009769F0FC0101900020E9F73197AF0188
:10424000481B590BBC018AE394E00C94DA1580E01A
:1042500090E008950C941821CF93DF93CDB7DEB78B
:1042600028970FB6F894DEBF0FBECDBF209145044E
:10427000222331F128E0E2E2F1E0DE011196019023
:104280000D922A95E1F720914104261710F46FEF63
:10429000620FFE013196E60FF11DE60FF11D9081D0
:1042A000682F690F606840E08AE394E028960FB6B3
:1042B000F894DEBF0FBECDBFDF91CF910C941813E1
:1042C00028960FB6F894DEBF0FBECDBFDF91CF9119
:1042D000089580914504882351F040E061E08AE32D
:1042E00094E00E9418138BE39FE10197F1F7089582
:1042F000FC01918D828D981761F0828DDF01A80FEE
:10430000B11D5D968C91928D9F5F9F73928F90E00F
:1043100008958FEF9FEF0895FC01918D828D98177E
:1043200031F0828DE80FF11D858D90E008958FEFBB
:104330009FEF0895FC01918D228D892F90E0805C84
:104340009F4F821B91098F739927089580E090E019
:10435000892B29F00E94071681110C940000089502
:10436000CF93DF9390914504992309F457C090911E
:104370004404992311F097E08927909148049130E3
:10438000C1F580FD03C020EC31E002C020E831E03F
:10439000309347042093460481FF09C020914604CE
:1043A000309147042F77309347042093460482FFCF
:1043B00009C080914604909147049E7F90934704E2
:1043C00080934604D0914604C091470480914304F1
:1043D00080620E94662082E10E94DF128D2F0E947F
:1043E000DF128C2F0E94DF120E9470208111FCCFFF
:1043F00015C090913F04882311F0986001C0977F09
:1044000090933F0480913F04682F687083FD60E8BB
:104410008AE394E0DF91CF910C94E412DF91CF9185
:10442000089580E1EAE4F4E0DF011D928A95E9F75E
:104430000895E0913A04F0913B040190F081E02D61
:10444000682F8AE394E009948F929F92AF92BF9273
:104450000F931F93CF93DF93CDB7DEB7A1970FB61E
:10446000F894DEBF0FBECDBF19A2423008F44AE077
:104470008E010F5D1F4F842E912CA12CB12CA50114
:1044800094010E94A032E62FB901CA01015011091E
:10449000EA3014F4E05D01C0E95CD801EC93232B11
:1044A000242B252B61F7C8010E941821A1960FB675
:1044B000F894DEBF0FBECDBFDF91CF911F910F915A
:1044C000BF90AF909F908F900895CF92DF92EF9220
:1044D000FF920F931F93CF93E82F880FFF0BE15E9E
:1044E000FC4FE4918DEF8E0F823068F468EE73E03C
:1044F00080E090E0CF911F910F91FF90EF90DF90BF
:10450000CF900C949112E83091F5C0E00FE110E0EB
:10451000C12C94E2D92E94EFE92EF12CCF5FEC2F31
:10452000F0E0EE0FFF1FE35AFE4F8081918180176C
:104530009107A0F38C019C01A0EDB7E00E94C2326C
:104540009B01AC01C701B6010E94A0322F3F31058B
:104550004105510509F010F72093B3008091B10097
:10456000C770887FC82BC093B10081E001C080E094
:10457000CF911F910F91FF90EF90DF90CF90089512
:10458000FC01848DDF01A80FB11DA35ABF4F2C91F0
:10459000848D90E001968F739927848FA689B789BF
:1045A0002C93A089B1898C9180648C93938D848D98
:1045B000981306C00288F389E02D80818F7D808367
:1045C0000895EF92FF920F931F93CF93DF93EC0127
:1045D00081E0888F9B8D8C8D981305C0E889F989BF
:1045E000808185FD24C0F62E0B8D10E00F5F1F4FDC
:1045F0000F731127E02E8C8DE8120CC00FB607FC4C
:10460000FACFE889F989808185FFF5CFCE010E9434
:10461000C022F1CF8B8DFE01E80FF11DE35AFF4F51
:10462000F0820B8FEA89FB898081806207C0EE8966
:10463000FF896083E889F98980818064808381E0D3
:1046400090E0DF91CF911F910F91FF90EF9008952F
:10465000CF93DF93EC01888D8823C9F0EA89FB8929
:10466000808185FD05C0A889B9898C9186FD0FC020
:104670000FB607FCF5CF808185FFF2CFA889B989F5
:104680008C9185FFEDCFCE010E94C022E7CFDF9154
:10469000CF910895CF93DF93CDB7DEB767970FB66D
:1046A000F894DEBF0FBECDBF789484B5826084BD20
:1046B00084B5816084BD85B5826085BD85B5816026
:1046C00085BD80916E00816080936E0010928100A4
:1046D000809181008260809381008091810081605F
:1046E0008093810080918000816080938000809120
:1046F000B10084608093B1008091B00081608093AC
:10470000B00080917A00846080937A0080917A0072
:10471000826080937A0080917A00816080937A0031
:1047200080917A00806880937A001092C10014BE54
:104730009EE088E10FB6F894A895809360000FBEC4
:1047400090936000809180008C7F809380008091A6
:104750008100877E80618093810064EF71E080E05A
:1047600090E00E9491128091B0008C7F81608093D4
:10477000B0008091B10088608093B10010E07EE3CA
:10478000E72EF12C812CE4E29E2EE4EFAE2EB12C2C
:104790001F5FE12FF0E0EE0FFF1FE35AFE4F808115
:1047A00091818E159F05A0F37C019C01A8EEB3E0DA
:1047B0000E94C2329B01AC01C501B4010E94A0322B
:1047C0002F3F31054105510509F010F72093B30043
:1047D0008091B1001770887F182B1093B10081E091
:1047E0008093480462E370E080E090E00E94850ED0
:1047F00010928D0310928C0310928B0310928A03F7
:104800000E94CB14909148048091430480629130BF
:1048100069F50E94662080E00E94DF128FE10E940D
:10482000DF120E947020882339F080914504823085
:1048300019F410924504EDC08091430480620E94F7
:1048400066208CE00E94DF128FE10E94DF120E943E
:104850007020882321F080914504823051F38091AB
:10486000430480620E94662081E032C00E9466207C
:1048700080E00E94DF128FEF0E94DF1280E00E9432
:10488000DF1280E00E94DF1280E00E94DF1280E0F1
:104890000E94DF1280E00E94DF1280E00E94DF129F
:1048A00080E00E94DF1280E00E94DF1280E00E9420
:1048B000DF120E947020882329F080914504823005
:1048C00009F4B7CF8091430480620E94662080E0A3
:1048D0000E94DF1280E00E94DF120E947020882375
:1048E00029F080914504823009F4A3CF80914504DA
:1048F000823019F481E08093450480913E04886001
:1049000080933E0482E0809341041092420480919F
:1049100048048130E1F4109247041092460413E0F9
:1049200068E38AE394E00E94FE1268E18AE394E07F
:104930000E94FE121150A1F768E28AE394E00E94FF
:10494000FE1268E08AE394E00E94FE1228C06CE93F
:104950008AE394E00E94E41268E98AE394E00E940A
:10496000E4126CE98AE394E00E94E41268E98AE3C5
:1049700094E00E94E4126CE98AE394E00E94E4125D
:1049800068E98AE394E00E94E41264E98AE394E02F
:104990000E94E41260E98AE394E00E94E41265E078
:1049A00070E080E090E00E94850E60913E046062BD
:1049B00040E08AE394E00E94181365E070E080E034
:1049C00090E00E94850E60913E04606240E08AE3C0
:1049D00094E00E94181365E070E080E090E00E948F
:1049E000850E8CE080933F0480914504882331F04C
:1049F00040E06CE08AE394E00E9418130E94692171
:104A000082E08093400440E066E08AE394E00E9404
:104A1000181387E00E94B0210E94692160E080E0C5
:104A20000E942C216BE072E080E092E00E94513203
:104A300080E092E00E942A2161E081E00E942C2126
:104A400067E072E080E092E00E94513280E092E004
:104A50000E942A2180E20E94192261E072E080E037
:104A600092E00E94513280E092E00E942A2180ED83
:104A700097E00E94E30161E081E00E942C216DEF4C
:104A800071E080E092E00E94513280E092E00E946A
:104A90002A2180E20E94192267EF71E080E092E013
:104AA0000E94513280E092E00E942A2108E010E04A
:104AB00080E20E94192201501109D1F761E083E0E0
:104AC0000E94320E60E083E00E94020E60E082E00D
:104AD0000E94320E85EC91E09093010180930001D9
:104AE00080916900836080936900E89A61E08AE0C0
:104AF0000E94320E61E089E00E94320E61E088E09F
:104B00000E94320E61E087E00E94320E60E081E197
:104B10000E94320E60E080E10E94320E61E070E09F
:104B20008AE993E00E94F50261E070E08CEC93E08A
:104B30000E94F50260E070E08AE993E00E94F703CA
:104B400060E070E08CEC93E00E94F7030E94112279
:104B50001092620210926302109264021092650237
:104B60001092FF0183E690E09093690280936802BF
:104B700081E08093600282EF90E19093FE01809348
:104B8000FD018091F9019091FA01A091FB01B09192
:104B9000FC018093F5019093F601A093F701B09387
:104BA000F8010E94A80F80912C040E94630F8AE0F4
:104BB0000E946522811103C083E00E94B02189E038
:104BC0000E946522811103C084E00E94B02180ED23
:104BD00097E00E94E3010E9469210E94750481E12F
:104BE0000E94D90D01E0019709F000E080E10E94E8
:104BF000D90D11E0019709F010E0011102C0112355
:104C0000F9F081E00E94B0210E94692167EE71E015
:104C100080E092E00E94513280E092E00E942A21DE
:104C200061E080E00E942C21002319F081E40E94C1
:104C30001922112319F082E40E9419220E942C04E7
:104C400030E8832E31E5932EAA24A394B12C47E0BB
:104C5000442E512C612C712C3324339452E0252E98
:104C6000A89580916702882339F0E0910401F091C2
:104C7000050180E00995AAC280916602882331F07F
:104C800088EA90E00E945D051092660280916202BF
:104C900090916302A0916402B0916502892B8A2BE6
:104CA0008B2B81F581E10E94D90D019739F4809118
:104CB000A5039091A603892B09F48BC280E10E9481
:104CC000D90D019739F48091D7039091D803892B9E
:104CD00009F484C281E10E94D90D892B39F48091B5
:104CE000A5039091A603019709F47DC280E10E947B
:104CF000D90D892B39F48091D7039091D80301976E
:104D000009F476C28091620290916302A0916402DC
:104D1000B0916502892B8A2B8B2BA1F00E94BF0ECC
:104D20000091620210916302209164023091650249
:104D30000C501E4F2F4F3F4F0617170728073907F4
:104D400008F45BC28091A7039091A803059731F006
:104D50008091D9039091DA03059711F481E01AC08C
:104D60008AE993E00E94DC03182F8CEC93E00E9408
:104D7000DC0311110AC081110CC080916102811104
:104D800002C082E007C083E005C0882311F085E0FF
:104D900001C086E00E94B02190916E028091610274
:104DA000992309F456C0811151C00E9411228091AB
:104DB0000004813089F48091BA039091BB03049779
:104DC00019F43092600208C08091EC039091ED03D9
:104DD0000497B9F72092600261E070E08AE993E0FD
:104DE0000E94F50261E070E08CEC93E00E94F50215
:104DF0000E94BF0E6093B1037093B2038093B3031C
:104E00009093B4031092A8031092A7031092AD03DD
:104E10001092AE031092AF031092B0031092B90338
:104E20006093E3037093E4038093E5039093E603B8
:104E30001092DA031092D9031092DF031092E0036C
:104E40001092E1031092E2031092EB0330926102A0
:104E50000EC0882351F01092A8031092A70310925D
:104E6000DA031092D9030E9411221092610260E0CD
:104E700080E00E942C2188E60E94662060E08EE897
:104E800093E00E94AA0D0E94702061E070E088E625
:104E900090E00E94CD208EE893E00E94660D87FD91
:104EA0004AC00E94DA050E946D128091E80290E0EB
:104EB0000C971CF421E4F22E02C090E5F92E0E941A
:104EC000DA050E946D12E090E7020E94DA050E9466
:104ED0006D128091E802882339F0082F10E08D30A0
:104EE00028F00C50110902C00CE010E066E372E0FB
:104EF00080E092E00E9451321F92FF921F92EF9247
:104F00001F930F9380E092E09F938F931F9281E114
:104F1000E82EEF9201E010E00C0F1D1F1F930F937E
:104F20000E94802FC8010E942A210FB6F894DEBF8C
:104F30000FBECDBF08C008E010E080E20E94192239
:104F400001501109D1F780916102882319F06DE2B7
:104F500072E018C06AE272E080E092E00E94513292
:104F600080E092E00E942A2180910004882329F0A9
:104F7000813031F46CE172E005C063E272E002C09E
:104F800068E172E080E092E00E94513280E092E0BD
:104F90000E942A21C0905604D0905704E0905804F3
:104FA000F0905904C114D104E104F10471F00E949D
:104FB000BF0E9701860100561444224F3F4F06173B
:104FC00017072807390708F421C18AE993E00E94EE
:104FD00097026C01BC018AE993E00E94A31C8CEC4F
:104FE00093E00E9497029F8B8E8BBC018CEC93E028
:104FF0000E94A31C80914A0490914B04A0914C0400
:10500000B0914D04892B8A2B8B2B61F10E94BF0E2E
:10501000AB01BC0180914A0490914B04A0914C04D7
:10502000B0914D047A018B01E81AF90A0A0B1B0BA7
:1050300021EEE21623E9F2060440110598F0809172
:10504000BA039091BB03049719F48AE993E008C06E
:105050008091EC039091ED03049721F48CEC93E0A4
:105060000E94A4150E94BF0EE0906A02F0906B02AD
:1050700000916C0210916D029B01AC012E193F0949
:10508000400B510B21363A4E4105510540F06093DB
:105090006A0270936B0280936C0290936D028AE9AE
:1050A00093E00E94321A8CEC93E00E94321A8AE953
:1050B00093E00E94BE198CEC93E00E94BE190E94FE
:1050C000FC019C01019729F4909161029325909332
:1050D0006E02CA94CD28A9F40E891F8901301105EA
:1050E00081F42230310569F4309267021092A803EE
:1050F0001092A7031092DA031092D90381E00E9464
:10510000641700916802109169020E94DA050E94FA
:105110006D128091E70290E00817190709F456C054
:105120000E94DA050E946D128091E70290E0909350
:105130006902809368020E94DA056B017C010E947B
:105140006D120091E802C701B6010E946D12109124
:10515000E702C701B601A50194010E94A032CA016D
:10516000B9016C5F7F4F8F4F9F4FA30192010E9447
:10517000A03281E001C0880F6A95EAF720E030E0B4
:10518000F901E250FC4F9185992371F0468140135B
:105190000BC04781411308C04085482329F0913056
:1051A00049F0923071F012C02C5F3F4F243131052D
:1051B00039F70CC080916102811108C090936E0292
:1051C00005C080916102811110926E020E94A62199
:1051D00047CD89E291E00E945D0570CD8AE291E0C1
:1051E0000E945D0577CD89E290E00E945D057ECD4D
:1051F0008AE290E00E945D0585CD109262021092D5
:10520000630210926402109265029CCD0E941122EA
:105210008091FF018F5F8093FF011092A80310928D
:10522000A7031092DA031092D903CFCECF92DF9268
:10523000EF92FF920F931F93CF93DF931092F002A0
:105240001092EF0288EEC82E83E0D82EE12CF12CCC
:10525000C092F102D092F202E092F302F092F402D4
:105260008EE291E09093EE028093ED0285EC90E067
:105270009093FA028093F90284EC90E09093FC0200
:105280008093FB0280EC90E09093FE028093FD02FD
:1052900081EC90E0909300038093FF0282EC90E019
:1052A000909302038093010386EC90E090930403B3
:1052B00080930303109206031092070310920803D1
:1052C0001092090310928D0310928C0310928B039D
:1052D00010928A030E94CB141092910310929003B3
:1052E000C0929203D0929303E0929403F0929503BC
:1052F0008EE391E090938F0380938E0310923D0490
:1053000010923C0489E591E090933B0480933A0429
:1053100082E0809345041092440480E28093430429
:1053200010923E041092480410921804109219042E
:1053300010921A0410921B048FED95E0A5EDB9E4CC
:1053400080931C0490931D04A0931E04B0931F042B
:10535000109228041092290410922A0410922B040F
:10536000109224041092250410922604109227040F
:10537000109220041092210410922204109223040F
:1053800080E090E0A0E0BFE380932E0490932F0490
:10539000A0933004B093310480933204909333048B
:1053A000A0933404B093350410923604109237045D
:1053B000109238041092390410922C0410922D048B
:1053C0000EEF13E0C0E0D0E0CE010E945832F801A9
:1053D00081938F012196CC33D105B1F78091FE03E3
:1053E0009091FF038537994009F47AC085E799E0E9
:1053F0009093FF038093FE03109200048CE090E0F2
:10540000909302048093010481E08093030480E080
:1054100090E0FC01E250FC4F118616821782108644
:10542000049684319105A9F78EE380930A04809352
:10543000060497E19093040497E09093080491EC9C
:1054400090930E0423E120930C04909312049FE0A8
:1054500090931004809316048EE0809314041092AD
:1054600018041092190410921A0410921B0410923E
:1054700028041092290410922A0410922B041092EE
:1054800024041092250410922604109227041092EE
:10549000200410922104109222041092230480917F
:1054A0002E0490912F04A0913004B0913104809388
:1054B000320490933304A0933404B09335041092D3
:1054C0003604109237041092380410923904109266
:1054D0002C0410922D048EEF93E00E94FA0565C013
:1054E00080910004823010F0109200044091010479
:1054F00050910204EAE4F1E020E081E0E535F807AC
:1055000039F0819190E084179507B9F721E0F5CF44
:10551000211106C08CE090E0909302048093010476
:10552000E7E0F4E08081833008F01082DF01139718
:105530008C91883108F01C92DF0112978C918C338A
:1055400008F01C92DF018E918F778C93349624E0C3
:10555000EB31F20739F780911804082E000C990BF3
:1055600097FF03C0919581959109069714F01092C9
:10557000180480911904082E000C990B97FF03C0A2
:10558000919581959109069714F0109219048091D4
:105590001A04865F8B3010F010921A0480911B045D
:1055A000865F8B3010F010921B0481E080939A0389
:1055B0008CEC93E090939C0380939B0388E090E0B5
:1055C00090939E0380939D038AE090E09093A003C4
:1055D00080939F0381E090E09093A2038093A103C6
:1055E00027E030E03093A4032093A3031092A60396
:1055F0001092A5031092A8031092A7031092A9037A
:105600001092AA031092AB031092AC031092AD0358
:105610001092AE031092AF031092B0031092B10338
:105620001092B2031092B3031092B4031092B50318
:105630001092B6031092B7031092B8031092B903F8
:105640001092BB031092BA038EEA90E4A7E0B5E48F
:105650008093BC039093BD03A093BE03B093BF039C
:105660001092C8031092C9031092CA031092CB0380
:105670001092C4031092C5031092C6031092C70380
:105680001092C0031092C1031092C2031092C30380
:1056900042E04093CC034AE953E05093CE03409359
:1056A000CD033093D0032093CF0329E030E0309333
:1056B000D2032093D1031092D4031092D30326E097
:1056C00030E03093D6032093D5031092D803109284
:1056D000D7031092DA031092D9031092DB031092D1
:1056E000DC031092DD031092DE031092DF031092B0
:1056F000E0031092E1031092E2031092E303109290
:10570000E4031092E5031092E6031092E70310926F
:10571000E8031092E9031092EA031092EB0310924F
:10572000ED031092EC038093EE039093EF03A093AC
:10573000F003B093F1031092FA031092FB0310925E
:10574000FC031092FD031092F6031092F7031092DF
:10575000F8031092F9031092F2031092F3031092DF
:10576000F4031092F503DF91CF911F910F91FF90F9
:10577000EF90DF90CF900895DB018F939F930E946D
:105780008D32BF91AF91A29F800D911DA39F900D6F
:10579000B29F900D11240895991B79E004C0991FC0
:1057A000961708F0961B881F7A95C9F7809508957B
:1057B000AA1BBB1B51E107C0AA1FBB1FA617B70737
:1057C00010F0A61BB70B881F991F5A95A9F7809553
:1057D0009095BC01CD01089597FB072E16F4009417
:1057E00007D077FD09D00E94D82B07FC05D03EF4E6
:1057F000909581959F4F0895709561957F4F08957D
:10580000EE0FFF1F0590F491E02D09945058BB272F
:10581000AA270E941E2C0C94F92D0E94EB2D38F023
:105820000E94F22D20F039F49F3F19F426F40C94D5
:10583000C12D0EF4E095E7FB0C94BB2DE92F0E94DF
:105840000A2E58F3BA17620773078407950720F0EA
:1058500079F4A6F50C942C2E0EF4E0950B2EBA2FAD
:10586000A02D0B01B90190010C01CA01A001112466
:10587000FF27591B99F0593F50F4503E68F11A1612
:10588000F040A22F232F342F4427585FF3CF4695A3
:1058900037952795A795F0405395C9F77EF41F16C5
:1058A000BA0B620B730B840BBAF09150A1F0FF0F8F
:1058B000BB1F661F771F881FC2F70EC0BA0F621F7B
:1058C000731F841F48F4879577956795B795F7956B
:1058D0009E3F08F0B0CF9395880F08F09927EE0F00
:1058E0009795879508950E94972D08F481E0089573
:1058F0000E948C2C0C94F92D0E94F22D58F00E94DD
:10590000EB2D40F029F45F3F29F00C94BB2D511191
:105910000C942D2E0C94C12D0E940A2E68F399230D
:10592000B1F3552391F3951B550BBB27AA2762179B
:105930007307840738F09F5F5F4F220F331F441FA8
:10594000AA1FA9F335D00E2E3AF0E0E832D09150DC
:105950005040E695001CCAF72BD0FE2F29D0660FC9
:10596000771F881FBB1F261737074807AB07B0E80C
:1059700009F0BB0B802DBF01FF2793585F4F3AF012
:105980009E3F510578F00C94BB2D0C942D2E5F3F5B
:10599000E4F3983ED4F3869577956795B795F79598
:1059A0009F5FC9F7880F911D9695879597F9089580
:1059B000E1E0660F771F881FBB1F6217730784071C
:1059C000BA0720F0621B730B840BBA0BEE1F88F72B
:1059D000E095089529F416F00C94BB2D0C942C2E10
:1059E0000C94C12D0E94122EA8F39638A0F707F848
:1059F0000F92E8942BE33AEA48EB5FE70E94C42E4B
:105A00000F920F920F924DB75EB70F920E947A2EAF
:105A1000EAEAF0E00E94C42D4F915F91EF91FF916F
:105A2000E595EE1FFF1F49F0FE57E0684427EE0F93
:105A3000441FFA95E1F74195550B0E94442E0F90B3
:105A400007FE0C94382E08950E942B2D6894B111F6
:105A50000C942D2E08950E94122E88F09F5798F0D6
:105A6000B92F9927B751B0F0E1F0660F771F881F63
:105A7000991F1AF0BA95C9F714C0B13091F00E947D
:105A80002C2EB1E008950C942C2E672F782F8827A8
:105A9000B85F39F0B93FCCF3869577956795B395A4
:105AA000D9F73EF490958095709561957F4F8F4F13
:105AB0009F4F0895E89409C097FB3EF49095809518
:105AC000709561957F4F8F4F9F4F9923A9F0F92FC4
:105AD00096E9BB279395F695879577956795B79542
