:100000000C943A040C94D01E0C94A91E0C94620417
:100010000C9462040C9462040C9462040C946204C8
:100020000C9462040C9462040C9462040C946204B8
:100030000C9462040C9462040C9462040C946204A8
:100040000C945F1E0C9462040C943B1D0C94151DC3
:100050000C9462040C9462040C9462040C94620488
:100060000C94C30D0C9462048D04C004C904D40420
:10007000DC04DC04DC04DC04DC04DC04DC04EA0472
:100080004E0F590F740F850F920FA20FB20FDF0F93
:10009000E80F1D100E101D101D10241044107310B9
:1000A000A510D41003113211601152656C617920D2
:1000B0004661696C7572653A200053657450696ECB
:1000C0004672657175656E637920666F7220636133
:1000D000722042206661696C65642100536574502A
:1000E000696E4672657175656E637920666F722000
:1000F0006361722041206661696C65642100322E63
:10010000342E300053573A00322E332E31004857E8
:100110003A004A31373732204879647261200053FF
:1001200074617274696E672048573A25732053577B
:100130003A257300506F776572207769746864722E
:1001400061776E206166746572206572726F7220CD
:1001500064656C6179206F6E20636172204200508B
:100160006F7765722077697468647261776E206159
:10017000667465722070617573652064656C617961
:10018000206F6E20636172204200423A206F6666E3
:10019000202000423A204F4E2020200044656C6110
:1001A000796564207472616E736974696F6E20631F
:1001B0006F6D706C65746564206F6E206361722072
:1001C0004200506F77657220776974686472617756
:1001D0006E206166746572206572726F722064654C
:1001E0006C6179206F6E20636172204100506F77DF
:1001F00065722077697468647261776E20616674D5
:1002000065722070617573652064656C6179206F1B
:100210006E20636172204100413A206F66662020A3
:1002200000413A204F4E2020200044656C617965E2
:1002300064207472616E736974696F6E20636F6D90
:10024000706C65746564206F6E206361722041007C
:1002500043617220422063757272656E742064720D
:10026000617720256C75206D41004361722041202B
:1002700063757272656E74206472617720256C7587
:10028000206D4100506F77657220617661696C6105
:10029000626C6520256C75206D4100537461746536
:1002A000733A2043617220412C2025733B20436127
:1002B0007220422C20257300423A20776169742015
:1002C00000423A20646F6E652000413A206F6666F6
:1002D00020200053657175656E7469616C206D6FC7
:1002E0006465206F666665722074696D656F7574EC
:1002F0002C206D6F76696E67206F6666657220745C
:100300006F20257300423A206F6666202000413A34
:1003100020776169742000413A20646F6E65200087
:1003200053657175656E7469616C206D6F646520CD
:100330006F666665722074696D656F75742C206DCB
:100340006F76696E67206F6666657220746F202510
:10035000730043617220422073746174652074726B
:10036000616E736974696F6E3A2025732D3E257333
:100370002E00423A206F6666202000423A206F66C7
:10038000662A2000423A202D2D2D20200043617244
:10039000204220646973636F6E6E65637465642CBC
:1003A00020636C656172696E67206572726F72009E
:1003B0004361722041207374617465207472616EB0
:1003C000736974696F6E3A2025732D3E25732E0074
:1003D000413A206F6666202000413A206F66662A07
:1003E0002000413A202D2D2D202000436172204114
:1003F00020646973636F6E6E65637465642C20633B
:100400006C656172696E67206572726F7200554E1D
:100410004B007365716E746C007368617265640083
:100420004D3A004D3A50415553454400202020207C
:1004300020202020002532643A2530326425634D87
:10044000200050617573696E672E0047726F756E7C
:1004500064206661696C7572652064657465637497
:100460006564206F6E2063617220420047726F7571
:100470006E64206661696C7572652064657465637D
:10048000746564206F6E2063617220410052656C58
:100490006179206661756C74206465746563746548
:1004A00064206F6E2063617220420052656C617936
:1004B000206661756C74206465746563746564207E
:1004C0006F6E206361722041004746492066617566
:1004D0006C7420646574656374656400636C656145
:1004E000720073657400537475636B20004746494E
:1004F0002054657374204661696C7572650045729D
:10050000724A616E4665624D61724170724D6179E9
:100510004A756E4A756C4175675365704F63744ECA
:100520006F7644656300202000253264002020207F
:1005300000202020002025326400202000253032B9
:1005400064002020002532640053657420436C6FE2
:10055000636B00534D545754465300534D545754F6
:100560004653002020002530326400202000253230
:100570006400202020202020202020202020202057
:1005800020200045786974002020202000456469FF
:1005900074204576656E742000536176696E67201D
:1005A0006576656E74202564202D2025643A2564C7
:1005B00020646F775F6D61736B20257820657665A9
:1005C0006E7420256400204361722025733A202533
:1005D0006425250050696C6F7420646572617465D0
:1005E00000204361722025733A202573302E256444
:1005F00000416D6D65746572004E6F005965730042
:1006000045786974204D656E75733F004E6F0059D3
:1006100065730043616C6962726174696F6E3F005B
:100620004E6F0059657300436F6E666967204576AB
:10063000656E74733F004E6F0059657300456E61BF
:10064000626C65204453543F004E6F00596573003F
:1006500053657420436C6F636B3F0020416D707372
:100660000043757272656E7420417661696C2E006C
:1006700053657175656E7469616C0053686172656C
:1006800064004F7065726174696E67204D6F6465B8
:100690000025336C756D41002532642E25303164A0
:1006A00041004572726F72202563206F6E202573A2
:1006B00000423A4552522000413A455252200053DE
:1006C000657474696E672025732072656C6179208A
:1006D000746F2025730050696E20256420746F208C
:1006E00050574D2025640050696E20256420746F9A
:1006F000206469676974616C2025640053657474B3
:10070000696E672025732070696C6F7420746F2088
:1007100025730025732068696768202575206C6F34
:100720007720257520636F756E7420256C75003AEF
:10073000204F4E202020003A207761697420003A33
:1007400020646F6E6520003A206F66662020003AB4
:10075000206F66662020003A206F66662020003AEF
:1007600020646F6E6520003A206F66662020003A94
:1007700020646F6E6520003A202D2D2D2020003A38
:10078000206F66662020003A204F4E202020003A3D
:1007900020776169742000427574746F6E207368ED
:1007A0006F72742D70757368206576656E74004283
:1007B0007574746F6E206C6F6E672D707573682022
:1007C0006576656E7400427574746F6E206973206F
:1007D000757000427574746F6E20697320646F7752
:1007E0006E00427574746F6E7320256400436865F3
:1007F000636B696E6720666F7220627574746F6ECA
:10080000206576656E740000000000240027002A31
:100810000000000000250028002B0000000000233D
:100820000026002900040404040404040402020253
:100830000202020303030303030102040810204021
:1008400080010204081020010204081020000000AA
:10085000080002010000030407000000000000007F
:1008600000554E4B4E4F574E3A2000494E464F3A98
:100870002000DD3211241FBECFEFD8E0DEBFCDBF98
:1008800011E0A0E0B1E0EAECFFE602C005900D92B5
:10089000AA3FB107D9F724E0AAEFB1E001C01D9249
:1008A000AD3EB207E1F714E0CAE3D4E004C02197FB
:1008B000FE010E945E34C933D107C9F70E94872523
:1008C0000C94E3370C940000DF92EF92FF920F93A9
:1008D0001F93CF93DF9300D000D0CDB7DEB7F82EB3
:1008E0000E94BA118C01FF2039F00E941D25109240
:1008F000CA021092C90204C08130910509F075C086
:100900009091CA02492F50E04C30510508F0FDC0CB
:10091000FA01EC5CFF4F0C945E34F11005C080913D
:10092000C9028F5F8093C9028091C902853010F09F
:100930001092C902E091C902E43008F0E6C024E058
:10094000E29FF0011124E35FFD4F80818093C80294
:1009500091819093C70292819093C6029381909364
:10096000C50291E08C3008F490E09093C4028111AC
:1009700002C08CE00BC08D3008F4C7C08C5006C09C
:100980008091C8028F5F8D3008F081E08093C802AB
:10099000BCC08091C7028F5F8C3318F48093C7026C
:1009A000B4C01092C702B1C081E09091C40291110D
:1009B00080E08093C402A9C02CEF290F81E090E071
:1009C00001C0880F2A95EAF79091C6028927809383
:1009D000C6029BC08091C5028F5F833018F480935C
:1009E000C50293C01092C50290C0029709F08FC053
:1009F0009091CA0291110FC08091C902843059F4BC
:100A000081E19FE0909305018093040110924D02D3
:100A10000E941D25B6C19F5F9093CA029C3008F4C6
:100A200076C01091C8028091C402811103C01C30AD
:100A300031F4A5C1813019F41C3009F0145FD09055
:100A4000C502E090C602F090C7020091C90269E9B0
:100A500075E08DE993E00E948F371F92DF921F921D
:100A6000EF921F92FF921F921F931F920F938DE997
:100A700093E09F938F931F9282E08F930E9478233D
:100A80008091C90290E0FC01EE0FFF1FEE0FFF1FE7
:100A9000E35FFD4F10832091C70221832091C6029E
:100AA00022832091C50223830496612F880F991F0A
:100AB000880F991F0E940F0F8091C90234E0839F15
:100AC000C00111246091C70241960E940F0F8091CE
:100AD000C90224E0829FC00111246091C60242969F
:100AE0000E940F0F8091C90234E0839FC00111243E
:100AF0006091C50243960E940F0F1092CA020FB672
:100B0000F894DEBF0FBECDBF3CC101E010E00E94F3
:100B1000531E28EE33E040E050E00E941D3421E0F7
:100B2000643F71408105910508F420E0012B29F410
:100B30009091C302921709F424C12093C30260E08C
:100B400080E00E947F246DE875E08DE993E00E94CB
:100B50008F376DE973E081EB94E00E94131D809163
:100B6000C302882339F08091CA02811103C068E86A
:100B700075E006C04091C902443069F463E875E04D
:100B80008DE993E00E948F376DE973E081EB94E08B
:100B90000E94131D0CC050E04F5F5F4F052E000CEC
:100BA000660B770B2AE081EB94E00E94CA1C61E09F
:100BB00080E00E947F248091C902843069F462E75A
:100BC00075E08DE993E00E948F376DE973E081EB6A
:100BD00094E00E94131DD5C01091C8026EE675E026
:100BE0008DE993E00E948F371F921F938DE993E068
:100BF0009F938F938E010F5F1F4F1F930F930E9440
:100C0000C2340F900F900F900F900F900F90809123
:100C1000C302882369F08091CA02813049F46BE6EF
:100C200075E08DE993E00E948F376DE973E001C0B4
:100C3000B80181EB94E00E94131D8AE30E947424A2
:100C4000F090C70266E675E08DE993E00E948F3769
:100C50001F92FF928DE993E09F938F931F930F93C1
:100C60000E94C2340F900F900F900F900F900F9032
:100C70008091C302882369F08091CA02823049F4CE
:100C800063E675E08DE993E00E948F376DE973E0CC
:100C900001C0B80181EB94E00E94131D8091C30252
:100CA000882331F08091CA02833011F480E207C0BA
:100CB0008091C402813011F081E401C080E50E947E
:100CC000742480E20E94742400E010E063E575E083
:100CD0008DE993E00E948F37EDE9F3E00190002069
:100CE000E9F73197ED59F3400E171F0758F580913A
:100CF000CA0290E098012C5F3F4F2817390731F462
:100D00008091C302882311F080E217C08091C6024F
:100D100090E0002E02C0959587950A94E2F780FF37
:100D20000BC06BE575E08DE993E00E948F37F80109
:100D3000E356FC4F808101C08DE20E9474240F5F56
:100D40001F4FC4CF80E20E9474248091CA028B306E
:100D500031F48091C302882311F080E20DC08091AC
:100D6000C502811102C08EE407C0813011F483E511
:100D700003C0823031F487E40E94742402C010E082
:100D80005ECE0F900F900F900F90DF91CF911F913B
:100D90000F91FF90EF90DF900895CF92DF92EF9246
:100DA000FF92CF93DF9380910402882309F462C0FD
:100DB0000E941E1F6B017C010E940722EC016091C2
:100DC000D8047091D9048091DA049091DB040E94D8
:100DD0000722C817D90731F0C701B6010E940722C0
:100DE0000E940623C701B6010E940722EC01609110
:100DF000D8047091D9048091DA049091DB040E94A8
:100E00000722C817D90731F0C701B6010E9407228F
:100E10000E9406234091DC045091DD046091DE04C1
:100E20007091DF048091D8049091D904A091DA04E4
:100E3000B091DB04481759076A077B0741F1841713
:100E40009507A607B70758F4C816D906EA06FB06A1
:100E5000F0F0C416D506E606F706C8F413C0C416AB
:100E6000D506E606F70670F0C816D906EA06FB06B0
:100E700048F40DC0DF91CF91FF90EF90DF90CF90BD
:100E80000C941E1FA091CA04B091CB0404C0A09181
:100E9000D604B091D7042CE330E00E9473346C0D7B
:100EA0007D1D8E1D9F1DDF91CF91FF90EF90DF90F4
:100EB000CF900895CF92DF92EF92FF920F931F93FE
:100EC000CF93DF93CDB7DEB72E970FB6F894DEBF82
:100ED0000FBECDBFF82E0E94BA118C01FF2009F47D
:100EE00058C00E941D2569E475E08DE993E00E94D9
:100EF0008F376DE973E081EB94E00E94131D0E942F
:100F0000CD060E94E3212091FF03222331F0822F9E
:100F100090E02D3020F00C9702C08CE090E08093A0
:100F2000C8020E94CD060E94E3218091FF0390E059
:100F300021E00C970CF420E02093C4020E94CD061F
:100F40000E94E3218091FE038093C7020E94CD0698
:100F50000E94E321809101048093C2020E94CD0689
:100F60000E94E321809102048093C1020E94CD0679
:100F70000E9407229C012A5D37402B30310510F07A
:100F80008AED97E09093C0028093BF021092CA024C
:100F90005DC08130910509F051C09091CA02923034
:100FA00001F128F4992349F0913081F09BC19430EC
:100FB00061F110F1953091F195C18091C8028F5F78
:100FC0008D3008F081E08093C8028CC18091C70207
:100FD0008F5F8C3318F48093C70284C11092C702CC
:100FE00081C18091C4028F5F823018F48093C40263
:100FF00079C11092C40276C18091C2028F5F8032A3
:1010000008F081E08093C2026DC18091C1028F5FC0
:101010008D3008F081E08093C10264C18091BF02ED
:101020009091C0020196853E27E0920710F08AED6C
:1010300097E09093C0028093BF0254C1029709F0D9
:1010400051C18091CA028F5F8093CA028091CA0207
:10105000863008F445C19091C4028091C802911174
:1010600005C08C3051F41092C80207C0913029F4A9
:101070008C3019F0845F8093C8028091BF02825B3C
:101080008E878091C1028D878091C2028C8780916A
:10109000C8028A878091C70289871886CE01089680
:1010A0000E94A81F6B017C0180910402882309F42F
:1010B0007FC0C701B6010E9407228C016091E00445
:1010C0007091E1048091E2049091E3040E94072270
:1010D0000817190731F0C701B6010E9407220E94C4
:1010E0000623C701B6010E9407228C016091E0042B
:1010F0007091E1048091E2049091E3040E94072240
:101100000817190731F0C701B6010E9407220E9493
:1011100006234091DC045091DD046091DE0470915F
:10112000DF048091D8049091D904A091DA04B091A1
:10113000DB04481759076A077B0709F4FDC1409192
:10114000E4045091E5046091E6047091E704809115
:10115000E0049091E104A091E204B091E3048417CB
:101160009507A607B70768F4C816D906EA06FB066E
:1011700008F4E2C1C416D506E606F70608F0DCC19D
:101180000BC0C416D506E606F70630F0C816D90619
:10119000EA06FB0608F4D0C1A091CA04B091CB04C2
:1011A0002CE330E00E947334C61AD70AE80AF90A21
:1011B000C701B6010E94F71EAE014F5F5F4FC70126
:1011C000B6010E94122188E60E94C22360E085EAEF
:1011D00094E00E94F50B60E885EA94E00E94F50B2C
:1011E0008A811AE0612F0E94E933692F30E1839FE1
:1011F000600D112485EA94E00E94F50B8B81612F2C
:101200000E94E933692F20E1829F600D112485EA55
:1012100094E00E94F50B8C81612F0E94E933692FC5
:1012200030E1839F600D112485EA94E00E94F50B64
:101230008D81612F0E94E933692F20E1829F600D2B
:10124000112485EA94E00E94F50B8E81612F0E94A3
:10125000E933692F30E1839F600D112485EA94E022
:101260000E94F50B8F818E51612F0E94E933692F07
:1012700020E1829F600D112485EA94E00E94F50B25
:101280000E94CC23882319F0109221031EC001E094
:101290000093210388E60E94C22360E085EA94E07F
:1012A0000E94F50B8981612F0E94E933692F30E19B
:1012B000839F600D112485EA94E00E94F50B0E9443
:1012C000CC238111E1CF0093210381E19FE0909332
:1012D00005018093040110924D020E941D2531C129
:1012E00002E010E00E94531E28EE33E040E050E0A0
:1012F0000E941D3421E0643F71408105910508F48E
:1013000020E0012B29F49091C302921709F419C12E
:101310002093C30261E080E00E947F241091C80204
:1013200065E475E08DE993E00E948F371F921F936B
:101330008DE993E09F938F938E010F5F1F4F1F9353
:101340000F930E94C2340F900F900F900F900F9048
:101350000F908091CA0281110DC08091C302882331
:1013600049F062E475E08DE993E00E948F376DE902
:1013700073E001C0B80181EB94E00E94131D8AE381
:101380000E947424F090C7026DE375E08DE993E04C
:101390000E948F371F92FF928DE993E09F938F9366
:1013A0001F930F930E94C2340F900F900F900F90D5
:1013B0000F900F908091CA02813069F48091C3022E
:1013C000882349F06AE375E08DE993E00E948F3746
:1013D0006DE973E001C0B80181EB94E00E94131D38
:1013E0008091CA02823031F48091C302882311F0C7
:1013F00080E207C08091C402811102C081E401C073
:1014000080E50E947424F090C20265E375E08DE9E6
:1014100093E00E948F371F92FF928DE993E09F9394
:101420008F931F930F930E94C2340F900F900F90D1
:101430000F900F900F908091CA02833069F48091D1
:10144000C302882349F061E375E08DE993E00E94CF
:101450008F376DE973E001C0B80181EB94E00E9421
:10146000131D8DE20E9474248091CA02843069F4B5
:101470008091C302882349F06DE275E08DE993E025
:101480000E948F376DE973E019C02091C10283E09B
:10149000289F90011124A5EBB2E080E090E0FC01D0
:1014A000E20FF31FE250FB4FE491ED93019683307E
:1014B0009105A9F71092B80265EB72E081EB94E018
:1014C0000E94131D8DE20E9474248091BF029091AE
:1014D000C00264E670E00E94F533F82EE92E69E25E
:1014E00075E08DE993E00E948F37EF92FF928DE9CE
:1014F00093E09F938F931F930F930E94C2340F909A
:101500000F900F900F900F900F908091CA0285302E
:1015100069F48091C302882349F066E275E08DE9A1
:1015200093E00E948F376DE973E001C0B80181EB51
:1015300094E00E94131D05C0A091D604B091D70479
:101540002FCE2E960FB6F894DEBF0FBECDBFDF9123
:10155000CF911F910F91FF90EF90DF90CF90089562
:1015600060E070E081E090E00E94771460E070E05D
:1015700082E090E00E94771460E070E081E090E00B
:101580000E941A1660E070E082E090E00E941A1655
:10159000A895FECFC82F81E00E94BC240E941D2583
:1015A0006DEE74E08DE993E00E948F376DE973E092
:1015B00081EB94E00E94131D61E080E00E947F2493
:1015C00066EE74E08DE993E00E948F376DE973E079
:1015D00081EB94E00E94131DCC2319F062EE74E0BD
:1015E00002C06CED74E08DE993E00E948F376DE9E5
:1015F00073E081EB94E00E94131D0E94B00ACF9328
:10160000DF93EC01C536D10550F064E670E080E070
:1016100090E00E94191EC456D109A895F3CFBE01CF
:1016200080E090E00E94191EA895DF91CF91089567
:10163000CF92DF92EF92FF920F931F93CF93DF939E
:1016400010924C02C2E3D0E00BEF1CE761E083E0B4
:101650000E94961DC8010197F1F760E083E00E94A7
:10166000961DC8010197F1F780914C02811103C0CA
:10167000A895219759F780914C028823B9F00E94D0
:10168000531E6B017C0124E6C20ED11CE11CF11C2F
:1016900082E00E946D1D019759F4A8950E94531E87
:1016A000C616D706E806F90698F781E00E94CA0A2E
:1016B00082E390E00E94FF0A10924C02DF91CF91EA
:1016C0001F910F91FF90EF90DF90CF90089585EDDF
:1016D0008093BC008091BC0084FDFCCF10927B0302
:1016E00008954091F602262F30E0240F311D21325B
:1016F0003105DCF420917B032430C9F4FC0180E047
:1017000090E0861758F43091F6022191DC01AC523A
:10171000BD4FA30FB11D2C930196F3CF8091F6021C
:10172000680F6093F60280E0089581E0089582E0FA
:1017300008950895E091A4048091A304E81730F47B
:10174000F0E0EB5CFC4F808190E008958FEF9FEF1D
:1017500008959091A4048091A304981750F4E92F60
:10176000F0E0EB5CFC4F208130E09F5F9093A4049D
:1017700002C02FEF3FEFC90108958091A30490E0CC
:101780002091A404821B91090895CF92DF92EF92D9
:10179000FF920F931F93CF93DF937C01262F972FF8
:1017A0008A0180919C03882391F0C62FD72F6E0168
:1017B000C40ED51ECC15DD0571F06991D701ED91F0
:1017C000FC910190F081E02DC7010995F3CF642FC2
:1017D000822F0E94710BC801DF91CF911F910F9151
:1017E000FF90EF90DF90CF900895CF93DF931F92FB
:1017F000CDB7DEB7698320919C032223D1F02091DD
:10180000A104203240F021E030E0FC013383228348
:1018100080E090E015C08091A204E82FF0E0E45849
:10182000FC4F998190838F5F8093A2048093A104E1
:1018300005C061E0CE0101960E94710B81E090E04D
:101840000F90DF91CF910895CF92DF92EF92FF92A8
:101850000F931F93CF93DF93CDB7DEB762970FB689
:10186000F894DEBF0FBECDBF182F0E94BA119C01A5
:10187000112329F00E941D251092CB024EC0909199
:10188000CB0290FF05C0A9EEB4E0EBEEF4E004C09B
:10189000A8EEB4E0EAEEF4E02130310521F0223088
:1018A0003105A9F0D7C0923018F09430B0F507C0D8
:1018B0008C918F5F86300CF08BEF8C932EC08081E3
:1018C0008150863F14F0808328C0108226C09F5F1D
:1018D0009093CB02943008F168EEE62E64E0F62E89
:1018E00000E210E0F70161917F01C8016A8B0E945C
:1018F00096376A89681719F0C8010E949E370F5FF2
:101900001F4F0432110571F781E19FE090930501AB
:101910008093040110924D029DC08091CB0280FD06
:101920000BC009EB11E048EEC42E44E0D42E5AEE71
:10193000E52E54E0F52E0AC003EB11E029EEC22E8D
:1019400024E0D22E3BEEE32E34E0F32E8230A0F1E1
:10195000843008F07FC00E941D2564ED75E08DE99C
:1019600093E00E948F376DE973E081EB94E00E9471
:10197000131D61E080E00E947F24F701F080CF2CEE
:101980000F2C000CDD0866EC75E08DE993E00E94F9
:101990008F37DF92FF921F930F938DE993E09F9310
:1019A0008F931F9281E18F938E010F5F1F4F1F93C3
:1019B0000F930E94923444C00E941D2561EF75E090
:1019C0008DE993E00E948F376DE973E081EB94E03D
:1019D0000E94131D61E080E00E947F24F6012081B7
:1019E000822F022E000C990B97FF03C091958195D1
:1019F0009109D82EC92E27FD05C099ECE92E91E05A
:101A0000F92E04C087ECE82E81E0F82E61EE75E037
:101A10008DE993E00E948F37CF92DF92FF92EF9291
:101A20001F930F938DE993E09F938F931F9281E112
:101A30008F938E010F5F1F4F1F930F930E9492345D
:101A4000B80181EB94E00E94131D0FB6F894DEBF3D
:101A50000FBECDBF62960FB6F894DEBF0FBECDBFEE
:101A6000DF91CF911F910F91FF90EF90DF90CF907A
:101A70000895FF920F931F93CF93DF938C01C62F8E
:101A8000F42EFC0186858130B1F56585C4FD606169
:101A9000C5FD6860C6FD6460C7FD6260D62FFF208B
:101AA00011F0D06A01C0D0626D2FC8010E94772268
:101AB0006D2F6F7DC8010E947722F8016585C0FDFA
:101AC0006061C1FD6860C2FD6460C3FD6260C62FD5
:101AD000FF2011F0C06A01C0C0626C2FC8010E94D3
:101AE00077226C2F6F7DC801DF91CF911F910F91ED
:101AF000FF900C947722607F70E075956795442382
:101B000011F0666001C06460F801858183FD02C048
:101B1000D0E001C0D0E8D62B6D2FC8010E945D2215
:101B20006D2F6B7FC8010E945D22CF70CC0FCC0F50
:101B3000CC0FFF2011F0C66001C0C460F8018581A0
:101B400083FD02C060E001C060E8C62B6C2FC801B5
:101B50000E945D226C2F6B7FC801DF91CF911F9196
:101B60000F91FF900C945D22FC012385222319F034
:101B700041E00E94390D81E090E00895682F85EAE8
:101B800094E00C94F50B1F920F920FB60F92112454
:101B90002F933F934F935F936F937F938F939F9375
:101BA000AF93BF93EF93FF938091B900887F803606
:101BB00009F49CC068F5883209F45BC090F4803168
:101BC00009F454C038F4882309F4F6C0883009F4C5
:101BD0004DC0F6C0883109F44CC0803209F45DC0B4
:101BE000EFC0803409F468C048F4803309F455C06C
:101BF000883309F0E5C080937903D8C0803509F4B3
:101C00004FC0883509F45DC0883409F0D9C0D6C00A
:101C1000883909F4C7C0A8F4883709F467C038F4D4
:101C2000883609F463C0803709F460C0C9C08838B9
:101C300009F4B8C0803909F45FC0803809F0C0C029
:101C40005BC0803B09F486C038F4803A09F466C072
:101C5000883A09F47FC0B4C0803C09F4A7C0883C2E
:101C600009F4A4C0883B09F48AC0AAC08091560335
:101C700010C09091780380917703981770F5E091E8
:101C8000780381E08E0F80937803F0E0E95AFC4FEF
:101C900080818093BB0085EC86C0809379038EC0E1
:101CA000E091780381E08E0F809378038091BB00F0
:101CB000F0E0E95AFC4F808390917803809177039C
:101CC0006EC0E091780381E08E0F8093780380915D
:101CD000BB00F0E0E95AFC4F808380917A038111C8
:101CE0006DC081E08093550384EA61C083E08093F6
:101CF0007B0310921A03CFCF80911A03803208F031
:101D000051C0E0911A0381E08E0F80931A038091F5
:101D1000BB00F0E0E650FD4F8083BDCF85EC8093A3
:101D2000BC0010927B0380911A03803230F4E09162
:101D30001A03F0E0E650FD4F108260911A0370E044
:101D4000E091F802F091F9028AEF92E00995109281
:101D50001A0336C084E080937B031092F70210923E
:101D6000F602E091F402F091F50209958091F602F5
:101D7000811105C081E08093F6021092D402E091B7
:101D8000F70281E08E0F8093F702F0E0EC52FD4FF6
:101D900080818093BB009091F7028091F6029817A2
:101DA00008F479CF85E88093BC000AC085EC809365
:101DB000BC0010927B0304C0109279030E94670B51
:101DC000FF91EF91BF91AF919F918F917F916F9113
:101DD0005F914F913F912F910F900FBE0F901F90E9
:101DE000189510927B0381E080937A03109255033B
:101DF00061E082E10E94961D61E083E10E94961DF0
:101E0000E9EBF0E080818E7F808380818D7F80830D
:101E100088E48093B80085E48093BC0008950C9416
:101E20009E37CF93C82F0E94BA11CC2361F083E074
:101E30000E94BC240E941D2587EE93E09093D3025C
:101E40008093D2021FC0009709F472C281309105BD
:101E5000B1F48091D0029091D10201969093D10279
:101E60008093D0022091CE023091CF0228173907FB
:101E700008F0FCC01092D1021092D002F7C0029775
:101E800009F0F4C0E091D202F091D302E730F105FD
:101E900008F078C0E05CFF4F0C945E346091D00293
:101EA0008091D10260933D0280933E0280E090E0F9
:101EB00018C0E091D002F091D102EA5FFE4F40815C
:101EC000242F30E0A8EEB3E00E94643460931D023A
:101ED00070931E0280931F0290932002642F82E071
:101EE00090E00E940F0F4EC08091D0029091D102DD
:101EF000892B09F047C08AE597E09093050180930C
:101F0000040181E0CF910C945A0761E08091D002E6
:101F10009091D102892B09F060E06093040283E084
:101F200090E0DFCF8091D0029091D102892B51F5C2
:101F300084E694E0909305018093040181E0CF91C1
:101F40000C9464048091D0029091D102892BD1F439
:101F500084E29CE0909305018093040181E0CF919D
:101F60000C94240C8091D0029091D102892B19F409
:101F700010924D02DDC187EE93E09093D3028093DF
:101F8000D202D6C18091D2029091D30201968730BD
:101F9000910528F49093D3028093D20204C010924A
:101FA000D3021092D202E091D202F091D302E73034
:101FB000F10508F053C0E95BFF4F0C945E3480914B
:101FC0003D0290913E029093D1028093D00240C096
:101FD00060911D0270911E0280911F02909120025B
:101FE00028EE33E040E050E00E941D34E6E0F1E0EE
:101FF00070E060E080E090E0419150E02417350708
:1020000011F4782F692F01968B309105A9F7709301
:10201000D0026093D1028AE090E01CC081E090E0A1
:102020009093CF028093CE0290910402892790E092
:102030009093D1028093D00211C081E090E0909300
:10204000D1028093D00206C01092D1021092D00229
:1020500081E090E09093CF028093CE028091D002F5
:102060009091D1029093CD028093CC020E941D25C5
:10207000E091D202F091D302E730F10508F058C1A7
:10208000E25BFF4F0C945E3462E876E08DE993E00A
:102090000E948F376DE973E081EB94E00E94131D7D
:1020A00061E080E00E947F242091D0023091D10233
:1020B0008091CC029091CD022817390711F080E26F
:1020C00001C08BE20E9474248091D0029091D102D1
:1020D000009731F0019709F02BC160E776E01DC150
:1020E0006BE776E01AC161E676E08DE993E00E9445
:1020F0008F376DE973E081EB94E00E94131D61E07E
:1021000080E00E947F242091D0023091D102809102
:10211000CC029091CD022817390711F080E201C05E
:102120008BE20E947424E091D002F091D102EA5F28
:10213000FE4F408150E060E070E02AE081EB94E0E7
:102140000E94CA1C6BE576E0E8C060E576E08DE9A8
:1021500093E00E948F376DE973E081EB94E00E9479
:10216000131D61E080E00E947F242091D002309115
:10217000D1028091CC029091CD022817390711F03D
:1021800080E201C08BE20E9474248091D002909181
:10219000D102009731F0019709F0CAC069E476E0F6
:1021A000BCC06CE476E0B9C06DE376E08DE993E005
:1021B0000E948F376DE973E081EB94E00E94131D5C
:1021C00061E080E00E947F242091D0023091D10212
:1021D0008091CC029091CD022817390711F080E24E
:1021E00001C08BE20E9474248091D0029091D102B0
:1021F000009731F0019709F09BC066E376E08DC04F
:1022000069E376E08AC067E276E08DE993E00E94B8
:102210008F376DE973E081EB94E00E94131D61E05C
:1022200080E00E947F242091D0023091D1028091E1
:10223000CC029091CD022817390711F080E201C03D
:102240008BE20E9474248091D0029091D102009779
:1022500031F0019709F06CC060E276E05EC063E2A5
:1022600076E05BC063E176E08DE993E00E948F3712
:102270006DE973E081EB94E00E94131D61E080E062
:102280000E947F242091D0023091D1028091CC0213
:102290009091CD022817390711F080E201C08BE23E
:1022A0000E9474248091D0029091D102009729F06D
:1022B0000197F1F56CE076E030C06FE076E02DC07C
:1022C00060E076E08DE993E00E948F376DE973E07E
:1022D00081EB94E00E94131D61E080E00E947F2466
:1022E0002091D0023091D1028091CC029091CD0208
:1022F0002817390711F080E201C08BE20E94742494
:102300008091D0029091D102009729F0019781F439
:1023100069EF75E002C06CEF75E08DE993E00E9413
:102320008F376DE973E081EB94E0CF910C94131D2E
:10233000CF9108950C94963760E088E00E94961D36
:1023400060E087E00E94961D1092450210924402C0
:1023500010924702109246020E94531E6093480258
:102360007093490280934A0290934B0281E08093DC
:102370004C0208950F931F93CF93DF936DEE77E098
:102380008DE993E00E948F378DE993E09F938F93BF
:102390001F9283E08F930E9478230F900F900F90ED
:1023A0000F908091090290910A02A0910B02B091C6
:1023B0000C02892B8A2B8B2BA9F00E94531E0091B3
:1023C000090210910A0220910B0230910C02DC01EB
:1023D000CB01801B910BA20BB30BC297A105B105DA
:1023E00008F46BC01092090210920A0210920B02BC
:1023F00010920C021091BC041123C9F08091BA0410
:1024000080620E94C22382E10E94BE0D0E94CC2302
:102410008091BA04806261E070E090E00E9429241B
:1024200085EA94E00E94A90B8095182F1F7162EE37
:1024300077E08DE993E00E948F371F921F93CDE9DB
:10244000D3E0DF93CF931F9203E00F930E94782392
:102450000F900F900F900F900F900F9010FF30C0C3
:1024600063ED77E0CE010E948F37DF93CF931F9209
:102470000F930E9478230F900F900F900F908091F0
:10248000050290910602A0910702B0910802892BE3
:102490008A2B8B2B91F40E94531E6093050270933C
:1024A00006028093070290930802609309027093DA
:1024B0000A0280930B0290930C0280E090E068C0C7
:1024C00066EC77E08DE993E00E948F37DF93CF933E
:1024D0001F920F930E9478230F900F900F900F90F0
:1024E0008091050290910602A0910702B091080226
:1024F000892B8A2B8B2B09F30E94531E60930902B0
:1025000070930A0280930B0290930C0200910502D3
:10251000109106022091070230910802DC01CB01E4
:10252000801B910BA20BB30B1092050210920602B6
:1025300010920702109208028B3F9105A105B10588
:10254000A0F06FEA77E08DE993E00E948F37DF9388
:10255000CF931F9282E08F930E9478230F900F9069
:102560000F900F9082E090E013C067E977E08DE96B
:1025700093E00E948F37DF93CF931F9282E08F9377
:102580000E9478230F900F900F900F9081E090E0C1
:10259000DF91CF911F910F9108952F923F924F920B
:1025A0005F926F927F928F929F92AF92BF92CF92E3
:1025B000DF92EF92FF920F931F93CF93DF93CDB7EC
:1025C000DEB72E970FB6F894DEBF0FBECDBF0197D2
:1025D00009F0C9C01091E80407E00E94531E6D8302
:1025E0007E838F839887212C312C44244A94542C49
:1025F000320119821A821B821C821E861D86812C42
:10260000912C54010E94531EAB01BC01DB01CA0195
:10261000CD80DE80EF80F8848C199D09AE09BF095A
:102620008397A105B10508F09AC0802F49875A8782
:102630006B877C870E94021E6C01990FEE08FF08D1
:1026400049855A856B857C852FEF421652066206B6
:10265000720659F181E091E0491692E05906610451
:1026600071040CF480E091E021E0C21622E0D20671
:10267000E104F1040CF490E08917B9F0DB01CA0120
:1026800049805A806B807C8084199509A609B70916
:102690000697A105B10548F08D859E8501969E8718
:1026A0008D8749835A836B837C838D859E8581309A
:1026B000910508F451C08330910588F0039709F023
:1026C0004BC0910140E050E0C501B4010E941D34AF
:1026D00049015A01C12CD12C7601C39411C0C70104
:1026E000B6017250810991099B01AC010E94D93356
:1026F000860E971EA81EB91E9FEF291A390A2CC0F4
:10270000A7019601C701B6010E94D9338616970624
:10271000A806B90630F02FEFC21AD20AE20AF20A6E
:10272000EFCF2150310941095109AAE6B0E00E94DA
:102730007A34693823E1720781059105C0F024E6F7
:10274000120280011124012E000C220B330B600FAA
:10275000711F821F931F0BC02601370153CF60E00A
:1027600070E0CB0104C01091E90406E036CF2E964C
:102770000FB6F894DEBF0FBECDBFDF91CF911F9192
:102780000F91FF90EF90DF90CF90BF90AF909F9010
:102790008F907F906F905F904F903F902F90089513
:1027A0004F925F926F927F928F929F92AF92BF9261
:1027B000DF92EF92FF920F931F93CF93DF937C01F1
:1027C000DD24D39481E0E816F10409F0D12C0E94B5
:1027D000531E2B013C01812C912C5401C0E0D0E010
:1027E0000FE017E20E94531EDC01CB01841995090A
:1027F000A609B7094497A105B10588F48D2D0E945B
:10280000021EC817D90708F4EC018017910708F4D5
:102810008C019FEF891A990AA90AB90AE3CF83E0CC
:10282000E816F10440F4F701EE0FFF1FEB5DFE4FD9
:10283000E080F18004C08BE9E82E81E0F82E63E1AE
:1028400077E08DE993E00E948F37BF92AF929F921D
:102850008F921F930F93DF93CF93FF92EF928DE9A7
:1028600093E09F938F931F9283E08F930E9478232E
:102870000B5F11098DB79EB70E960FB6F8949EBFE9
:102880000FBE8DBF01331140A0F0C63683E0D807DC
:1028900098F4CE01875093408F35910580F0835A8C
:1028A0009F4F8D35910570F0C256D240C834D10586
:1028B00060F085E090E00BC081E090E008C082E02D
:1028C00090E005C083E090E002C084E090E0DF91FA
:1028D000CF911F910F91FF90EF90DF90BF90AF903D
:1028E0009F908F907F906F905F904F900895CF92C0
:1028F000DF92EF92FF920F931F93CF93DF93EC0140
:102900008B016530710540F4FB01EE0FFF1FE55EA2
:10291000FE4FC080D18004C04BE9C42E41E0D42ECC
:10292000C330D10540F4FE01EE0FFF1FEB5DFE4FFB
:10293000E080F18004C02BE9E22E21E0F22E6CEF62
:1029400076E08DE993E00E948F37DF92CF92FF927D
:10295000EF928DE993E09F938F931F9282E08F9384
:102960000E9478238DB79EB708960FB6F8949EBF45
:102970000FBE8DBFC130D10561F0229709F00FC1A4
:102980001093380200933702A091EB04C9E0D0E025
:1029900008C010933C0200933B02A091EA04CAE0F5
:1029A000D0E002301105E8F467EE76E08DE993E0BF
:1029B0000E948F371F930F93DF93CF938DE993E09E
:1029C0009F938F931F9283E08F930E9478238DB7FC
:1029D0009EB708960FB6F8949EBF0FBE8DBF602FAE
:1029E00078C020911D0230911E0240911F0250912B
:1029F00020020330110521F4569547953795279508
:102A0000AA23C1F00A2E000CBB0BAC59BF4F0E9489
:102A1000853424E630E040E050E00E941D34203749
:102A200097E139074105510568F420E737E140E0B7
:102A300050E00FC0213385E738074105510508F004
:102A4000A9C01BC0213385E738074105510508F0AF
:102A5000A1C0CA01B9012CE330E040E050E00E947F
:102A60001D34942F832F722F662728EE33E040E029
:102A700050E00E943F34890108C0203797E13907B0
:102A80004105510530F70FEF10E066ED76E08DE976
:102A900093E00E948F371F930F93DF93CF938DE9BD
:102AA00093E09F938F931F9283E08F930E947823EC
:102AB000FC2E61E08C2F0E94C61D8DB79EB7089634
:102AC0000FB6F8949EBF0FBE8DBF0F3F110519F4CE
:102AD00061E08C2F3EC0FE01E35BF74FE491E330F1
:102AE000D1F050F4E23079F584B5806284BD27B529
:102AF00030E0C8E4D0E043C0E430C9F0E83019F574
:102B00008091B00080628093B0002091B30030E0EB
:102B1000C4EBD0E034C08091800080688093800056
:102B20002091860030918700C8E8D0E01CC08091D9
:102B30008000806280938000209186003091870021
:102B4000CAE8D0E010C007FD02C060E001C061E04B
:102B50008F2DDF91CF911F910F91FF90EF90DF901C
:102B6000CF900C94961DD8010E9464342FEF30E072
:102B700040E050E00E941D343983288310C0D80102
:102B80000E9464342FEF30E040E050E00E941D349A
:102B9000288305C020E335E740E050E05ACFDF91BD
:102BA000CF911F910F91FF90EF90DF90CF900895FC
:102BB0009C0180913F02811139C02130310521F003
:102BC00022303105C9F0089520914202309143022C
:102BD0002530310571F180912B0290912C02A0914A
:102BE0002D02B0912E02892B8A2B8B2B09F5209177
:102BF00046023091470217C02091400230914102B5
:102C000025303105B1F08091270290912802A091E2
:102C10002902B0912A02892B8A2B8B2B49F420910F
:102C200044023091450281E0232B19F480E008959D
:102C300081E00895CF92DF92EF92FF920F931F935E
:102C4000CF93DF938C01EB01809146029091470274
:102C5000892B51F48091440290914502892B21F4F3
:102C60006130710509F46AC0C530D10540F4FE0138
:102C7000EE0FFF1FE55EFE4FC080D18004C02BE940
:102C8000C22E21E0D22E0330110540F4F801EE0FE0
:102C9000FF1FEB5DFE4FE080F18004C08BE9E82E62
:102CA00081E0F82E6FEB76E08DE993E00E948F379C
:102CB000DF92CF92FF92EF928DE993E09F938F93F3
:102CC0001F9282E08F930E9478238DB79EB708965B
:102CD0000FB6F8949EBF0FBE8DBF0130110521F0D5
:102CE0000230110589F01FC0809146029091470281
:102CF0008C179D0731F16C2F88E00E94961DD093B0
:102D00004702C09346020FC0809144029091450251
:102D10008C179D07B1F06C2F87E00E94961DD09311
:102D20004502C09344020E94531E60934802709370
:102D3000490280934A0290934B0203C00E94180BF1
:102D400096CFDF91CF911F910F91FF90EF90DF9081
:102D5000CF900895CF92DF92EF92FF921F93CF937F
:102D6000DF93EC01162F0E94531E6B017C01109221
:102D70002102109222021092230210922402C230E9
:102D8000D10508F03FC061E070E081E090E00E9472
:102D900077148091420290914302059771F085E08B
:102DA00090E09093430280934202C0923302D0920B
:102DB0003402E0923502F092360210922B02109209
:102DC0002C0210922D0210922E02209789F561E0BC
:102DD00070E082E090E00E94771480914002909130
:102DE0004102059799F085E090E09093410280932D
:102DF0004002C0922F02D0923002E0923102F09253
:102E0000320204C0C230D10549F4E1CF109227024A
:102E1000109228021092290210922A0281E00E9448
:102E2000BC24C230D10538F0C230D10591F51BC0A9
:102E300081E00E94BC2461E080E00E947F2468EB76
:102E400076E08DE993E00E948F376DE973E081EBC6
:102E500094E00E94131D812F0E94742480E20E943E
:102E60007424209709F761E088E00E947F2461EBD9
:102E700076E08DE993E00E948F376DE973E081EB96
:102E800094E00E94131D812F0E94742480E20E940E
:102E90007424C330D10540F4CC0FDD1FCB5DDE4F71
:102EA0000990D881C02D02C0CBE9D1E062EA76E07A
:102EB0008DE993E00E948F37DF93CF93812F012E0E
:102EC000000C990B9F931F938DE993E09F938F9331
:102ED0001F9281E08F930E9478238DB79EB708964A
:102EE0000FB6F8949EBF0FBE8DBFDF91CF911F919B
:102EF000FF90EF90DF90CF900895CF92DF92EF9206
:102F0000FF920F931F93CF93DF938130910551F47C
:102F1000E2E4F2E042E0E42EF12C5BE2C52E52E066
:102F2000D52E09C0E0E4F2E0EE24E394F12C37E280
:102F3000C32E32E0D32E718360836530710550F467
:102F40008B01EC016330710508F06CC061307105D4
:102F500080F4F6C06530710509F0F2C065E4DF91D8
:102F6000CF911F910F91FF90EF90DF90CF900C9435
:102F7000AA1660E070E00E941A160130110541F0B7
:102F8000C7010E94D815811106C064E070E005C039
:102F900061E070E002C063E070E0CE010E9477144F
:102FA000C130D10511F088E001C080E061E00E94ED
:102FB0007F24219719F063EB71E002C069EB71E0A7
:102FC00081EB94E00E94131D0130110519F063EDAF
:102FD00071E002C06BEC71E081EB94E00E94131D84
:102FE000F6011082118212821382F1E0EF16F104D1
:102FF00029F480913B0290913C0204C080913702F9
:1030000090913802039709F09BC064E070E0C7011B
:10301000DF91CF911F910F91FF90EF90DF90CF90B4
:103020000C9477140E94D81581118AC0C7010E94A0
:10303000D8158823C9F10E94531EF601608371835D
:103040008283938363E070E0C7010E94771463E09A
:1030500070E0CE010E947714C130D10511F088E0F4
:1030600001C080E061E00E947F24219719F063EBAA
:1030700071E002C069EB71E081EB94E00E94131DE6
:103080006FE877E08DE993E00E948F376DE973E098
:1030900081EB94E0DF91CF911F910F91FF90EF9022
:1030A000DF90CF900C94131DF1E0EF16F10429F49A
:1030B00080913B0290913C0204C080913702909134
:1030C0003802049729F463E070E0C7010E94771486
:1030D00064E070E0CE010E947714F6011082118244
:1030E00012821382C130D10511F088E001C080E066
:1030F00061E00E947F24C130D10519F063EB71E0DB
:1031000002C069EB71E081EB94E00E94131D67E857
:1031100077E08DE993E00E948F376DE973E081EBF2
:1031200094E00E94131D61E070E0CE01DF91CF9129
:103130001F910F91FF90EF90DF90CF900C941A1693
:10314000DF91CF911F910F91FF90EF90DF90CF9083
:1031500008956F927F928F929F92AF92BF92CF927B
:10316000DF92EF92FF920F931F93CF93DF93EC01C7
:103170006B01019709F00EC260904002709041020D
:1031800002E010E032E4832E32E0932E46E2E42E99
:1031900042E0F42E55E2A52E52E0B52E85E0C81689
:1031A000D10478F4E3E0CE16D10408F09AC1F1E03E
:1031B000CF16D10469F082E0C816D10409F469C0C1
:1031C000E5C1E5E0CE16D10409F0E0C165E4CDC16A
:1031D00060E070E0CE010E941A1661E070E0CE015E
:1031E0000E94771410922102109222021092230260
:1031F00010922402F2E06F16710431F564E070E081
:10320000C8010E9477140130110511F088E001C057
:1032100080E061E00E947F240130110519F063EB2A
:1032200071E002C069EB71E081EB94E00E94131D34
:103230006FE777E08DE993E00E948F376DE973E0E7
:1032400081EB94E00E94131DC130D10511F088E09C
:1032500001C080E061E00E947F24219719F063EBB8
:1032600071E002C069EB71E081EB94E00E94131DF4
:1032700067E777E08DE993E00E948F376DE973E0AF
:1032800081EB94E00E94131DF7011082F50110827A
:103290007DC160E070E0CE010E941A16F4018081C9
:1032A00091810397029708F092C0F2E06F167104C3
:1032B00009F064C0F501808181110AC061E070E00D
:1032C000CE010E94771464E070E0C8010E94771478
:1032D0000130110511F088E001C080E061E00E943A
:1032E0007F240130110519F063EB71E002C069EB36
:1032F00071E081EB94E00E94131DF5018081882329
:1033000019F06FE677E002C067E677E08DE993E0B9
:103310000E948F376DE973E081EB94E00E94131DEA
:10332000C130D10511F088E001C080E061E00E9469
:103330007F24219719F063EB71E002C069EB71E023
:1033400081EB94E00E94131D6FE577E08DE993E037
:103350000E948F376DE973E081EB94E00E94131DAA
:1033600081E0F70180830E94531E609321027093D5
:103370002202809323029093240208C1C130D10518
:1033800011F088E001C080E061E00E947F24219775
:1033900019F063EB71E002C069EB71E081EB94E03E
:1033A0000E94131D67E577E08DE993E00E948F3757
:1033B0006DE973E081EB94E00E94131D10922102ED
:1033C000109222021092230210922402DFC0F1E038
:1033D0006F16710441F564E070E0CE010E9477142D
:1033E000F7011082F5011082109221021092220240
:1033F0001092230210922402C130D10511F088E00E
:1034000001C080E061E00E947F24219719F063EB06
:1034100071E002C069EB71E081EB94E00E94131D42
:103420006FE477E035C0E89461F86728E1F5009132
:10343000390210913A020C171D0709F0BEC0F701BE
:103440008081811130C064E070E0CE010E94771469
:103450000E94531E609321027093220280932302E4
:1034600090932402219711F088E001C080E061E090
:103470000E947F240130110519F063EB71E002C056
:1034800069EB71E081EB94E00E94131D67E477E043
:103490008DE993E00E948F376DE973E081EB94E052
:1034A0000E94131D73C0C130D10511F088E001C026
:1034B00080E061E00E947F24219719F063EB71E0C6
:1034C00002C069EB71E081EB94E00E94131DF701EB
:1034D0008081882319F06FE377E0DACF67E377E044
:1034E000D7CFCE010E94D815811150C0C130D1056F
:1034F00029F480913B0290913C0204C080913702F4
:1035000090913802049711F064E52FC010922102C7
:10351000109222021092230210922402C130D1058F
:1035200011F088E001C080E061E00E947F24C1309A
:10353000D10519F063EB71E002C069EB71E081EB3A
:1035400094E00E94131D6FE277E08DE993E00E9402
:103550008F376DE973E081EB94E00E94131D61E009
:1035600070E0CE010E941A1611C0CE01DF91CF91FA
:103570001F910F91FF90EF90DF90CF90BF90AF9091
:103580009F908F907F906F900C94AA16F401D18237
:10359000C08213C0609042027090430201E010E0CC
:1035A00080E4882E82E0982E95E2E92E92E0F92EB2
:1035B00026E2A22E22E0B22EF1CDDF91CF911F9113
:1035C0000F91FF90EF90DF90CF90BF90AF909F90C2
:1035D0008F907F906F900895CF92DF92EF92FF923D
:1035E0000F931F93CF93DF9300D000D0CDB7DEB7FA
:1035F0006B017C012AE030E040E050E00E941D3485
:1036000088EEC81683E0D806E104F104B8F461E955
:1036100076E08DE993E029833A834B835C830E94B3
:103620008F37AAE0B0E029813A814B815C810E940A
:103630007A349F938F937F936F9331C0CA01B901FE
:1036400024E630E040E050E00E941D34CB016AE007
:1036500070E00E94093421E030E0059714F420E086
:1036600030E08B01020F131FC701B60128EE33E0D3
:1036700040E050E00E941D3479010A30110529F420
:103680009FEFE91AF90A00E010E068E976E08DE9B9
:1036900093E00E948F371F930F93FF92EF928DE973
:1036A00093E09F938F938BE193E09F938F930E947E
:1036B000C2340FB6F894DEBF0FBECDBF8BE193E0EE
:1036C0000F900F900F900F90DF91CF911F910F915E
:1036D000FF90EF90DF90CF900895CF92DF92EF921E
:1036E000FF920F931F93CF93DF936C017A018B01AD
:1036F000C0E0D0E0CE15DF0589F0D8016D918D01D5
:10370000D601ED91FC910190F081E02DC601099563
:10371000892B11F47E0102C02196ECCFC701DF9105
:10372000CF911F910F91FF90EF90DF90CF90089570
:10373000FC01918D828D981761F0828DDF01A80FB9
:10374000B11D5D968C91928D9F5F9F73928F90E0DB
:1037500008958FEF9FEF0895FC01918D828D98174A
:1037600031F0828DE80FF11D858D90E008958FEF87
:103770009FEF0895FC01918D228D892F90E0805C50
:103780009F4F821B91098F739927089584E094E0DD
:103790000E94BA1B21E0892B09F420E0822F0895B2
:1037A000FC01848DDF01A80FB11DA35ABF4F2C91DE
:1037B000848D90E001968F739927848FA689B789AD
:1037C0002C93A089B1898C9180648C93938D848D86
:1037D000981306C00288F389E02D80818F7D808355
:1037E0000895EF92FF920F931F93CF93DF93EC0115
:1037F00081E0888F9B8D8C8D981305C0E889F989AD
:10380000808185FD24C0F62E0B8D10E00F5F1F4FC9
:103810000F731127E02E8C8DE8120CC00FB607FC39
:10382000FACFE889F989808185FFF5CFCE010E9422
:10383000D01BF1CF8B8DFE01E80FF11DE35AFF4F36
:10384000F0820B8FEA89FB898081806207C0EE8954
:10385000FF896083E889F98980818064808381E0C1
:1038600090E0DF91CF911F910F91FF90EF9008951D
:10387000CF93DF93EC01888D8823C9F0EA89FB8917
:10388000808185FD05C0A889B9898C9186FD0FC00E
:103890000FB607FCF5CF808185FFF2CFA889B989E3
:1038A0008C9185FFEDCFCE010E94D01BE7CFDF9139
:1038B000CF91089580E090E0892B29F00E94C61BEB
:1038C00081110C9400000895833081F028F4813038
:1038D00099F08230A1F008958730A9F08830B9F0CE
:1038E0008430D1F4809180008F7D03C0809180006E
:1038F0008F7780938000089584B58F7702C084B558
:103900008F7D84BD08958091B0008F7703C0809132
:10391000B0008F7D8093B00008953FB7F8948091F8
:10392000310390913203A0913303B091340326B553
:10393000A89B05C02F3F19F00196A11DB11D3FBFE7
:10394000BA2FA92F982F8827820F911DA11DB11D75
:10395000BC01CD0142E0660F771F881F991F4A9571
:10396000D1F7089508950E948D346115710579F09D
:10397000FB0101900020E9F73197AF01461B570B7F
:10398000DC01ED91FC910280F381E02D099480E04F
:1039900090E008954F925F926F927F92EF92FF9224
:1039A0000F931F93CF93DF93CDB7DEB7A1970FB6D9
:1039B000F894DEBF0FBECDBF7C01FA01CB0119A286
:1039C000223008F42AE08E010F5D1F4F422E512C49
:1039D000612C712CBF01A30192010E941D34F901D9
:1039E000CA01015011096A3014F4605D01C0695CBC
:1039F000D8016C93232B242B252B61F7B801C70129
:103A00000E94B51CA1960FB6F894DEBF0FBECDBFC5
:103A1000DF91CF911F910F91FF90EF907F906F906A
:103A20005F904F9008950C94B51C1F920F920FB6A3
:103A30000F9211242F933F934F935F936F937F9334
:103A40008F939F93AF93BF93EF93FF9384E094E0A2
:103A50000E94D01BFF91EF91BF91AF919F918F91E9
:103A60007F916F915F914F913F912F910F900FBE7A
:103A70000F901F9018951F920F920FB60F9211245E
:103A80002F938F939F93EF93FF93E0911404F09102
:103A900015048081E0911A04F0911B0482FD12C08C
:103AA000908180911D048F5F8F7320911E04821777
:103AB00051F0E0911D04F0E0EC5FFB4F958F809397
:103AC0001D0401C08081FF91EF919F918F912F91F3
:103AD0000F900FBE0F901F901895CF93DF93282F54
:103AE00030E0F901E35BF74F8491F901E75CF74FB0
:103AF000D491F901EB5DF74FC491CC2391F0811182
:103B00000E94641CEC2FF0E0EE0FFF1FE55EF74F04
:103B1000A591B491EC91ED2381E090E021F480E057
:103B200002C080E090E0DF91CF9108951F93CF9382
:103B3000DF93282F30E0F901E35BF74F8491F9011F
:103B4000E75CF74FD491F901EB5DF74FC491CC23BB
:103B5000C9F0162F81110E94641CEC2FF0E0EE0FCB
:103B6000FF1FEF5EF74FA591B4918FB7F894111135
:103B700005C09C91ED2FE095E92302C0EC91ED2B5F
:103B8000EC938FBFDF91CF911F910895CF93DF9377
:103B900090E0FC01E75CF74F2491FC01EB5DF74FEF
:103BA0008491882361F190E0880F991FFC01E95FFF
:103BB000F74FC591D491FC01EF5EF74FA591B491F9
:103BC000611109C09FB7F89488812095822388836A
:103BD000EC912E230BC0623061F49FB7F8943881CA
:103BE000822F809583238883EC912E2B2C939FBF6B
:103BF00006C08FB7F894E8812E2B28838FBFDF9102
:103C0000CF9108958E3008F08E5087708064809335
:103C10007C0080917A00806480937A0080917A00A1
:103C200086FDFCCF809178002091790090E0922B66
:103C300008958F929F92AF92BF92CF92DF92EF92B0
:103C4000FF926B017C010E948D1C4B015C01C11431
:103C5000D104E104F104F1F00E948D1CDC01CB01E0
:103C600088199909AA09BB09883E9340A105B105A5
:103C700070F321E0C21AD108E108F10888EE880E3D
:103C800083E0981EA11CB11CC114D104E104F1040D
:103C900019F7DDCFFF90EF90DF90CF90BF90AF90FE
:103CA0009F908F9008952FB7F89460912D03709195
:103CB0002E0380912F03909130032FBF08951F9200
:103CC0000F920FB60F9211242F933F938F939F93D0
:103CD000AF93BF9380912D0390912E03A0912F035A
:103CE000B091300330912C0323E0230F2D3720F4C3
:103CF0000196A11DB11D05C026E8230F0296A11D46
:103D0000B11D20932C0380932D0390932E03A09339
:103D10002F03B09330038091310390913203A0912F
:103D20003303B09134030196A11DB11D809331037B
:103D300090933203A0933303B0933403BF91AF91B8
:103D40009F918F913F912F910F900FBE0F901F90D9
:103D500018951F920F920FB60F9211242F933F9335
:103D60004F935F936F937F938F939F93AF93BF9383
:103D7000EF93FF93E0910201F09103010995FF9108
:103D8000EF91BF91AF919F918F917F916F915F91D3
:103D90004F913F912F910F900FBE0F901F9018954C
:103DA0001F920F920FB60F9211242F933F934F93B0
:103DB0005F936F937F938F939F93AF93BF93EF9393
:103DC000FF93E0910001F09101010995FF91EF91BE
:103DD000BF91AF919F918F917F916F915F914F9123
:103DE0003F912F910F900FBE0F901F9018956093E9
:103DF000FE017093FF018093000290930102DC01A9
:103E0000CB01845D9E4FAF4FBF4F8093FA019093DB
:103E1000FB01A093FC01B093FD0182E090E0909340
:103E20002B0380932A030E94531E609326037093F2
:103E3000270380932803909329030895CF92DF925C
:103E4000EF92FF920F931F930E94531EC090260380
:103E5000D0902703E0902803F09029038B019C0168
:103E60000C191D092E093F098091FE019091FF0157
:103E7000A0910002B0910102083E134021053105D6
:103E8000D0F00196A11DB11D8093FE019093FF011A
:103E9000A0930002B0930102B701A60148515C4F04
:103EA0006F4F7F4F4093260350932703609328035F
:103EB00070932903C9CF4091FA015091FB016091A1
:103EC000FC017091FD0184179507A607B70788F1DB
:103ED000E0910202F0910302309759F109956115C2
:103EE00071058105910519F00E94F71E22C080918D
:103EF000FE019091FF01A0910002B0910102845D4A
:103F00009E4FAF4FBF4F8093FA019093FB01A09358
:103F1000FC01B093FD0181E090E020912A033091F3
:103F20002B03232B11F480E090E090932B038093DC
:103F30002A036091FE017091FF018091000290912F
:103F400001021F910F91FF90EF90DF90CF900895A5
:103F50006F927F928F929F92AF92BF92CF92DF9299
:103F6000EF92FF920F931F93CF93DF93EC01EE81BB
:103F7000AE2FB0E020E833E341EE51E00E947A3406
:103F80004B015C0122EB37E0FD0104E610E080E923
:103F9000E82EFF24F394C901825B97408E179F0798
:103FA000DCF4C90183709927892B99F4C901B80100
:103FB0000E940934892B31F4C901B7010E940934E8
:103FC000892B39F480E8880E81E5981E81E0A81ECF
:103FD000B11C2F5F3F4FDFCF6D80712CEE54F84F37
:103FE000CF0164E670E00E9409347C01CF0160E9F2
:103FF00071E00E9409346C0101E010E0E370FF27DA
:10400000061517052CF50230110581F4309771F46F
:10401000E114F10419F4C114D10441F480E8880ECC
:104020008BE3981E86E2A81EB11C0FC0D801A65DC6
:10403000BE4FAC91B0E020E831E541E050E00E9495
:104040007A34860E971EA81EB91E0F5F1F4FD8CF59
:1040500049812A8130E0A0E1BEE00E9464346B0116
:104060007C01242F30E0ACE3B0E00E946434DC013A
:10407000CB018C0D9D1DAE1DBF1D28816C017D01E6
:10408000C20ED11CE11CF11CAC81B0E0119720E8FC
:1040900031E541E050E00E948534DC01CB018C0D1C
:1040A0009D1DAE1DBF1DBC01CD01680D791D8A1D72
:1040B0009B1DDF91CF911F910F91FF90EF90DF90AB
:1040C000CF90BF90AF909F908F907F906F9008950A
:1040D0001F93CF93DF93CDB7DEB727970FB6F89432
:1040E000DEBF0FBECDBF88E60E94C22360E085EA36
:1040F00094E00E94F50B0E94CC23882319F01092C3
:10410000210383C081E08093210367E070E088E6AB
:1041100090E00E9429248091A30490E02091A404BF
:10412000821B910907970CF470C085EA94E00E9405
:10413000A90B182F8695869586958E70982F990FC6
:10414000990F890F912F9F70890F898385EA94E0D9
:104150000E94A90B282F22952F70982F9F708AE01C
:10416000289F900D11249A8385EA94E00E94A90B60
:10417000982F282F2695269526952670822F880F12
:10418000880F280F9F70920F9B8385EA94E00E940E
:10419000A90B282F22952F70982F9F708AE0289FB7
:1041A000900D11249C8385EA94E00E94A90B282F8E
:1041B00022952F70982F9F708AE0289F900D1124D0
:1041C0009D8385EA94E00E94A90B282F22952F70E9
:1041D000982F9F708AE0289F900D11249E8385EA76
:1041E00094E00E94A90B982F9F70925E282F229531
:1041F0002F708AE0289F900D11249F8317FD05C022
:10420000CE0101960E94A81F03C060E070E0CB01C0
:1042100027960FB6F894DEBF0FBECDBFDF91CF91CA
:104220001F9108956F927F928F929F92AF92BF924B
:10423000CF92DF92EF92FF920F931F93CF93DF9372
:10424000EA012CE3C22ED12CE12CF12CA70196011E
:104250000E941D346883CA01B901A70196010E941A
:104260001D346983CA01B90128E130E040E050E023
:104270000E941D3469017A016A83CA01B9016C5F29
:104280007F4F8F4F9F4F27E030E040E050E00E948B
:104290001D346F5F6B83812C912C540140E034E618
:1042A000632E712C00E911E0242F30E02E54384F9A
:1042B000F901E370FF27309789F4C901B3010E9427
:1042C0000934892B31F4C901B8010E940934892BC2
:1042D00029F48EE691E0A0E0B0E004C08DE691E024
:1042E000A0E0B0E0880E991EAA1EBB1ED501C40135
:1042F000AA27BB27C816D906EA06FB0610F04F5FAF
:10430000D3CF4E83309799F4C90164E670E00E94E0
:104310000934892B39F4C90160E971E00E9409343C
:10432000892B29F48EE691E0A0E0B0E004C08DE690
:1043300091E0A0E0B0E0881A990AAA0ABB0AC8185E
:10434000D908EA08FB08C90164E670E00E94093454
:104350008C01C90160E971E00E940934ABE2B1E06F
:1043600020E0213041F4309751F40115110529F472
:10437000009729F402C04C9103C04DE101C04CE10B
:1043800050E060E070E0C416D506E606F70640F09F
:10439000C41AD50AE60AF70A2F5F11962C3009F7DE
:1043A0002F5F2D83C394CC82DF91CF911F910F910A
:1043B000FF90EF90DF90CF90BF90AF909F908F9045
:1043C0007F906F900895CF92DF92EF92FF92C0900E
:1043D0002203D0902303E0902403F09025036C1572
:1043E0007D058E059F0571F06B017C014DEF53E05B
:1043F0000E941221C0922203D0922303E092240350
:10440000F0922503FF90EF90DF90CF9008950E94E7
:10441000E3218091030490E08E54984F0895CF9249
:10442000DF92EF92FF92CF936B017C019B01AC0175
:104430006EEF7FEF81E090E00E94D9339B01AC01E9
:1044400060E074E284EF90E00E941D34C0E0EC2F45
:10445000F0E0EE0FFF1FE15BFE4F80819181CF5FA7
:1044600082179307A0F3A7019601220F331F441F61
:10447000551FEC2FF0E0EE0FFF1FE15BFE4FA08118
:10448000B1810E947A349B01AC0160E074E284EF58
:1044900090E00E941D343093870020938600809125
:1044A0008100C770887FC82BC093810081E0CF91C5
:1044B000FF90EF90DF90CF900895CF93DF931F92FE
:1044C000CDB7DEB7FC018185806269830E94C2237B
:1044D00089E00E94BE0D6981862F0E94BE0D0E9458
:1044E000CC238111FCCF0F90DF91CF910895CF9312
:1044F000DF931F92CDB7DEB7FC01818580626983AF
:104500000E94C22383E10E94BE0D6981862F0E9412
:10451000BE0D0E94CC238111FCCF0F90DF91CF9173
:1045200008958F929F92AF92BF92CF92DF92EF92B7
:10453000FF920F931F93CF93DF93CDB7DEB76497AE
:104540000FB6F894DEBF0FBECDBF5F87798BF42E18
:10455000411109C06F5F6D3040F02FEFC21AD20ACF
:1045600021E061E003C0242F01C021E089898B8311
:104570001A82198281E08D836E838EE48C0D8F8385
:10458000CE0101962C8B0E94A81F4B015C010F8568
:1045900010E00E94E3212C8930E02150310987E0AE
:1045A000829FF001839FF00D1124809100049801F7
:1045B000281B3109C901079667E070E00E940934A1
:1045C000DF01A80FB91F20E831E541E050E00E946B
:1045D0008534680D791D8A1D9B1DF11004C060583B
:1045E0007A438940910964960FB6F894DEBF0FBEF6
:1045F000CDBFDF91CF911F910F91FF90EF90DF9092
:10460000CF90BF90AF909F908F9008958F929F9280
:10461000AF92BF92CF92DF92EF92FF920F931F93D0
:10462000CF93DF936C01E090C004F090C10400913F
:10463000C2041091C3042091C4043091C504409178
:10464000C6045091C7046091C8047091C904809158
:10465000CA049091CB040E949122C0ECD4E068A3DC
:1046600079A38AA39BA3ECECF4E0E080F1800281C3
:1046700013812481358146815781608571858285CA
:1046800093850E9491226B017C016CA37DA38EA374
:104690009FA3AE89BF892CE330E00E94733408A148
:1046A00019A12AA13BA148015901861A970AA80A13
:1046B000B90A888E998EAA8EBB8EAA85BB852CE3FB
:1046C00030E00E947334C61AD70AE80AF90ACC8E81
:1046D000DD8EEE8EFF8EDF91CF911F910F91FF90B7
:1046E000EF90DF90CF90BF90AF909F908F90089504
:1046F0000F931F93CF93DF93CDB7DEB7C056D10989
:104700000FB6F894DEBF0FBECDBFA9960EAD1FAD9C
:10471000A9970230110550F59E0125593F4F4DE9EB
:1047200053E060E670E0CE0101960E94E53401306E
:10473000110519F46BE678E002C061E678E08DE9D6
:1047400093E00E948F376DE973E084E094E00E946B
:10475000131DBE016F5F7F4F84E094E00E94B51C83
:1047600067EF71E084E094E00E94B51CC05ADF4F0F
:104770000FB6F894DEBF0FBECDBFDF91CF911F9172
:104780000F91089591E090939C038093EC04109214
:10479000A2041092A10408952091A1049091EC0428
:1047A000213208F04AC080917B038111FCCF32E0B6
:1047B00030937B0331E030937A033FEF30937903FA
:1047C0001092780320937703ACE7B3E047E553E01A
:1047D000FA013E2F341B321718F43D913193F9CF73
:1047E0001092560320915603990F922B90935603E3
:1047F00090915503913061F41092550390915603B6
:104800009093BB009091BC0093FDF8CF95EC01C054
:1048100095EE9093BC0090917B039230E1F39091E0
:1048200079039F3F79F080917903803241F0809144
:104830007903803331F084E005C081E003C082E079
:1048400001C083E01092A2041092A10410929C0374
:10485000089590917B039111FCCF613208F060E2E2
:1048600091E090937B0390937A032FEF2093790349
:1048700010927803260F209377039093560390911C
:104880005603880F892B80935603809155038130FE
:1048900061F410925503809156038093BB00809180
:1048A000BC0083FDF8CF85EC01C085EE8093BC0091
:1048B00080917B038130E1F380917803861710F4B7
:1048C00060917803A7E5B3E025E333E0F9018E2F8B
:1048D000821B861718F48D918193F9CF1092A4044E
:1048E0006093A304862F0895E091B104F091B2047F
:1048F0000190F081E02D682F81EB94E00994CF9333
:10490000DF93CDB7DEB728970FB6F894DEBF0FBEA2
:10491000CDBF2091BC04222331F128E0E7E3F1E090
:10492000DE01119601900D922A95E1F72091B804CD
:10493000261710F46FEF620FFE013196E60FF11D9E
:10494000E60FF11D9081682F690F606840E081EBF0
:1049500094E028960FB6F894DEBF0FBECDBFDF916E
:10496000CF910C94390D28960FB6F894DEBF0FBE88
:10497000CDBFDF91CF910895CF93DF939091BC0489
:10498000992309F457C09091BB04992311F097E043
:1049900089279091BF049130C1F580FD03C020ECC0
:1049A00031E002C020E831E03093BE042093BD0422
:1049B00081FF09C02091BD043091BE042F77309350
:1049C000BE042093BD0482FF09C08091BD04909174
:1049D000BE049E7F9093BE048093BD04D091BD041D
:1049E000C091BE048091BA0480620E94C22382E119
:1049F0000E94BE0D8D2F0E94BE0D8C2F0E94BE0DF9
:104A00000E94CC238111FCCF15C09091B60488235D
:104A100011F0986001C0977F9093B6048091B6041E
:104A2000682F687083FD60E881EB94E0DF91CF919F
:104A30000C945D22DF91CF9108958091BC0488236E
:104A400051F040E061E081EB94E00E94390D8BE38E
:104A50009FE10197F1F70895CF92DF92EF92FF92D5
:104A60000F931F93CF93E82F880FFF0BE35BF74F54
:104A7000E4918DEF8E0F823068F468EE73E080E091
:104A800090E0CF911F910F91FF90EF90DF90CF902A
:104A90000C940F22E83091F5C0E00FE110E0C12C3A
:104AA00094E2D92E94EFE92EF12CCF5FEC2FF0E0B9
:104AB000EE0FFF1FE15CFE4F80819181801791070F
:104AC000A0F38C019C01A0EDB7E00E9464349B012F
:104AD000AC01C701B6010E941D342F3F31054105CD
:104AE000510509F010F72093B3008091B100C77011
:104AF000887FC82BC093B10081E001C080E0CF91D6
:104B00001F910F91FF90EF90DF90CF900895CF937A
:104B1000DF93CDB7DEB761970FB6F894DEBF0FBE57
:104B2000CDBF789484B5826084BD84B5816084BD36
:104B300085B5826085BD85B5816085BD80916E003B
:104B4000816080936E00109281008091810082606C
:104B500080938100809181008160809381008091A9
:104B600080008160809380008091B1008460809398
:104B7000B1008091B00081608093B00080917A0094
:104B8000846080937A0080917A00826080937A00BA
:104B900080917A00816080937A0080917A008068A9
:104BA00080937A001092C10014BE9EE088E10FB697
:104BB000F894A895809360000FBE90936000E091F8
:104BC0001404F091150412E01083E0911004F091A8
:104BD00011041082E0911204F09113048FEC808391
:104BE00010921C04E0911804F091190486E080836F
:104BF000E0911604F0911704808180618083E09138
:104C00001604F0911704808188608083E091160477
:104C1000F0911704808180688083E0911604F09100
:104C2000170480818F7D80836FE171E08DE993E0CF
:104C30000E948F3783EA91E09F938F9389EA91E0F6
:104C40009F938F938DE993E09F938F931F921F9370
:104C50000E947823809180008C7F809380008091D7
:104C60008100877E80618093810064EF71E080E045
:104C700090E00E940F228091B0008C7F8160809331
:104C8000B0008091B10088608093B1000FB6F894B5
:104C9000DEBF0FBECDBF10E02EE3E22EF12C812C43
:104CA00034E2932E34EFA32EB12C1F5FE12FF0E0FE
:104CB000EE0FFF1FE15CFE4F808191818E159F05F5
:104CC000A0F37C019C01A8EEB3E00E9464349B0138
:104CD000AC01C501B4010E941D342F3F31054105CF
:104CE000510509F010F72093B3008091B1001770BF
:104CF000887F182B1093B10081E08093BF0462E39A
:104D000070E080E090E00E94191E1092A4041092BE
:104D1000A3041092A2041092A1040E94F10E90919B
:104D2000BF048091BA048062913069F50E94C22369
:104D300080E00E94BE0D8FE10E94BE0D0E94CC2338
:104D4000882339F08091BC04823019F41092BC049D
:104D5000EDC08091BA0480620E94C2238CE00E9460
:104D6000BE0D8FE10E94BE0D0E94CC23882321F04E
:104D70008091BC04823051F38091BA0480620E9419
:104D8000C22381E032C00E94C22380E00E94BE0D97
:104D90008FEF0E94BE0D80E00E94BE0D80E00E9459
:104DA000BE0D80E00E94BE0D80E00E94BE0D80E03E
:104DB0000E94BE0D80E00E94BE0D80E00E94BE0DEC
:104DC00080E00E94BE0D80E00E94BE0D0E94CC23B8
:104DD000882329F08091BC04823009F4B7CF8091F8
:104DE000BA0480620E94C22380E00E94BE0D80E06F
:104DF0000E94BE0D0E94CC23882329F08091BC0420
:104E0000823009F4A3CF8091BC04823019F481E090
:104E10008093BC048091B50488608093B50482E0DF
:104E20008093B8041092B9048091BF048130E1F4FA
:104E30001092BE041092BD0413E068E381EB94E08D
:104E40000E94772268E181EB94E00E947722115062
:104E5000A1F768E281EB94E00E94772268E081EBA1
:104E600094E00E94772228C06CE981EB94E00E94D4
:104E70005D2268E981EB94E00E945D226CE981EBA0
:104E800094E00E945D2268E981EB94E00E945D223B
:104E90006CE981EB94E00E945D2268E981EB94E08B
:104EA0000E945D2264E981EB94E00E945D2260E94A
:104EB00081EB94E00E945D2265E070E080E090E08C
:104EC0000E94191E6091B504606240E081EB94E09D
:104ED0000E94390D65E070E080E090E00E94191EAC
:104EE0006091B504606240E081EB94E00E94390D6E
:104EF00065E070E080E090E00E94191E8CE08093F5
:104F0000B6048091BC04882331F040E06CE081EB72
:104F100094E00E94390D0E941D2582E08093B70421
:104F200040E066E081EB94E00E94390D87E00E944A
:104F3000BC240E941D2560E080E00E947F2462E185
:104F400071E08DE993E00E948F376DE973E081EBAA
:104F500094E00E94131D61E080E00E947F246EE0D7
:104F600071E08DE993E00E948F376DE973E081EB8A
:104F700094E00E94131D68E071E08DE993E00E94C7
:104F80008F376DE973E081EB94E00E94131D64E0BC
:104F900071E08DE993E00E948F376DE973E081EB5A
:104FA00094E00E94131D6EEF70E08DE993E00E9483
:104FB0008F376DE973E081EB94E00E94131D60E090
:104FC00082E00E94C61D61E083E00E94C61D60E091
:104FD00083E00E94961D8CE991E1909301018093FA
:104FE000000180916900836080936900E89A61E024
:104FF0008AE00E94C61D61E089E00E94C61D61E052
:1050000088E00E94C61D61E087E00E94C61D60E046
:1050100081E10E94C61D60E080E10E94C61D61E042
:1050200070E081E090E00E94771461E070E082E03F
:1050300090E00E94771460E070E081E090E00E94D0
:105040001A1660E070E082E090E00E941A1688E292
:10505000EEE4F2E0DF01482E1D924A94E9F7E0E821
:10506000F2E0DF011D928A95E9F710924302109257
:105070004202109241021092400210922B021092B2
:105080002C0210922D0210922E02109227021092E2
:1050900028021092290210922A021092A80210925D
:1050A000A9021092AA021092AB02109278021092FA
:1050B000790210927A0210927B021092AC02109246
:1050C000AD021092AE021092AF0210927C021092CA
:1050D0007D0210927E0210927F02109209021092BD
:1050E0000A0210920B0210920C021092050210920A
:1050F00006021092070210920802109221021092EA
:105100002202109223021092240283E690E09093F0
:105110007702809376021092480210924902109210
:105120004A0210924B0280E090E00E949A1190E0B7
:105130008230910528F490933E0280933D0209C08D
:1051400010923E0210923D0260E080E090E00E94EA
:105150000F0F81E090E090933A028093390282E051
:1051600090E00E949A1190E0E6E0F1E0219130E0B9
:105170008217930731F0B1E0E131FB07B9F72CE07A
:1051800030E0A8EEB3E00E94643460931D02709397
:105190001E0280931F029093200200E110E0C801DC
:1051A0000E949A11D82EC80101960E949A11E82EE9
:1051B000C80102960E949A11F82EC80103960E9417
:1051C0009A11982F833008F090E0E7E1ED1508F48C
:1051D000D12CFBE3FE1508F4E12C9801235F3D4F31
:1051E000F9017097D0823196E08231968F2D8F77BA
:1051F0008083319690830C5F1F4F0032110579F642
:1052000083E090E00E949A1191E0811101C090E04A
:105210009093040288E690E2909303028093020246
:105220008091FE019091FF01A0910002B0910102D6
:105230008093FA019093FB01A093FC01B093FD01D0
:105240000E941E1F84E090E00E949A11682F082E91
:10525000000C770B77FF03C0719561957109162FCC
:105260001F7187FF106288E60E94C22367E085EA0B
:1052700094E00E94F50B612F85EA94E00E94F50B03
:105280000E94CC238AE00E942C25811116C06CED6F
:1052900070E08DE993E00E948F378DE993E09F9352
:1052A0008F931F9281E08F930E94782383E00E9466
:1052B000BC240F900F900F900F9089E00E942C2536
:1052C000811116C06AEB70E08DE993E00E948F3780
:1052D0008DE993E09F938F931F9281E08F930E94BB
:1052E000782384E00E94BC240F900F900F900F90C1
:1052F00080ED97E00E94FF0A0E941D250E94180B76
:1053000081E10E946D1D01E0019709F000E080E15C
:105310000E946D1D11E0019709F010E0011102C01B
:10532000112309F181E00E94BC240E941D256AEA34
:1053300070E08DE993E00E948F376DE973E081EBB7
:1053400094E00E94131D61E080E00E947F2400230E
:1053500019F081E40E947424112319F082E40E9460
:1053600074240E94B00A9E012F5F3F4F4901A89507
:1053700080914D02882339F0E0910401F0910501FC
:1053800080E009954CC480914C028823D1F069ECEF
:1053900074E08DE993E00E948F378DE993E09F934D
:1053A0008F931F9281E08F930E94782367E480E0BF
:1053B00090E00E94AA1610924C020F900F900F904E
:1053C0000F908091480290914902A0914A02B091B9
:1053D0004B02892B8A2B8B2B81F581E10E946D1D5D
:1053E000019739F48091460290914702892B09F484
:1053F00019C480E10E946D1D019739F48091440227
:1054000090914502892B09F426C481E10E946D1D0B
:10541000892B39F48091460290914702019709F453
:1054200033C480E10E946D1D892B39F480914402C0
:1054300090914502019709F440C4809148029091EF
:105440004902A0914A02B0914B02892B8A2B8B2BE7
:10545000A1F00E94531E0091480210914902209130
:105460004A0230914B020C501E4F2F4F3F4F0617F0
:1054700017072807390708F439C480914202909130
:105480004302059731F080914002909141020597C7
:1054900011F481E01AC081E090E00E94D815182F25
:1054A00082E090E00E94D81511110AC081110CC051
:1054B00080913F02811102C082E007C083E005C0F5
:1054C000882311F085E001C086E00E94BC24909101
:1054D000B40280913F02992309F46EC0811168C023
:1054E00080913D0290913E020197A9F480913B0288
:1054F00090913C02049719F481E090E008C08091FB
:105500003702909138020497B9F782E090E09093C7
:105510003A028093390261E070E081E090E00E94FD
:10552000771461E070E082E090E00E9477140E94BE
:10553000531E60933302709334028093350290932C
:10554000360260932F027093300280933102909361
:1055500032021092430210924202109241021092C3
:10556000400210922B0210922C0210922D021092E7
:105570002E021092270210922802109229021092F5
:105580002A02109226021092250262E474E08DE94C
:1055900093E00E948F378DE993E09F938F931F9242
:1055A00081E08F930E9478230F900F900F900F90BF
:1055B00081E080933F020CC0882341F010924302A7
:1055C00010924202109241021092400210923F0249
:1055D00060E080E00E947F2488E60E94C22360E0B1
:1055E00085EA94E00E94F50B0E94CC2361E070E014
:1055F00088E690E00E94292485EA94E00E94A90BA5
:1056000087FD42C00E94CD060E94E3218091FF03E6
:1056100090E00C9714F411E401C010E50E94CD064F
:105620000E94E3210091FE030E94CD060E94E32127
:105630008091FF03882341F0E82EF12C8D3038F063
:105640003CE0E31AF10803C08CE0E82EF12C65E39E
:1056500074E08DE993E00E948F371F921F931F9291
:105660000F93FF92EF928DE993E09F938F931F9298
:1056700041E14F939F928F920E9492340FB6F8941B
:10568000DEBF0FBECDBF17C06CE274E08DE993E0C2
:105690000E948F378DE993E09F938F931F9291E142
:1056A0009F939F928F920E9492340F900F900F9031
:1056B0000F900F900F90B40181EB94E00E94131DA6
:1056C00080913F02882319F063E274E01CC060E21D
:1056D00074E08DE993E00E948F376DE973E081EB10
:1056E00094E00E94131D80913D0290913E0200972C
:1056F00029F0019731F462E174E005C069E174E0DA
:1057000002C06EE074E08DE993E00E948F376DE98E
:1057100073E081EB94E00E94131D81E090E00E9411
:10572000D0137C0180913F028111B5C68091420265
:10573000909143028530910509F452C0E816F906AC
:1057400009F47BC00097C1F1970121503109253040
:10575000310540F4220F331FF901EF5EFE4FC08088
:10576000D18004C01BE9C12E11E0D12E01978530F4
:10577000910540F4880F991FFC01EF5EFE4F0081F8
:10578000118102C00BE911E060EB73E08DE993E059
:105790000E948F37DF92CF921F930F938DE993E092
:1057A0009F938F931F9281E08F930E9478230FB66F
:1057B000F894DEBF0FBECDBF80913D0290913E02B6
:1057C000009741F00197C9F5B70181E090E00E9490
:1057D000A91833C0B70181E090E00E947D172DC069
:1057E00021E0E216F10409F050C610924302109233
:1057F00042026BEE73E08DE993E00E948F378DE9F2
:1058000093E09F938F931F9281E08F930E94782360
:105810000F900F900F900F9080913302909134026F
:10582000A0913502B0913602892B8A2B8B2B09F07F
:10583000D5C580913F028111EDC582E090E00E94C4
:10584000D0138C0180913F02811144C680914002A7
:10585000909141028530910509F454C00817190749
:1058600009F47CC00097D1F198012150310925300D
:10587000310540F4220F331FF901EF5EFE4FA08087
:10588000B18004C0FBE9AF2EF1E0BF2E0197853057
:10589000910540F4880F991FFC01EF5EFE4FC08018
:1058A000D18004C07BE9C72E71E0D72E62E573E09A
:1058B0008DE993E00E948F37BF92AF92DF92CF9233
:1058C0008DE993E09F938F931F9281E08F930E94C5
:1058D00078230FB6F894DEBF0FBECDBF80913D0296
:1058E00090913E02009741F00197C1F5B80182E026
:1058F00090E00E94A91832C0B80182E090E00E94B6
:105900007D172CC00130110509F052C610924102DA
:10591000109240026DE873E08DE993E00E948F37AA
:105920008DE993E09F938F931F9281E08F930E9464
:1059300078230F900F900F900F9080912F029091ED
:105940003002A0913102B0913202892B8A2B8B2B2D
:1059500009F0D9C580913F028111F1C5A0902102C3
:10596000B0902202C0902302D0902402A114B1046E
:10597000C104D10409F4B5C00E94531E2B013C019F
:10598000DC01CB018A199B09AC09BD09813E934911
:10599000A440B10508F4A5C080913B0290913C025F
:1059A000049709F047C060E273E08DE993E00E943C
:1059B0008F37AFEAB1E0BF93AF938DE993E09F9348
:1059C0008F931F9281E08F930E94782361E070E0B3
:1059D00081E090E00E94771464E070E082E090E063
:1059E0000E94771440922102509222026092230278
:1059F0007092240261E080E00E947F240F900F905B
:105A00000F900F900F900F9080912602882319F02D
:105A100067E173E002C06EE073E08DE993E00E94FD
:105A20008F376DE973E081EB94E00E94131D65E010
:105A300073E04DC08091370290913802049709F0CD
:105A400050C063ED72E08DE993E00E948F37A5EBC3
:105A5000B1E0BF93AF938DE993E09F938F931F9233
:105A600081E08F930E94782361E070E082E090E013
:105A70000E94771464E070E081E090E00E94771467
:105A800040922102509222026092230270922402DC
:105A900061E080E00E947F246AEC72E08DE993E08F
:105AA0000E948F376DE973E081EB94E00E94131D33
:105AB0000F900F900F900F900F900F9080912502F4
:105AC000882319F061EC72E002C068EB72E08DE9A6
:105AD00093E00E948F376DE973E081EB94E00E94C0
