:100000000C949D010C943E0F0C94170F0C94C50199
:100010000C94C5010C94C5010C94C5010C94C50148
:100020000C94C5010C94C5010C94C5010C94C50138
:100030000C94C5010C94C5010C94C5010C94C50128
:100040000C94CD0E0C94C5010C9439160C94131617
:100050000C94C5010C94C5010C94C5010C94C50108
:100060000C949F130C94C5014B067E0687069206DE
:100070009A069A069A069A069A069A069A06A80672
:10008000A317A817B917CA17D517E517F517221818
:100090002A1855184618551855185C187C18A918B0
:1000A000D718041931195E198A1907634236B79BAC
:1000B000D8A71A39685618AEBAAB558C1D3CB7CCC8
:1000C0005763BD6DEDFD753EF6177231BF00000040
:1000D000803F455252200020646F6E65002077619A
:1000E000697400206F6E202000206F66662000205B
:1000F0002D2D2D2000636C656172007365740053B3
:100100007475636B2000474649205465737420461C
:1001100061696C757265004572724A616E4665620E
:100120004D61724170724D61794A756E4A756C41CC
:1001300075675365704F63744E6F76446563002036
:1001400020002532640020202000202020002025CF
:100150003264002020002530326400202000253247
:10016000640053657420436C6F636B00534D5457A8
:1001700054465300534D54575446530020200025F5
:100180003032640020200025326400457869740014
:10019000202020200045646974204576656E742017
:1001A0000000000000240027002A000000000025B5
:1001B0000028002B00000000002300260029000476
:1001C00004040404040404020202020202030303FE
:1001D00003030301020408102040800102040810F8
:1001E0002001020408102052656C61792046616983
:1001F0006C7572653A2000322E342E332D6465768C
:100200000053573A00342E332E310048573A004AF3
:10021000313737322048796472612000554E4B00E7
:100220007365716E746C00736861726564004D3A39
:10023000004D3A504155534544002532643A25302B
:10024000326425634D2000204361722025733A20DB
:10025000256425250050696C6F7420646572617493
:100260006500204361722025733A202573302E25C6
:100270006400416D6D65746572004E6F0059657361
:100280000045786974204D656E75733F004E6F00B0
:100290005965730043616C6962726174696F6E3F86
:1002A000004E6F0059657300436F6E6669672045A5
:1002B00076656E74733F004E6F0059657300456E2E
:1002C00061626C65204453543F004E6F0059657362
:1002D0000053657420436C6F636B3F0020416D7069
:1002E000730043757272656E7420417661696C2E7D
:1002F0000053657175656E7469616C005368617255
:100300006564004F7065726174696E67204D6F643B
:10031000650025336C756D41002532642E25303122
:10032000644100000000080002010000030407000F
:1003300000000000000000001A2911241FBECFEFAA
:10034000D8E0DEBFCDBF24E0A4E8B1E001C01D923B
:10035000AA35B207E1F711E0A0E0B1E0ECE1F6E682
:1003600002C005900D92A438B107D9F711E0CDE98C
:10037000D1E004C02197FE010E94042CCC39D107A2
:10038000C9F70E944C230C940C330C94000060E0DD
:1003900088E00E94040E60E087E00E94040E109244
:1003A000D8031092D7031092A6031092A5030E94BF
:1003B000C10E609362027093630280936402909313
:1003C000650281E0809366020895CF93DF93EC018C
:1003D000C536D10550F064E670E080E090E00E9400
:1003E000870EC456D109A895F3CFBE0180E090E0F6
:1003F0000E94870EA895DF91CF9108950F931F93C8
:100400008091520490915304A0915404B0915504EA
:10041000892B8A2B8B2BA9F00E94C10E00915204CC
:10042000109153042091540430915504DC01CB0108
:10043000801B910BA20BB30BC297A105B10508F469
:1004400044C010925204109253041092540410921B
:100450005504809145048823C1F080914304806253
:100460000E94682082E10E94E1120E947220809125
:100470004304806261E070E090E00E94CF208EE84B
:1004800093E00E94680D80958F7140914E045091C9
:100490004F04609150047091510480FF19C0452BA6
:1004A000462B472B91F40E94C10E60934E0470932B
:1004B0004F048093500490935104609352047093BE
:1004C0005304809354049093550480E090E02EC030
:1004D000452B462B472BC9F30E94C10E6093520453
:1004E00070935304809354049093550400914E04E8
:1004F00010914F042091500430915104DC01CB0144
:10050000801B910BA20BB30B10924E0410924F0460
:1005100010925004109251048B3F9105A105B10532
:1005200018F481E090E002C082E090E01F910F910A
:1005300008958F929F92AF92BF92EF92FF920F9386
:100540001F93CF93DF937C010E94C10E4B015C018E
:10055000C0E0D0E00FE017E20E94C10EDC01CB0149
:1005600088199909AA09BB094497A105B10568F43E
:10057000F70187810E94700EC817D90708F4EC01B3
:100580008017910748F78C01E7CF0B5F1109013302
:100590001140A0F0C63683E0D80798F4CE0187500A
:1005A00093408F35910580F0835A9F4F8D3591058B
:1005B00070F0C256D240C834D10560F085E090E0BA
:1005C0000BC081E090E008C082E090E005C083E0CD
:1005D00090E002C084E090E0DF91CF911F910F91F5
:1005E000FF90EF90BF90AF909F908F900895CF9223
:1005F000DF92EF92FF920F931F93CF93DF93EC0163
:100600008B018881813019F440911A0402C0409115
:100610001B040230110518F4602F8D81A4C02091B5
:10062000010430910204A8EEB3E00E94C632033008
:10063000110521F496958795779567954423D1F018
:10064000A42F440FBB0BAC59BF4F9B01AC010E94C0
:100650009C3224E630E040E050E00E94A432203793
:1006600087E138074105510568F460E777E180E0EC
:1006700090E010C06133E5E77E078105910508F041
:1006800098C01AC0CA01B901213335474105510547
:1006900008F08FC02CE330E040E050E00E94A4322C
:1006A000942F832F722F662728EE33E040E050E02E
:1006B0000E947232790109C0603727E17207810513
:1006C000910540F7EE24EA94F12CCD80DE8061E0C4
:1006D0008C2D0E94340EFFEFEF16F10409F441C097
:1006E000F601FF27ED5DFC4FE491E330E1F058F4B3
:1006F000E23099F584B5806284BD27B530E058E4D6
:10070000C52ED12C3DC0E430D9F0E83031F58091D0
:10071000B00080628093B0002091B30030E084EBA1
:10072000C82ED12C2DC080918000806880938000DD
:10073000209186003091870048E8C42ED12C2CC02F
:1007400080918000806280938000209186003091AB
:1007500087009AE8C92ED12C1FC0E7FC02C060E0D8
:1007600001C061E08C2D0E94040E19A308A3DF9143
:10077000CF911F910F91FF90EF90DF90CF90089550
:10078000D7010E94C6322FEF30E040E050E00E94D7
:10079000A432F6012083E9CFD7010E94C6322FEFA1
:1007A00030E040E050E00E94A432F6013183208323
:1007B000DCCF60E375E780E090E06CCFFC018091D6
:1007C0006102811112C0258536852530310581F001
:1007D00083899489A589B689892B8A2B8B2B39F437
:1007E0002385348581E0232B19F480E0089581E08E
:1007F00008950F931F93CF93DF938C01EB018091AA
:10080000A5039091A603892B49F48091D703909179
:10081000D803892B19F461307105C1F0F801838583
:1008200094858C179D07A9F06C2F83810E94040E7C
:10083000F801D487C3870E94C10E6093620270934F
:100840006302809364029093650203C00E94770460
:10085000E5CFDF91CF911F910F91089560E070E097
:100860008AE993E00E94F70260E070E08CEC93E08C
:100870000E94F70260E070E08AE993E00E94F903C9
:1008800060E070E08CEC93E00E94F903A895FECF45
:10089000C82F81E00E94B2210E946B2166E071E0C6
:1008A0008FEF91E00E9455328FEF91E00E942C2152
:1008B00061E080E00E942E216FEF70E08FEF91E009
:1008C0000E9455328FEF91E00E942C21CC2319F029
:1008D0006BEF70E002C065EF70E08FEF91E00E9477
:1008E00055328FEF91E00E942C210E942E04CF926E
:1008F000DF92EF92FF920F931F93CF93DF931092AB
:100900006602C2E3D0E00BEF1CE761E083E00E94E7
:10091000040EC8010197F1F760E083E00E94040E25
:10092000C8010197F1F780916602811103C0A89573
:10093000219759F7809166028823B9F00E94C10E71
:100940006B017C0124E6C20ED11CE11CF11C82E08B
:100950000E94DB0D019759F4A8950E94C10EC6169E
:10096000D706E806F90698F781E00E94480480E976
:1009700091E00E94E50110926602DF91CF911F91F4
:100980000F91FF90EF90DF90CF9008950F931F93FA
:10099000CF93DF93EC01CE018370992781309105CD
:1009A00049F0029751F0CC7FCE0181600E94C604CD
:1009B000C260F1CF01E410E002C002E418E061E09F
:1009C000812F0E942E21802F0E941B228AE30E94E9
:1009D0001B229E012873332720313105B1F048F4E2
:1009E0002115310579F028303105E9F469EE70E020
:1009F0000EC028313105A1F020323105A1F467ED98
:100A000070E005C06FEE70E002C063EE70E08FEF43
:100A100091E00E9455328FEF91E00E942C2138C066
:100A20006DED70E0F4CF81E00E94B22162ED70E0E4
:100A30008FEF91E00E9455328FEF91E00E942C21C0
:100A40009E01207C317020383105B9F038F4211531
:100A5000310589F020343105C1F015C0211581E040
:100A6000380769F0203481E0380759F0203C31051F
:100A700051F484E50BC086E409C087E407C082E531
:100A800005C085E403C08FE301C08FE40E941B22F0
:100A900089E791E00E942C21C2FF0CC061E086E052
:100AA000810F0E942E218AE2DF91CF911F910F9139
:100AB0000C941B22DF91CF911F910F910895CF923B
:100AC000DF92EF92FF920F931F93CF93DF93EC018E
:100AD0000E94C10E6B017C018E01037011270E94E0
:100AE0001322CE01807C91708038910561F4809151
:100AF0006002843040F4C0925604D0925704E092D1
:100B00005804F09259040230110528F00230110502
:100B100009F047C024C061E070E08AE993E00E94D8
:100B2000F7028091A7039091A803059771F085E0E3
:100B300090E09093A8038093A703C092B103D09252
:100B4000B203E092B303F092B4031092AD0310929B
:100B5000AE031092AF031092B003012B11F561E0C8
:100B600070E08CEC93E00E94F7028091D9039091A1
:100B7000DA03059771F085E090E09093DA038093B3
:100B8000D903C092E303D092E403E092E503F0922C
:100B9000E6031092DF031092E0031092E10310923B
:100BA000E203CE01DF91CF911F910F91FF90EF9063
:100BB000DF90CF900C94C604CF92DF92EF92FF9219
:100BC0000E94AA0F6B017C0180910304882369F0C5
:100BD000C701B6010E94CF1E882339F0C701B601B4
:100BE000605F714F8F4F9F4F02C0C701B601FF90EA
:100BF000EF90DF90CF900895EF92FF920F931F93A5
:100C0000CF93DF931F92CDB7DEB78C01E12CF12C8F
:100C1000F80161918F01C70169830E945C3269818B
:100C2000681719F0C7010E946432FFEFEF1AFF0A3C
:100C30008CE3E816F10461F70F90DF91CF911F91DB
:100C40000F91FF90EF900895FF920F931F93CF9312
:100C5000DF9300D000D0CDB7DEB7F82E0E94FE01A2
:100C60008C01FF2039F00E946B21109299011092A3
:100C7000980104C08130910509F075C090919901E7
:100C8000492F50E04C30510508F0AFC0FA01EC5C40
:100C9000FF4F0C94042CF11005C0809198018F5FD8
:100CA0008093980180919801863010F010929801FD
:100CB000E0919801E53008F098C034E0E39FF0013E
:100CC0001124EC5FFB4F8081809397019181909379
:100CD000960192819093950193819093940191E074
:100CE0008C3008F490E090939301811102C08CE065
:100CF0000BC08D3008F479C08C5006C080919701EC
:100D00008F5F8D3008F081E0809397016EC08091F5
:100D100096018F5F8C3318F48093960166C0109211
:100D2000960163C081E090919301911180E08093DE
:100D300093015BC02CEF290F81E090E001C0880F88
:100D40002A95EAF7909195018927809395014DC0E6
:100D5000809194018F5F833018F48093940145C093
:100D60001092940142C0029709F041C090919901FC
:100D700091110FC080919801853059F486E697E172
:100D80009093050180930401109267020E946B21E9
:100D90005AC19F5F909399019C3048F180919701CF
:100DA00090919301911103C08C3031F44AC191307C
:100DB00019F48C3009F0845FE091980194E0E99F88
:100DC000F0011124EC5FFB4F8083809196018183B9
:100DD0008091950182838091940183838EEF93E0CB
:100DE0000E94FC05109299012EC101E010E00E94C2
:100DF000C10E28EE33E040E050E00E94A43221E032
:100E0000643F71408105910508F420E0012B29F42D
:100E100090919201921709F416C12093920160E01B
:100E200080E00E942E2165E971E08FEF91E00E9441
:100E300055328FEF91E00E942C21809192018823FE
:100E400039F080919901811103C060E971E006C019
:100E500060919801653059F46BE871E08FEF91E093
:100E60000E9455328FEF91E00E942C210AC070E061
:100E70006F5F7F4F072E000C880B990B4AE00E9492
:100E8000262261E080E00E942E2180919801853029
:100E900049F400E110E080E20E941B220150110998
:100EA000D1F7D1C01091970167E871E08FEF91E021
:100EB0000E9455321F921F938FEF91E09F938F9363
:100EC0008E010F5F1F4F1F930F930E94B42F0F903F
:100ED0000F900F900F900F900F90809192018823A8
:100EE00069F080919901813049F464E871E08FEFF5
:100EF00091E00E9455328FEF91E001C0C8010E943D
:100F00002C218AE30E941B22F09096016FE771E08A
:100F10008FEF91E00E9455321F92FF928FEF91E088
:100F20009F938F931F930F930E94B42F0F900F9056
:100F30000F900F900F900F9080919201882369F08D
:100F400080919901823049F46CE771E08FEF91E074
:100F50000E9455328FEF91E001C0C8010E942C2100
:100F600080919201882331F080919901833011F4AE
:100F700080E207C080919301813011F081E401C0CB
:100F800080E50E941B2280E20E941B2200E010E00C
:100F90006CE671E08FEF91E00E945532EFEFF1E0E7
:100FA00001900020E9F73197EF5FF1400E171F071E
:100FB00058F58091990190E098012C5F3F4F2817D8
:100FC000390731F480919201882311F080E217C033
:100FD0008091950190E0002E02C0959587950A9426
:100FE000E2F780FF0BC064E771E08FEF91E00E94B1
:100FF0005532F801E150FE4F808101C08DE20E9420
:101000001B220F5F1F4FC4CF80E20E941B228091E2
:1010100099018B3031F480919201882311F080E2A4
:101020000DC080919401811102C08EE407C081300F
:1010300011F483E503C0823031F487E40E941B225F
:1010400002C080E0B9CE0F900F900F900F90DF910B
:10105000CF911F910F91FF9008954F925F926F92E1
:101060007F928F929F92AF92BF92CF92DF92EF9238
:10107000FF920F931F93CF93DF93CDB7DEB76297A5
:101080000FB6F894DEBF0FBECDBFF82E0E94FE0152
:101090008C01FF2009F460C00E946B2162E671E0C0
:1010A0008FEF91E00E9455328FEF91E00E942C214A
:1010B0000E94DC056B017C010E946F122091E80206
:1010C000222331F0822F90E02D3020F00C9702C0C7
:1010D0008CE090E080939701C701B6010E946F12E7
:1010E0008091E80290E021E00C970CF420E020933E
:1010F0009301C701B6010E946F128091E7028093AD
:101100009601C701B6010E946F128091EA02809396
:101110009101C701B6010E946F128091EB0280938A
:101120009001C701B6010E946F128091EC0290E01D
:101130009C012E54384F88970B9728F430938F01D9
:1011400020938E0106C08AED97E090938F018093E3
:101150008E01109299015DC08130910509F051C056
:1011600090919901923001F128F4992349F091303E
:1011700081F0D7C2943061F110F1953091F1D1C274
:10118000809197018F5F8D3008F081E08093970107
:10119000C8C2809196018F5F8C3318F480939601BA
:1011A000C0C210929601BDC2809193018F5F8230C0
:1011B00018F480939301B5C210929301B2C280914A
:1011C00091018F5F803208F081E080939101A9C284
:1011D000809190018F5F8D3008F081E080939001C5
:1011E000A0C280918E0190918F010196853E27E0EB
:1011F000920710F08AED97E090938F0180938E0113
:1012000090C2029709F08DC2809199018F5F8093FF
:10121000990180919901863008F481C290919301DF
:1012200080919701911105C08C3051F41092970173
:1012300007C0913029F48C3019F0845F80939701B6
:1012400080918E01825B8E87809190018D87809145
:1012500091018C87809197018A8780919601898777
:101260001886CE0108960E9434106B017C01809193
:101270000304882331F0C701B6010E94CF1E8111FB
:1012800070C30E94AA0F6F87788B898B9A8BC701D6
:10129000B6010E94830FAE014F5F5F4FC701B601D9
:1012A0000E949E1188E60E94682060E08EE893E02C
:1012B0000E94AC0D60E88EE893E00E94AC0D8A813C
:1012C0001AE0612F0E94D02B692F30E1839F600DBF
:1012D00011248EE893E00E94AC0D8B81612F0E9457
:1012E000D02B692F40E1849F600D11248EE893E09C
:1012F0000E94AC0D8C81612F0E94D02B692F50E190
:10130000859F600D11248EE893E00E94AC0D8D81C5
:10131000612F0E94D02B692F20E1829F600D112444
:101320008EE893E00E94AC0D8E81612F0E94D02B3D
:10133000692F30E1839F600D11248EE893E00E94B5
:10134000AC0D8F818E51612F0E94D02B692F40E10F
:10135000849F600D11248EE893E00E94AC0D0E94E2
:101360007220882319F010929A011EC001E00093A8
:101370009A0188E60E94682060E08EE893E00E946F
:10138000AC0D8981612F0E94D02B692F50E1859F80
:10139000600D11248EE893E00E94AC0D0E94722033
:1013A0008111E1CF00939A01C701B6010E945E2D21
:1013B0004B015C01209128043091290440912A04BA
:1013C00050912B040E94772C87FF34C01092280480
:1013D0001092290410922A0410922B0410922404D3
:1013E00010922504109226041092270410922004D3
:1013F00010922104109222041092230480912E0452
:1014000090912F04A0913004B09131048093320464
:1014100090933304A0933404B093350410923604AF
:1014200010923704109238041092390410922C0450
:1014300010922D04409028045090290460902A04B2
:1014400070902B0420E030E0A901C301B2010E949A
:10145000772C81110FC04091320450913304609178
:10146000340470913504950184018CE194E00E946C
:10147000EB1442C1C701B6012F85388949895A89C1
:10148000621B730B840B950B0E945E2D6B017C011C
:10149000A3019201C501B4010E940A2C9B01AC0179
:1014A000C701B6010E947C2C20E030EC48EA57E4EA
:1014B0000E94B22E6B017C0120E030E0A9010E9465
:1014C000372E18165CF420E030E040EA52E4C70101
:1014D000B6010E94372E18165CF040C020E030E0C4
:1014E00040EA52ECC701B6010E94772C87FF36C054
:1014F000109228041092290410922A0410922B04AE
:1015000010922404109225041092260410922704AD
:1015100010922004109221041092220410922304AD
:1015200080912E0490912F04A0913004B091310449
:101530008093320490933304A0933404B093350421
:101540001092360410923704109238041092390425
:1015500010922C0410922D0480E0D0C010912D0424
:10156000112309F474C0A7019601609136047091AB
:10157000370480913804909139040E940A2C2B0181
:101580003C01612F110F770B880B990B0E94602D86
:101590009B01AC01C301B2010E947C2C2B013C01D8
:1015A0002FE632E143E85AE30E94772C87FDA0CF73
:1015B000A3019201C301B2010E94652F811198CF4E
:1015C00095018401B301A2018CE194E00E94EB1427
:1015D0008090200490902104A0902204B0902304D5
:1015E00020E030E0A901C501B4010E94372E181691
:1015F0005CF42DEB37E346E855E3C501B4010E94E6
:10160000772C87FF0BC017C02DEB37E346E855EB6F
:10161000C501B4010E94372E18166CF0A501940183
:1016200060912404709125048091260490912704F0
:101630000E947C2C03C060E070E0CB016093320418
:101640007093330480933404909335040EC040911A
:101650003204509133046091340470913504950143
:1016600084018CE194E00E94EB14C0923604D09285
:101670003704E0923804F09239042091320430911A
:1016800033044091340450913504C701B6010E94DF
:101690007C2C6B017C0120E030E0A9010E94372EF8
:1016A00020E030E040E05FE387FD05C0C701B60100
:1016B0000E940B2C04C0C701B6010E940A2C0E9494
:1016C000282D80912C049B01280F311D87FD3A9510
:1016D0002038310514F09FE704C020383F4F2CF428
:1016E00090E8981B90932D0402C060932D04909174
:1016F0002D04890F80932C0480912C040E94650F87
:101700008EEF93E00E94FC0586E697E19093050139
:1017100080930401109267020E946B2129C102E0AC
:1017200010E00E94C10E28EE33E040E050E00E943D
:10173000A43221E0643F71408105910508F420E066
:10174000012B29F490919201921709F411C1209371
:10175000920161E080E00E942E21109197016EE5D8
:1017600071E08FEF91E00E9455321F921F938FEF2F
:1017700091E09F938F938E010F5F1F4F1F930F93E5
:101780000E94B42F0F900F900F900F900F900F901A
:101790008091990181110DC080919201882349F0B7
:1017A0006BE571E08FEF91E00E9455328FEF91E091
:1017B00001C0C8010E942C218AE30E941B22F090E4
:1017C000960166E571E08FEF91E00E9455321F921D
:1017D000FF928FEF91E09F938F931F930F930E943F
:1017E000B42F0F900F900F900F900F900F9080914B
:1017F0009901813069F480919201882349F063E571
:1018000071E08FEF91E00E9455328FEF91E001C0BF
:10181000C8010E942C2180919901823031F480917D
:101820009201882311F080E207C080919301811119
:1018300002C081E401C080E50E941B22F09091016A
:101840006EE471E08FEF91E00E9455321F92FF929B
:101850008FEF91E09F938F931F930F930E94B42F6C
:101860000F900F900F900F900F900F908091990113
:10187000833069F480919201882349F06AE471E031
:101880008FEF91E00E9455328FEF91E001C0C801C7
:101890000E942C218DE20E941B22809199018430AC
:1018A00069F480919201882349F066E471E08FEF3A
:1018B00091E00E9455328FEF91E019C02091900184
:1018C00083E0289F90011124A4E8B1E080E090E03B
:1018D000FC01E20FF31FE95EFE4FE491ED930196E8
:1018E00083309105A9F71092870184E891E00E9466
:1018F0002C218DE20E941B2280918E0190918F01FC
:1019000064E670E00E94DC2BF82EE92E62E471E0C0
:101910008FEF91E00E945532EF92FF928FEF91E0AE
:101920009F938F931F930F930E94B42F0F900F904C
:101930000F900F900F900F9080919901853069F46E
:1019400080919201882349F06FE371E08FEF91E07D
:101950000E9455328FEF91E001C0C8010E942C21F6
:1019600007C090E1C91A9EE0D90AE108F10889CCC4
:1019700062960FB6F894DEBF0FBECDBFDF91CF9158
:101980001F910F91FF90EF90DF90CF90BF90AF909D
:101990009F908F907F906F905F904F9008958330CD
:1019A00081F028F4813099F08230A1F008958730D9
:1019B000A9F08830B9F08430D1F4809180008F7D17
:1019C00003C0809180008F7780938000089584B554
:1019D0008F7702C084B58F7D84BD08958091B0005B
:1019E0008F7703C08091B0008F7D8093B000089501
:1019F0003FB7F8948091F1019091F201A091F30129
:101A0000B091F40126B5A89B05C02F3F19F00196AF
:101A1000A11DB11D3FBFBA2FA92F982F8827820F74
:101A2000911DA11DB11DBC01CD0142E0660F771FC4
:101A3000881F991F4A95D1F70895089580918C03C6
:101A400090E020918D03821B9109089585ED80938C
:101A5000BC008091BC0084FDFCCF1092C4020895AC
:101A60004091BD01262F30E0240F311D2132310578
:101A7000DCF42091C4022430C9F4FC0180E090E041
:101A8000861758F43091BD012191DC01A556BE4F57
:101A9000A30FB11D2C930196F3CF8091BD01680F68
:101AA0006093BD0180E0089581E0089582E008958B
:101AB0000895E0918D0380918C03E81730F4F0E0F5
:101AC000E258FD4F808190E008958FEF9FEF0895D9
:101AD00090918D0380918C03981750F4E92FF0E0DA
:101AE000E258FD4F208130E09F5F90938D0302C04C
:101AF0002FEF3FEFC9010895CF92DF92EF92FF924F
:101B00000F931F93CF93DF937C01262F972F8A018A
:101B10008091E502882391F0C62FD72F6E01C40E65
:101B2000D51ECC15DD0571F06991D701ED91FC91C1
:101B30000190F081E02DC7010995F3CF642F822F2A
:101B40000E94300DC801DF91CF911F910F91FF903E
:101B5000EF90DF90CF900895CF93DF931F92CDB792
:101B6000DEB769832091E5022223D1F020918A0318
:101B7000203240F021E030E0FC013383228380E01A
:101B800090E015C080918B03E82FF0E0EB53FD4F00
:101B9000998190838F5F80938B0380938A0305C024
:101BA00061E0CE0101960E94300D81E090E00F903F
:101BB000DF91CF910895CF93DF93282F30E0F90183
:101BC000ED5DFC4F8491F901ED52FE4FD491F90186
:101BD000E154FE4FC491CC2391F081110E94CF0CAF
:101BE000EC2FF0E0EE0FFF1FEB54FE4FA591B491E8
:101BF000EC91ED2381E090E021F480E002C080E0F0
:101C000090E0DF91CF9108951F93CF93DF93282F1A
:101C100030E0F901ED5DFC4F8491F901ED52FE4F8A
:101C2000D491F901E154FE4FC491CC23C9F0162F91
:101C300081110E94CF0CEC2FF0E0EE0FFF1FE55555
:101C4000FE4FA591B4918FB7F894111105C09C91E6
:101C5000ED2FE095E92302C0EC91ED2BEC938FBFC3
:101C6000DF91CF911F910895CF93DF9390E0FC0116
:101C7000ED52FE4F2491FC01E154FE4F84918823E4
:101C800061F190E0880F991FFC01EF55FE4FC5915F
:101C9000D491FC01E555FE4FA591B491611109C0A5
:101CA0009FB7F8948881209582238883EC912E2316
:101CB0000BC0623061F49FB7F8943881822F809511
:101CC00083238883EC912E2B2C939FBF06C08FB764
:101CD000F894E8812E2B28838FBFDF91CF91089550
:101CE0008E3008F08E508770806480937C008091E5
:101CF0007A00806480937A0080917A0086FDFCCF20
:101D0000809178002091790090E0922B08958F9235
:101D10009F92AF92BF92CF92DF92EF92FF926B01B0
:101D20007C010E94F80C4B015C01C114D104E10458
:101D3000F104F1F00E94F80CDC01CB01881999093B
:101D4000AA09BB09883E9340A105B10570F321E0C3
:101D5000C21AD108E108F10888EE880E83E0981EC7
:101D6000A11CB11CC114D104E104F10419F7DDCFA9
:101D7000FF90EF90DF90CF90BF90AF909F908F90AB
:101D800008952FB7F8946091ED017091EE01809164
:101D9000EF019091F0012FBF08951F920F920FB69F
:101DA0000F9211242F933F938F939F93AF93BF93E1
:101DB0008091ED019091EE01A091EF01B091F001C1
:101DC0003091EC0123E0230F2D3720F40196A11D63
:101DD000B11D05C026E8230F0296A11DB11D209359
:101DE000EC018093ED019093EE01A093EF01B0938D
:101DF000F0018091F1019091F201A091F301B09175
:101E0000F4010196A11DB11D8093F1019093F2019F
:101E1000A093F301B093F401BF91AF919F918F9183
:101E20003F912F910F900FBE0F901F9018951F920A
:101E30000F920FB60F9211242F933F934F935F93FE
:101E40006F937F938F939F93AF93BF93EF93FF9382
:101E5000E0910201F09103010995FF91EF91BF918B
:101E6000AF919F918F917F916F915F914F913F9132
:101E70002F910F900FBE0F901F9018951F920F92E9
:101E80000FB60F9211242F933F934F935F936F934D
:101E90007F938F939F93AF93BF93EF93FF93E091C3
:101EA0000001F09101010995FF91EF91BF91AF9170
:101EB0009F918F917F916F915F914F913F912F9162
:101EC0000F900FBE0F901F901895CF93682F082E7C
:101ED000000C770B77FF03C0719561957109C62FD0
:101EE000CF7187FFC06288E60E94682067E08EE8B5
:101EF00093E00E94AC0D6C2F8EE893E00E94AC0D35
:101F0000CF910C9472206093F9017093FA01809341
:101F1000FB019093FC01DC01CB01845D9E4FAF4F30
:101F2000BF4F8093F5019093F601A093F701B09312
:101F3000F80182E090E09093EB018093EA010E9427
:101F4000C10E6093E6017093E7018093E8019093DE
:101F5000E9010895CF92DF92EF92FF920F931F93C2
:101F60000E94C10EC090E601D090E701E090E80128
:101F7000F090E9018B019C010C191D092E093F0904
:101F80008091F9019091FA01A091FB01B091FC01BF
:101F9000083E134021053105D0F00196A11DB11D69
:101FA0008093F9019093FA01A093FB01B093FC0197
:101FB000B701A60148515C4F6F4F7F4F4093E60138
:101FC0005093E7016093E8017093E901C9CF409114
:101FD000F5015091F6016091F7017091F8018417B5
:101FE0009507A607B70788F1E091FD01F091FE0182
:101FF000309759F10995611571058105910519F021
:102000000E94830F22C08091F9019091FA01A09162
:10201000FB01B091FC01845D9E4FAF4FBF4F809399
:10202000F5019093F601A093F701B093F80181E0D8
:1020300090E02091EA013091EB01232B11F480E034
:1020400090E09093EB018093EA016091F901709127
:10205000FA018091FB019091FC011F910F91FF907B
:10206000EF90DF90CF9008956F927F928F929F9222
:10207000AF92BF92CF92DF92EF92FF920F931F9396
:10208000CF93DF93EC01EE81AE2FB0E020E833E395
:1020900041EE51E00E9491324B015C0122EB37E0AE
:1020A000FD0104E610E080E9E82EFF24F394C90165
:1020B000825B97408E179F07DCF4C90183709927D4
:1020C000892B99F4C901B8010E94F02B892B31F4B6
:1020D000C901B7010E94F02B892B39F480E8880EE2
:1020E00081E5981E81E0A81EB11C2F5F3F4FDFCF16
:1020F0006D80712CEE54F84FCF0164E670E00E94C1
:10210000F02B7C01CF0160E971E00E94F02B6C01A3
:1021100001E010E0E370FF27061517052CF50230EB
:10212000110581F4309771F4E114F10419F4C1142C
:10213000D10441F480E8880E8BE3981E86E2A81E45
:10214000B11C0FC0D801AB5EBE4FAC91B0E020E82F
:1021500031E541E050E00E949132860E971EA81EA4
:10216000B91E0F5F1F4FD8CF49812A8130E0A0E10F
:10217000BEE00E94C6326B017C01242F30E0ACE34C
:10218000B0E00E94C632DC01CB018C0D9D1DAE1D5E
:10219000BF1D28816C017D01C20ED11CE11CF11C08
:1021A000AC81B0E0119720E831E541E050E00E94B9
:1021B0009C32DC01CB018C0D9D1DAE1DBF1DBC01F1
:1021C000CD01680D791D8A1D9B1DDF91CF911F9157
:1021D0000F91FF90EF90DF90CF90BF90AF909F90C6
:1021E0008F907F906F9008951F93CF93DF93CDB71B
:1021F000DEB727970FB6F894DEBF0FBECDBF88E6D7
:102200000E94682060E08EE893E00E94AC0D0E947E
:102210007220882319F010929A0183C081E0809384
:102220009A0167E070E088E690E00E94CF208091FC
:102230008C0390E020918D03821B910907970CF489
:1022400070C08EE893E00E94680D182F86958695E1
:1022500086958E70982F990F990F890F912F9F70E7
:10226000890F89838EE893E00E94680D282F2295BC
:102270002F70982F9F708AE0289F900D11249A83C9
:102280008EE893E00E94680D982F282F26952695BA
:1022900026952670822F880F880F280F9F70920F27
:1022A0009B838EE893E00E94680D282F22952F7063
:1022B000982F9F708AE0289F900D11249C838EE8B0
:1022C00093E00E94680D282F22952F70982F9F7001
:1022D0008AE0289F900D11249D838EE893E00E9450
:1022E000680D282F22952F70982F9F708AE0289FC5
:1022F000900D11249E838EE893E00E94680D982F24
:102300009F70925E282F22952F708AE0289F900D53
:1023100011249F8317FD05C0CE0101960E94341041
:1023200003C060E070E0CB0127960FB6F894DEBFE3
:102330000FBECDBFDF91CF911F9108956F927F9215
:102340008F929F92AF92BF92CF92DF92EF92FF92C5
:102350000F931F93CF93DF93EA012CE3C22ED12C6E
:10236000E12CF12CA70196010E94A4326883CA01D6
:10237000B901A70196010E94A4326983CA01B9017B
:1023800028E130E040E050E00E94A43269017A0187
:102390006A83CA01B9016C5F7F4F8F4F9F4F27E05F
:1023A00030E040E050E00E94A4326F5F6B83812CEC
:1023B000912C540140E034E6632E712C00E911E0C9
:1023C000242F30E02E54384FF901E370FF27309767
:1023D00089F4C901B3010E94F02B892B31F4C901A2
:1023E000B8010E94F02B892B29F48EE691E0A0E041
:1023F000B0E004C08DE691E0A0E0B0E0880E991E48
:10240000AA1EBB1ED501C401AA27BB27C816D90620
:10241000EA06FB0610F04F5FD3CF4E83309799F456
:10242000C90164E670E00E94F02B892B39F4C901E0
:1024300060E971E00E94F02B892B29F48EE691E08F
:10244000A0E0B0E004C08DE691E0A0E0B0E0881A22
:10245000990AAA0ABB0AC818D908EA08FB08C901E0
:1024600064E670E00E94F02B8C01C90160E971E024
:102470000E94F02BA6E1B1E020E0213041F430973A
:1024800051F40115110529F4009729F402C04C916B
:1024900003C04DE101C04CE150E060E070E0C416C3
:1024A000D506E606F70640F0C41AD50AE60AF70A8A
:1024B0002F5F11962C3009F72F5F2D83C394CC82A8
:1024C000DF91CF911F910F91FF90EF90DF90CF9010
:1024D000BF90AF909F908F907F906F900895CF9214
:1024E000DF92EF92FF92C090E201D090E301E09082
:1024F000E401F090E5016C157D058E059F0571F0F6
:102500006B017C0146EE52E00E949E11C092E201F6
:10251000D092E301E092E401F092E501FF90EF90A8
:10252000DF90CF900895CF92DF92EF92FF92CF93FA
:102530006B017C019B01AC016EEF7FEF81E090E0CD
:102540000E94C02B9B01AC0160E074E284EF90E03C
:102550000E94A432C0E0EC2FF0E0EE0FFF1FE35921
:10256000FE4F80819181CF5F82179307A0F3A7016F
:102570009601220F331F441F551FEC2FF0E0EE0F82
:10258000FF1FE359FE4FA081B1810E9491329B0150
:10259000AC0160E074E284EF90E00E94A4323093DA
:1025A00087002093860080918100C770887FC82BA8
:1025B000C093810081E0CF91FF90EF90DF90CF90AA
:1025C0000895682F8EE893E00C94AC0DCF93DF93C1
:1025D0001F92CDB7DEB7FC018185806269830E94BE
:1025E000682089E00E94E1126981862F0E94E11231
:1025F0000E9472208111FCCF0F90DF91CF9108953E
:10260000CF93DF931F92CDB7DEB7FC018185806247
:1026100069830E94682083E10E94E1126981862F0C
:102620000E94E1120E9472208111FCCF0F90DF9175
:10263000CF910895FF920F931F93CF93DF938C0157
:10264000C62FF42EFC0186858130B1F56585C4FD69
:102650006061C5FD6860C6FD6460C7FD6260D62F1D
:10266000FF2011F0D06A01C0D0626D2FC8010E9416
:1026700000136D2F6F7DC8010E940013F80165855E
:10268000C0FD6061C1FD6860C2FD6460C3FD626041
:10269000C62FFF2011F0C06A01C0C0626C2FC801B4
:1026A0000E9400136C2F6F7DC801DF91CF911F91A5
:1026B0000F91FF900C940013607F70E07595679503
:1026C000442311F0666001C06460F801858183FDD8
:1026D00002C0D0E001C0D0E8D62B6D2FC8010E9407
:1026E000E6126D2F6B7FC8010E94E612CF70CC0FEF
:1026F000CC0FCC0FFF2011F0C66001C0C460F80100
:10270000858183FD02C060E001C060E8C62B6C2FAC
:10271000C8010E94E6126C2F6B7FC801DF91CF9138
:102720001F910F91FF900C94E612FC012385222348
:1027300019F041E00E941A1381E090E008951F9281
:102740000F920FB60F9211242F933F934F935F93E5
:102750006F937F938F939F93AF93BF93EF93FF9369
:102760008091B900887F803609F49CC068F5883272
:1027700009F45BC090F4803109F454C038F4882324
:1027800009F4F6C0883009F44DC0F6C0883109F468
:102790004CC0803209F45DC0EFC0803409F468C0D9
:1027A00048F4803309F455C0883309F0E5C08093BC
:1027B000C202D8C0803509F44FC0883509F45DC025
:1027C000883409F0D9C0D6C0883909F4C7C0A8F444
:1027D000883709F467C038F4883609F463C0803755
:1027E00009F460C0C9C0883809F4B8C0803909F458
:1027F0005FC0803809F0C0C05BC0803B09F486C070
:1028000038F4803A09F466C0883A09F47FC0B4C04D
:10281000803C09F4A7C0883C09F4A4C0883B09F4B3
:102820008AC0AAC080919F0210C09091C10280917D
:10283000C002981770F5E091C10281E08E0F80937D
:10284000C102F0E0E056FD4F80818093BB0085EC33
:1028500086C08093C2028EC0E091C10281E08E0FDB
:102860008093C1028091BB00F0E0E056FD4F808371
:102870009091C1028091C0026EC0E091C10281E0DE
:102880008E0F8093C1028091BB00F0E0E056FD4FB7
:1028900080838091C30281116DC081E080939E028C
:1028A00084EA61C083E08093C4021092E101CFCF3B
:1028B0008091E101803208F051C0E091E10181E0B6
:1028C0008E0F8093E1018091BB00F0E0EF53FE4F4B
:1028D0008083BDCF85EC8093BC001092C4028091B0
:1028E000E101803230F4E091E101F0E0EF53FE4F7E
:1028F00010826091E10170E0E091BF01F091C001B0
:1029000081EC91E009951092E10136C084E080935A
:10291000C4021092BE011092BD01E091BB01F09182
:10292000BC0109958091BD01811105C081E08093B2
:10293000BD0110929B01E091BE0181E08E0F80935A
:10294000BE01F0E0E556FE4F80818093BB00909180
:10295000BE018091BD01981708F479CF85E8809376
:10296000BC000AC085EC8093BC001092C40204C075
:102970001092C2020E94260DFF91EF91BF91AF917C
:102980009F918F917F916F915F914F913F912F9187
:102990000F900FBE0F901F9018951092C40281E007
:1029A0008093C30210929E0261E082E10E94040EB5
:1029B00061E083E10E94040EE9EBF0E080818E7F0C
:1029C000808380818D7F808388E48093B80085E454
:1029D0008093BC0008952F923F924F925F926F9226
:1029E0007F928F929F92AF92BF92CF92DF92EF929F
:1029F000FF920F931F93CF93DF9300D000D0CDB7FA
:102A0000DEB71C012A013B0148015901DC011C967B
:102A10008D919D910D90BC91A02D89839A83AB835C
:102A2000BC83A9019801BC01CD010E940A2C6B0155
:102A30007C0120E030E0A9010E94372E181624F412
:102A4000F7FAF094F7F8F094F10120813181428196
:102A50005381C701B6010E947C2C0E94F62C6B01A9
:102A60007C0129813A814B815C81C501B4010E94BE
:102A7000372E18167CF5D10118962D913D914D9168
:102A80005C911B97C701B6010E94B22EA30192016F
:102A90000E940B2CF10160877187828793872481C4
:102AA000358146815781C701B6010E94B22E20E0D0
:102AB00030E040E85FE30E940B2CD10114966D9347
:102AC0007D938D939C931797F10184869586A686B6
:102AD000B78625C0A3019201C701B6010E94B22E9C
:102AE0009B01AC01D10118966D917D918D919C91C6
:102AF0001B970E940B2CF101608771878287938757
:102B0000A701960164817581868197810E940B2CB3
:102B1000D10114966D937D938D939C9317970F908D
:102B20000F900F900F90DF91CF911F910F91FF9019
:102B3000EF90DF90CF90BF90AF909F908F907F905D
:102B40006F905F904F903F902F900895CF92DF92BB
:102B5000EF92FF92CF93DF93EC016A017B0161E07A
:102B600070E00E94F70264E070E089819A810E941F
:102B7000F702C0924A04D0924B04E0924C04F092C7
:102B80004D04888190E02F8D211103C028E130E0B1
:102B900002C020E230E0822B932B0E94C604E98120
:102BA000FA818081886090E0DF91CF91FF90EF9073
:102BB000DF90CF900C94C604CF92DF92EF92FF92F9
:102BC0000F931F93CF93DF936C017A018B01C0E0C9
:102BD000D0E0CE15DF0589F0D8016D918D01D601C9
:102BE000ED91FC910190F081E02DC6010995892BB2
:102BF00011F47E0102C02196ECCFC701DF91CF9185
:102C00001F910F91FF90EF90DF90CF9008950E9459
:102C10007F2F8DEE92E00E949C2121E0892B09F408
:102C200020E0822F08951F920F920FB60F92112469
:102C30002F933F934F935F936F937F938F939F93C4
:102C4000AF93BF93EF93FF938DEE92E00E94C22269
:102C5000FF91EF91BF91AF919F918F917F916F9174
:102C60005F914F913F912F910F900FBE0F901F904A
:102C700018951F920F920FB60F9211242F938F93D6
:102C80009F93EF93FF93E091FD02F091FE0280810C
:102C9000E0910303F091040382FD12C090818091C2
:102CA00006038F5F8F7320910703821751F0E09125
:102CB0000603F0E0E351FD4F958F8093060301C0BA
:102CC0008081FF91EF919F918F912F910F900FBE77
:102CD0000F901F901895CF92DF92EF92FF920F9373
:102CE0001F93CF93DF93CDB7DEB761970FB6F894FC
:102CF000DEBF0FBECDBF182F0E94FE019C01112325
:102D000029F00E946B2110926F023AC090916F02DD
:102D100090FF05C0A9E1B4E0EBE1F4E004C0A8E154
:102D2000B4E0EAE1F4E02130310521F02230310550
:102D3000A9F0BDC0923018F0943010F507C08C9106
:102D40008F5F86300CF08BEF8C931AC0808181509E
:102D5000863F14F0808314C0108212C09F5F90934E
:102D60006F02943068F08EEF93E00E94FC0586E6D7
:102D700097E190930501809304011092670297C038
:102D800080916F0280FF0BC00DE711E049E1C42E76
:102D900044E0D42E5BE1E52E54E0F52E0AC00BE7AB
:102DA00011E028E1C22E24E0D22E3AE1E32E34E0F5
:102DB000F32E823090F1843008F079C00E946B21AC
:102DC00065E572E08FEF91E00E9455328FEF91E060
:102DD0000E942C2161E080E00E942E21F701F0800A
:102DE000CF2C0F2C000CDD0867E472E08FEF91E030
:102DF0000E945532DF92FF921F930F938FEF91E065
:102E00009F938F931F9281E18F938E010F5F1F4FCE
:102E10001F930F930E94842F42C00E946B2162E790
:102E200072E08FEF91E00E9455328FEF91E00E94A7
:102E30002C2161E080E00E942E21F6012081822F6A
:102E4000022E000C990B97FF03C091958195910973
:102E5000D82EC92E27FD05C091E8E92E91E0F92E64
:102E600004C08FE7E82E81E0F82E62E672E08FEF73
:102E700091E00E945532CF92DF92FF92EF921F9322
:102E80000F938FEF91E09F938F931F9281E18F9328
:102E90008E010F5F1F4F1F930F930E94842FC80155
:102EA0000E942C210FB6F894DEBF0FBECDBF6196F5
:102EB0000FB6F894DEBF0FBECDBFDF91CF911F914B
:102EC0000F91FF90EF90DF90CF900895CF93C82F90
:102ED0000E94FE01CC2361F083E00E94B2210E9497
:102EE0006B2187EE93E090937702809376021FC068
:102EF000009709F443C281309105B1F480917402C6
:102F000090917502019690937502809374022091BE
:102F10007202309173022817390708F0DFC010924F
:102F2000750210927402DAC0029709F0D7C0E091DE
:102F30007602F0917702E730F10508F066C0E05CB8
:102F4000FF4F0C94042C80917402809300040CC0F9
:102F5000E0917402F0917502E65BFE4F808190E093
:102F600090930204809301048EEF93E00E94FC058D
:102F70004CC08091740290917502892B09F045C074
:102F80008DE298E0909305018093040181E0CF9158
:102F90000C942D0881E02091740230917502232B4E
:102FA00009F080E080930304DFCF80917402909158
:102FB0007502892B51F584E296E090930501809388
:102FC000040181E0CF910C942406809174029091C9
:102FD0007502892BD1F48BE696E1909305018093DD
:102FE000040181E0CF910C946B1680917402909152
:102FF0007502892B19F410926702C0C187EE93E025
:103000009093770280937602B9C180917602909175
:10301000770201968730910528F490937702809388
:10302000760204C01092770210927602E091760246
:10303000F0917702E730F10508F048C0E95BFF4FF7
:103040000C94042C8091000490E09093750280937E
:10305000740236C06091010470910204EAE4F1E068
:1030600050E040E080E090E0219130E0621773078B
:1030700011F4582F492F01968B309105A9F75093E1
:103080007402409375028AE090E01CC081E090E0F9
:10309000909373028093720290910304892790E0C9
:1030A000909375028093740211C081E090E0909338
:1030B00075028093740206C0109275021092740219
:1030C00081E090E090937302809372028091740289
:1030D0009091750290937102809370020E946B210F
:1030E000E0917602F0917702E730F10508F046C1F1
:1030F000E25BFF4F0C94042C63E073E08FEF91E0F0
:103100000E9455328FEF91E00E942C2161E080E017
:103110000E942E21209174023091750280917002DC
:10312000909171022817390711F080E201C08BE2FB
:103130000E941B228091740290917502009731F0D9
:10314000019709F01BC161EF72E00FC16CEF72E0F3
:103150000CC162EE72E08FEF91E00E9455328FEF6A
:1031600091E00E942C2161E080E00E942E212091BC
:10317000740230917502809170029091710228174B
:10318000390711F080E201C08BE20E941B22E0911E
:103190007402F0917502E65BFE4F608170E080E0A2
:1031A00090E04AE00E9426226CED72E0DEC061ED04
:1031B00072E08FEF91E00E9455328FEF91E00E9414
:1031C0002C2161E080E00E942E2120917402309138
:1031D000750280917002909171022817390711F0E1
:1031E00080E201C08BE20E941B22809174029091C8
:1031F0007502009731F0019709F0C0C06AEC72E0E7
:10320000B4C06DEC72E0B1C06EEB72E08FEF91E094
:103210000E9455328FEF91E00E942C2161E080E006
:103220000E942E21209174023091750280917002CB
:10323000909171022817390711F080E201C08BE2EA
:103240000E941B228091740290917502009731F0C8
:10325000019709F093C067EB72E087C06AEB72E0F8
:1032600084C068EA72E08FEF91E00E9455328FEFE0
:1032700091E00E942C2161E080E00E942E212091AB
:10328000740230917502809170029091710228173A
:10329000390711F080E201C08BE20E941B2280916D
:1032A000740290917502009731F0019709F066C0A1
:1032B00061EA72E05AC064EA72E057C064E972E001
:1032C0008FEF91E00E9455328FEF91E00E942C2108
:1032D00061E080E00E942E212091740230917502FD
:1032E00080917002909171022817390711F080E2E5
:1032F00001C08BE20E941B228091740290917502A2
:10330000009729F00197D1F56DE872E02EC060E9D1
:1033100072E02BC061E872E08FEF91E00E945532BD
:103320008FEF91E00E942C2161E080E00E942E212D
:103330002091740230917502809170029091710217
:103340002817390711F080E201C08BE20E941B228E
:103350008091740290917502009729F0019771F4A1
:103360006AE772E002C06DE772E08FEF91E00E94C1
:1033700055328FEF91E0CF910C942C21CF9108958D
:103380000F931F93CF93DF93EC018B899C89AD89B9
:10339000BE89892B8A2B8B2B89F00E94C10E0B8949
:1033A0001C892D893E89DC01CB01801B910BA20B6E
:1033B000B30B85399141A105B105D8F48F89988D5A
:1033C000A98DBA8D892B8A2B8B2B09F448C00E94BA
:1033D000C10E0F89188D298D3A8DDC01CB01801B20
:1033E000910BA20BB30B893B9B40A105B10580F467
:1033F00036C01B8A1C8A1D8A1E8A8881806190E0E3
:103400000E94C60461E070E0CE010E94F903D6CFAD
:103410001F8A188E198E1A8E60E070E0CE010E940D
:10342000F90380916102882329F08881886090E007
:103430000E94C60489819A810E94DE03E981FA8193
:10344000811104C085859685029749F464E070E097
:10345000CF01DF91CF911F910F910C94F702DF9173
:10346000CF911F910F9108952F923F924F925F92AB
:103470006F927F928F929F92AF92BF92CF92DF9284
:10348000EF92FF920F931F93CF93DF93CDB7DEB7E9
:103490002F970FB6F894DEBF0FBECDBFFC0183851A
:1034A0009485019721F485859685059749F51786BA
:1034B000108A118A128A16A617A610AA11AA12A695
:1034C00013A614A615A616A217A210A611A62F962B
:1034D0000FB6F894DEBF0FBECDBFDF91CF911F9125
:1034E0000F91FF90EF90DF90CF90BF90AF909F90A3
:1034F0008F907F906F905F904F903F902F900895A6
:103500008081813021F4409018044D8203C0509096
:1035100019045D82FF87EE870E94C10E6E837F8350
:1035200088879987212C312CCC24CA94DC2C7601F5
:1035300019821A821B821C8200E010E0812C912CDF
:1035400054010E94C10EAB01BC01DB01CA014E80D7
:103550005F806884798484199509A609B7098397DF
:10356000A105B10508F087C0EE85FF8581854C87F0
:103570005D876A877B870E94700E2C01990F660811
:1035800077084C855D856A857B85FFEFCF16DF0662
:10359000EF06FF0641F181E021E0C21622E0D206EB
:1035A000E104F1040CF480E091E031E0431632E0F4
:1035B0005306610471040CF490E08917A1F0DB015B
:1035C000CA01C980DA80EB80FC808C199D09AE09A4
:1035D000BF090697A105B10530F00F5F1F4F498362
:1035E0005A836B837C830130110508F441C003309A
:1035F000110520F00330110591F03AC0C301B2016A
:103600007250810991099B01AC010E94C02B860E6A
:10361000971EA81EB91E2FEF221A320A29C0910147
:1036200040E050E0C501B4010E94A432CA01B901D2
:103630000E945E2D0E94252F0E942F2D9B01AC0120
:10364000AAE6B0E00E949132693833E17307810540
:103650009105A8F04D81E4E64E02600111240D2C85
:10366000000CEE08FF08C60ED71EE81EF91E09C0A2
:103670007301620166CFC12CD12C760102C06B01AF
:103680007C010E94C10EEE85FF85038D148D258D72
:10369000368D2B013C01401A510A620A730A49EE29
:1036A000441643E054066104710420F0638F748F64
:1036B000858F968F2091010430910204A8EEB3E02B
:1036C0000E94C632EE85FF8520A131A1233031054D
:1036D00029F021E030E040E050E004C022E030E09A
:1036E00040E050E00E94A432DA01C90188519C4FA9
:1036F000AF4FBF4FEE85FF858C159D05AE05BF050D
:1037000008F043C087859089A189B289892B8A2BCB
:103710008B2B49F40E94C10EEE85FF856787708B65
:10372000818B928B36C00E94C10EEE85FF85078586
:10373000108921893289DC01CB01801B910BA20BFE
:10374000B30B813A9F40A105B10518F1EE85FF85C5
:103750008081886690E02F960FB6F894DEBF0FBE8A
:10376000CDBFDF91CF911F910F91FF90EF90DF9030
:10377000CF90BF90AF909F908F907F906F905F9011
:103780004F903F902F900C945F051786108A118AF6
:10379000128A0E94C10E0E945E2D4B015C01C7017E
:1037A000B6010E945E2DAB01BC01950184018E859E
:1037B0009F8582960E94EB14EE85FF858081880F9D
:1037C000880F880F61E088500E942E21EE85FF85CA
:1037D0008081805C0E941B228AE30E941B22EE856E
:1037E000FF85C6A0D7A0E0A4F1A420E030E0A901A5
:1037F000C701B6010E94372E18165CF42DEB37E393
:1038000046E855E3C701B6010E94772C87FF0BC03D
:1038100015C02DEB37E346E855EBC701B6010E9412
:10382000372E18165CF0A7019601EE85FF8562A57C
:1038300073A584A595A50E947C2C03C060E070E070
:10384000CB010E942F2D6B017C012AE030E040E08B
:1038500050E00E94A432F8EECF16F3E0DF06E10458
:10386000F104B8F462E173E08FEF91E02A873B87BF
:103870004C875D870E945532AAE0B0E02A853B85DF
:103880004C855D850E9491329F938F937F936F93B8
:1038900031C0CA01B90124E630E040E050E00E94A6
:1038A000A432CB016AE070E00E94F02B21E030E00E
:1038B000059714F420E030E05B01A20EB31EC701AF
:1038C000B60128EE33E040E050E00E94A4328901C6
:1038D0008AE0A816B10421F40F5F1F4FA12CB12C70
:1038E00069E173E08FEF91E00E945532BF92AF9291
:1038F0001F930F938FEF91E09F938F9388E792E050
:103900009F938F930E94B42F0FB6F894DEBF0FBE23
:10391000CDBF88E792E02F960FB6F894DEBF0FBEBA
:10392000CDBFDF91CF911F910F91FF90EF90DF906E
:10393000CF90BF90AF909F908F907F906F905F904F
:103940004F903F902F900C942C21EF92FF920F9369
:103950001F93CF93DF93EC018B0180916102811162
:10396000B3C18D859E858530910509F4FEC1681728
:10397000790709F40DC280910004882321F0813079
:1039800009F49DC005C27E876D876530710540F4DE
:103990006330710508F047C06130710530F4F8C13B
:1039A0006530710509F480C1F3C160E070E0CE01BB
:1039B0000E94F9030130110549F089819A810E9422
:1039C000DE03811106C064E070E005C061E070E0D4
:1039D00002C063E070E0CE010E94F702888190E0AF
:1039E0000130110519F028E030E002C020E030E09D
:1039F000822B932B0E94C6041B8A1C8A1D8A1E8A56
:103A000089819A81FC0120A131A12330310509F07F
:103A1000BFC164E070E0DF91CF911F910F91FF90E3
:103A2000EF900C94F702CE010E94DE038111B0C129
:103A300089819A810E94DE038823E1F00E94C10EF1
:103A40006B8B7C8B8D8B9E8B63E070E089819A8180
:103A50000E94F70263E070E0CE010E94F7028881C5
:103A6000886190E0DF91CF911F910F91FF90EF90CF
:103A70000C94C60489819A81FC0120A131A12430D3
:103A8000310521F463E070E00E94F70264E070E029
:103A9000CE010E94F7021B8A1C8A1D8A1E8A888119
:103AA000806190E00E94C60461E070E0CE01DF9189
:103AB000CF911F910F91FF90EF900C94F903E98142
:103AC000FA81E584F6846530710558F46330710538
:103AD00008F0CAC06130710549F06230710591F19A
:103AE000F0C06530710509F4DFC0EBC060E070E044
:103AF000CE010E94F90361E070E0CE010E94F7025E
:103B000010924A0410924B0410924C0410924D04EF
:103B1000F2E0EF16F10469F464E070E089819A81C3
:103B20000E94F702E981FA818081886090E00E941A
:103B3000C604888190E00E94C6041F8EE981FA8144
:103B4000178EBFC060E070E0CE010E94F9038D8542
:103B50009E850397029708F044C082E0E816F104BE
:103B600091F5E981FA81878D81110BC061E070E0E8
:103B7000CE010E94F70264E070E089819A810E9480
:103B8000F702E981FA81808190E0278D211103C03D
:103B900028E030E002C020E230E0822B932B0E942C
:103BA000C6048881806290E00E94C60481E08F8F05
:103BB0000E94C10E60934A0470934B0480934C049E
:103BC00090934D047EC08881886090E00E94C60476
:103BD00010924A0410924B0410924C0410924D041F
:103BE00070C0E1E0EE16F10491F464E070E0CE0103
:103BF0000E94F7021F8EE981FA81178E10924A0403
:103C000010924B0410924C0410924D041BC0E89487
:103C1000E1F88881EF28E1F490915F029813B8C031
:103C20009F8D911115C064E070E0CE010E94F702F3
:103C30000E94C10E60934A0470934B0480934C041D
:103C400090934D048881886090E00E94C60439C03A
:103C500090E02F8D211103C028E130E002C020E266
:103C600030E0822B932BF1CFCE010E94DE03811135
:103C700028C088A199A1049721F08881886E90E0DE
:103C800018C010924A0410924B0410924C041092E7
:103C90004D048881806190E00E94C60461E070E07C
:103CA000CE010E94F9030DC08881886290E0806493
:103CB0009160DF91CF911F910F91FF90EF900C9445
:103CC0005F051E870D8764C06130710509F05CC017
:103CD000888190E00E94C6041E870D878F89988D89
:103CE000A98DBA8D892B8A2B8B2BA9F01F8A188E50
:103CF000198E1A8E60E070E0CE010E94F90389816E
:103D00009A810E94DE03E981FA81811128C08585AC
:103D10009685029721F1809161028823C9F10230D2
:103D20001105B1F58D859E85019729F488818093D1
:103D30005F021E870D872881822F886090E0309176
:103D40000004313039F430915F02321303C024E0B3
:103D500030E002C020E030E0822B932B83CE64E081
:103D600070E0CF010E94F702D6CF6130710561F497
:103D70001E861D86E981FA8185859685019709F061
:103D8000ADCF10926002AACF0230110509F4A6CF80
:103D9000DF91CF911F910F91FF90EF9008952F9297
:103DA0003F924F925F926F927F928F929F92AF92CB
:103DB000BF92CF92DF92EF92FF920F931F93CF9318
:103DC000DF93CDB7DEB728970FB6F894DEBF0FBEEE
:103DD000CDBF6B017C0120E831E541E050E00E945D
:103DE000A4322D833E834F83588781E1282E81E0C2
:103DF000382E810105501109C701B6010E946F12CA
:103E00008091EB02F10131979081981728F481E0BD
:103E1000D8012D913C9140C1891708F42FC151015F
:103E2000B3E0AB1AB108F50180813196843009F412
:103E30007CC09080C701B6010E946F12F501A0817D
:103E4000B0E020E83AE349E050E00E9491322B01D3
:103E50003C018091EA0221E030E040E050E0281B84
:103E6000310941095109DA01C9012D813E814F8192
:103E70005885280F391F4A1F5B1F60E871E581E0F4
:103E800090E00E94C02B640D751D861D971D20E8D3
:103E900031E541E050E00E94A43229013A01DA0103
:103EA000C901890D911DA11DB11D4C015D01CA0102
:103EB000B9016C5F7F4F8F4F9F4F27E030E040E0AC
:103EC00050E00E94A432A5019401261B370B480B39
:103ED000590B60E871E581E090E00E94C02B698396
:103EE0007A838B839C834B015C0190E8891A91E56E
:103EF000990A91E0A90AB108A301920160E871E56D
:103F000081E090E00E94C02B86169706A806B906AD
:103F100048F489809A80AB80BC80A9EE9A0EA7E015
:103F2000AA1EB11CF10120819AC0B080C701B60160
:103F30000E946F128091EA022D813E814F81588547
:103F4000281B31094109510960E871E581E090E0E1
:103F50000E94C02B705D854D9F4F20E831E541E008
:103F600050E00E94A43229013A01C701B6010E9423
:103F70006F128091EA022D813E814F815885281B66
:103F800031094109510960E871E581E090E00E9442
:103F9000C02B705D854D9F4F0E946F128091EA0289
:103FA00021E030E040E050E0281B3109410951098F
:103FB000240D351D461D571D60E871E581E090E038
:103FC0000E94C02B605871458140910920E831E57D
:103FD00041E050E00E94A43229013A01CA01B9012E
:103FE0006C5F7F4F8F4F9F4F27E030E040E050E005
:103FF0000E94A432A3019201261B370B480B590BD8
:104000002B0D311D411D511D60E871E581E090E0EF
:104010000E94C02B69837A838B839C834B015C0154
:1040200030E8831A31E5930A31E0A30AB108A3010D
:10403000920160E871E581E090E00E94C02B681574
:1040400079058A059B0548F489809A80AB80BC80FD
:104050004CE8941A4AE0A40AB108D1012C9130E04E
:10406000A0E1BEE00E94C632860E971EA81EB91EB1
:10407000C814D904EA04FB0408F0C9CEB6E02B1A30
:104080003108E5E02E16E1E03E0609F0B2CE81E00F
:1040900020910C0130910D01232B09F080E028962E
:1040A0000FB6F894DEBF0FBECDBFDF91CF911F9149
:1040B0000F91FF90EF90DF90CF90BF90AF909F90C7
:1040C0008F907F906F905F904F903F902F900895CA
:1040D00091E09093E5028093490410928B03109233
:1040E0008A03089520918A0390914904213208F0AF
:1040F0004AC08091C4028111FCCF32E03093C402E7
:1041000031E03093C3023FEF3093C2021092C102FC
:104110002093C002A5ECB2E040EA52E0FA013E2F43
:10412000341B321718F43D913193F9CF10929F024E
:1041300020919F02990F922B90939F0290919E0243
:10414000913061F410929E0290919F029093BB0077
:104150009091BC0093FDF8CF95EC01C095EE909343
:10416000BC009091C4029230E1F39091C2029F3F53
:1041700079F08091C202803241F08091C202803396
:1041800031F084E005C081E003C082E001C083E03B
:1041900010928B0310928A031092E5020895909179
:1041A000C4029111FCCF613208F060E291E090937B
:1041B000C4029093C3022FEF2093C2021092C10257
:1041C000260F2093C00290939F0290919F02880F28
:1041D000892B80939F0280919E02813061F410921E
:1041E0009E0280919F028093BB008091BC0083FD62
:1041F000F8CF85EC01C085EE8093BC008091C402AD
:104200008130E1F38091C102861710F46091C10200
:10421000A0EAB2E02EE732E0F9018E2F821B86176A
:1042200018F48D918193F9CF10928D0360938C03D4
:10423000862F0895009769F0FC0101900020E9F7AE
:104240003197AF01481B590BBC018AE394E00C94F1
:10425000DC1580E090E008950C941A21CF93DF9351
:10426000CDB7DEB728970FB6F894DEBF0FBECDBF2F
:1042700020914504222331F128E0E2E2F1E0DE0161
:10428000119601900D922A95E1F72091410426178D
:1042900010F46FEF620FFE013196E60FF11DE60F8D
:1042A000F11D9081682F690F606840E08AE394E017
:1042B00028960FB6F894DEBF0FBECDBFDF91CF9129
:1042C0000C941A1328960FB6F894DEBF0FBECDBF1C
:1042D000DF91CF91089580914504882351F040E00B
:1042E00061E08AE394E00E941A138BE39FE1019757
:1042F000F1F70895FC01918D828D981761F0828D00
:10430000DF01A80FB11D5D968C91928D9F5F9F7309
:10431000928F90E008958FEF9FEF0895FC01918DAB
:10432000828D981731F0828DE80FF11D858D90E018
:1043300008958FEF9FEF0895FC01918D228D892FB5
:1043400090E0805C9F4F821B91098F73992708959D
:1043500080E090E0892B29F00E94091681110C94CD
:1043600000000895CF93DF9390914504992309F4B9
:1043700057C090914404992311F097E089279091B8
:1043800048049130C1F580FD03C020EC31E002C04B
:1043900020E831E0309347042093460481FF09C0B0
:1043A00020914604309147042F773093470420939F
:1043B000460482FF09C080914604909147049E7F85
:1043C0009093470480934604D0914604C0914704DB
:1043D0008091430480620E94682082E10E94E11281
:1043E0008D2F0E94E1128C2F0E94E1120E947220F8
:1043F0008111FCCF15C090913F04882311F0986083
:1044000001C0977F90933F0480913F04682F6870AC
:1044100083FD60E88AE394E0DF91CF910C94E6128B
:10442000DF91CF91089580E1EAE4F4E0DF011D928D
:104430008A95E9F70895E0913A04F0913B040190E0
:10444000F081E02D682F8AE394E009948F929F9287
:10445000AF92BF920F931F93CF93DF93CDB7DEB789
:10446000A1970FB6F894DEBF0FBECDBF19A24230A0
:1044700008F44AE08E010F5D1F4F842E912CA12C71
:10448000B12CA50194010E94A432E62FB901CA0102
:1044900001501109EA3014F4E05D01C0E95CD80173
:1044A000EC93232B242B252B61F7C8010E941A21A2
:1044B000A1960FB6F894DEBF0FBECDBFDF91CF91AE
:1044C0001F910F91BF90AF909F908F900895CF92C2
:1044D000DF92EF92FF920F931F93CF93E82F880FF5
:1044E000FF0BED5DFC4FE4918DEF8E0F823068F491
:1044F00068EE73E080E090E0CF911F910F91FF9004
:10450000EF90DF90CF900C949312E83091F5C0E0DB
:104510000FE110E0C12C94E2D92E94EFE92EF12C9A
:10452000CF5FEC2FF0E0EE0FFF1FE35AFE4F8081CC
:10453000918180179107A0F38C019C01A0EDB7E059
:104540000E94C6329B01AC01C701B6010E94A43291
:104550002F3F31054105510509F010F72093B300B5
:104560008091B100C770887FC82BC093B10081E0F3
:1045700001C080E0CF911F910F91FF90EF90DF90ED
:10458000CF900895FC01848DDF01A80FB11DA35ABF
:10459000BF4F2C91848D90E001968F739927848F63
:1045A000A689B7892C93A089B1898C9180648C935A
:1045B000938D848D981306C00288F389E02D808145
:1045C0008F7D80830895EF92FF920F931F93CF9377
:1045D000DF93EC0181E0888F9B8D8C8D981305C053
:1045E000E889F989808185FD24C0F62E0B8D10E0C5
:1045F0000F5F1F4F0F731127E02E8C8DE8120CC038
:104600000FB607FCFACFE889F989808185FFF5CFDD
:10461000CE010E94C222F1CF8B8DFE01E80FF11D69
:10462000E35AFF4FF0820B8FEA89FB898081806219
:1046300007C0EE89FF896083E889F98980818064F9
:10464000808381E090E0DF91CF911F910F91FF90E7
:10465000EF900895CF93DF93EC01888D8823C9F004
:10466000EA89FB89808185FD05C0A889B9898C917B
:1046700086FD0FC00FB607FCF5CF808185FFF2CF16
:10468000A889B9898C9185FFEDCFCE010E94C22205
:10469000E7CFDF91CF910895CF93DF93CDB7DEB70A
:1046A00067970FB6F894DEBF0FBECDBF789484B580
:1046B000826084BD84B5816084BD85B5826085BD1E
:1046C00085B5816085BD80916E00816080936E00AC
:1046D000109281008091810082608093810080919E
:1046E000810081608093810080918000816080934F
:1046F00080008091B10084608093B1008091B0000F
:1047000081608093B00080917A00846080937A0009
:1047100080917A00826080937A0080917A00816033
:1047200080937A0080917A00806880937A0010925A
:10473000C10014BE9EE088E10FB6F894A89580935E
:1047400060000FBE90936000809180008C7F80930A
:10475000800080918100877E80618093810064EF7A
:1047600071E080E090E00E9493128091B0008C7F15
:1047700081608093B0008091B10088608093B10027
:1047800010E07EE3E72EF12C812CE4E29E2EE4EF94
:10479000AE2EB12C1F5FE12FF0E0EE0FFF1FE35AAA
:1047A000FE4F808191818E159F05A0F37C019C01B5
:1047B000A8EEB3E00E94C6329B01AC01C501B40172
:1047C0000E94A4322F3F31054105510509F010F731
:1047D0002093B3008091B1001770887F182B10933D
:1047E000B10081E08093480462E370E080E090E0F3
:1047F0000E94870E10928D0310928C0310928B03EF
:1048000010928A030E94CD14909148048091430431
:104810008062913069F50E94682080E00E94E11278
:104820008FE10E94E1120E947220882339F080916A
:104830004504823019F410924504EDC08091430480
:1048400080620E9468208CE00E94E1128FE10E9449
:10485000E1120E947220882321F080914504823069
:1048600051F38091430480620E94682081E032C04D
:104870000E94682080E00E94E1128FEF0E94E11206
:1048800080E00E94E11280E00E94E11280E00E943C
:10489000E11280E00E94E11280E00E94E11280E0DB
:1048A0000E94E11280E00E94E11280E00E94E11289
:1048B00080E00E94E1120E947220882329F08091FA
:1048C0004504823009F4B7CF8091430480620E948E
:1048D000682080E00E94E11280E00E94E1120E94C4
:1048E0007220882329F080914504823009F4A3CFF7
:1048F00080914504823019F481E0809345048091D1
:104900003E04886080933E0482E0809341041092CC
:104910004204809148048130E1F4109247041092DF
:10492000460413E068E38AE394E00E94001368E120
:104930008AE394E00E9400131150A1F768E28AE331
:1049400094E00E94001368E08AE394E00E94001360
:1049500028C06CE98AE394E00E94E61268E98AE3E1
:1049600094E00E94E6126CE98AE394E00E94E61269
:1049700068E98AE394E00E94E6126CE98AE394E035
:104980000E94E61268E98AE394E00E94E61264E974
:104990008AE394E00E94E61260E98AE394E00E94D0
:1049A000E61265E070E080E090E00E94870E609182
:1049B0003E04606240E08AE394E00E941A1365E0DE
:1049C00070E080E090E00E94870E60913E0460629B
:1049D00040E08AE394E00E941A1365E070E080E012
:1049E00090E00E94870E8CE080933F048091450404
:1049F000882331F040E06CE08AE394E00E941A13CF
:104A00000E946B2182E08093400440E066E08AE3EC
:104A100094E00E941A1387E00E94B2210E946B2149
:104A200060E080E00E942E216FE072E08FEF91E065
:104A30000E9455328FEF91E00E942C2161E081E0CD
:104A40000E942E216BE072E08FEF91E00E945532C0
:104A50008FEF91E00E942C2180E20E941B2265E0F2
:104A600072E08FEF91E00E9455328FEF91E00E944B
:104A70002C2180ED97E00E94E50161E081E00E9439
:104A80002E2161E072E08FEF91E00E9455328FEFAE
:104A900091E00E942C2180E20E941B2267EF71E0CE
:104AA0008FEF91E00E9455328FEF91E00E942C2110
:104AB00008E010E080E20E941B2201501109D1F7AA
:104AC00061E083E00E94340E60E083E00E94040E07
:104AD00060E082E00E94340E87EC91E09093010147
:104AE0008093000180916900836080936900E89A57
:104AF00061E08AE00E94340E61E089E00E94340E99
:104B000061E088E00E94340E61E087E00E94340E8C
:104B100060E081E10E94340E60E080E10E94340E8A
:104B200061E070E08AE993E00E94F70261E070E0E2
:104B30008CEC93E00E94F70260E070E08AE993E079
:104B40000E94F90360E070E08CEC93E00E94F903AE
:104B50000E94132210926202109263021092640269
:104B6000109265021092600283E690E090936902D1
:104B70008093680281E080935F0284EF90E19093DC
:104B8000FE018093FD018091F9019091FA01A091BD
:104B9000FB01B091FC018093F5019093F601A09385
:104BA000F701B093F8010E94AA0F80912C040E9493
:104BB000650F8AE00E946722811103C083E00E9492
:104BC000B22189E00E946722811103C084E00E9423
:104BD000B22180ED97E00E94E5010E946B210E94C6
:104BE000770481E10E94DB0D01E0019709F000E00C
:104BF00080E10E94DB0D11E0019709F010E0011146
:104C000002C01123F9F081E00E94B2210E946B21C1
:104C100067EE71E08FEF91E00E9455328FEF91E0E7
:104C20000E942C2161E080E00E942E21002319F0D7
:104C300081E40E941B22112319F082E40E941B22AE
:104C40000E942E0430E8832E31E5932EAA24A394EB
:104C5000B12C47E0442E512C612C712C3324339419
:104C600052E0252EA89580916702882339F0E091C3
:104C70000401F091050180E00995ACC280916602C3
:104C8000882331F088EA90E00E945F051092660266
:104C90008091620290916302A0916402B0916502DA
:104CA000892B8A2B8B2B81F581E10E94DB0D0197EB
:104CB00039F48091A5039091A603892B09F48DC244
:104CC00080E10E94DB0D019739F48091D703909128
:104CD000D803892B09F486C281E10E94DB0D892B60
:104CE00039F48091A5039091A603019709F47FC23E
:104CF00080E10E94DB0D892B39F48091D7039091DC
:104D0000D803019709F478C28091620290916302FE
:104D1000A0916402B0916502892B8A2B8B2BA1F0A4
:104D20000E94C10E00916202109163022091640200
:104D3000309165020C501E4F2F4F3F4F061717073B
:104D40002807390708F45DC28091A7039091A80352
:104D5000059731F08091D9039091DA03059711F40A
:104D600081E01AC08AE993E00E94DE03182F8CECE0
:104D700093E00E94DE0311110AC081110CC08091E2
:104D80006102811102C082E007C083E005C0882370
:104D900011F085E001C086E00E94B22190916E0280
:104DA00080916102992309F458C0811153C00E9477
:104DB00013221092600280910004813089F4809166
:104DC000BA039091BB03049719F430925F0208C0B4
:104DD0008091EC039091ED030497B9F720925F0264
:104DE00061E070E08AE993E00E94F70261E070E020
:104DF0008CEC93E00E94F7020E94C10E6093B10315
:104E00007093B2038093B3039093B4031092A803FA
:104E10001092A7031092AD031092AE031092AF034D
:104E20001092B0031092B9036093E3037093E4030C
:104E30008093E5039093E6031092DA031092D9036E
:104E40001092DF031092E0031092E1031092E2034C
:104E50001092EB03309261020EC0882351F0109241
:104E6000A8031092A7031092DA031092D9030E94AC
:104E700013221092610260E080E00E942E2188E6F9
:104E80000E94682060E08EE893E00E94AC0D0E94D2
:104E9000722061E070E088E690E00E94CF208EE80A
:104EA00093E00E94680D87FD4AC00E94DC050E94C5
:104EB0006F128091E80290E00C971CF421E4F22E2E
:104EC00002C090E5F92E0E94DC050E946F12E0906E
:104ED000E7020E94DC050E946F128091E80288239D
:104EE00039F0082F10E08D3028F00C50110902C065
:104EF0000CE010E06AE372E08FEF91E00E9455321F
:104F00001F92FF921F92EF921F930F938FEF91E0EA
:104F10009F938F931F9281E1E82EEF9201E010E0C2
:104F20000C0F1D1F1F930F930E94842FC8010E9416
:104F30002C210FB6F894DEBF0FBECDBF08C008E02D
:104F400010E080E20E941B2201501109D1F78091EC
:104F50006102882319F061E372E018C06EE272E02A
:104F60008FEF91E00E9455328FEF91E00E942C214B
:104F700080910004882329F0813031F460E272E0EE
:104F800005C067E272E002C06CE172E08FEF91E071
:104F90000E9455328FEF91E00E942C21C090560460
:104FA000D0905704E0905804F0905904C114D104F3
:104FB000E104F10471F00E94C10E970186010056D0
:104FC0001444224F3F4F061717072807390708F4E4
:104FD00021C18AE993E00E9499026C01BC018AE92F
:104FE00093E00E94A51C8CEC93E00E9499029F8B99
:104FF0008E8BBC018CEC93E00E94A51C80914A042E
:1050000090914B04A0914C04B0914D04892B8A2BB4
:105010008B2B61F10E94C10EAB01BC0180914A044F
:1050200090914B04A0914C04B0914D047A018B01F6
:10503000E81AF90A0A0B1B0B21EEE21623E9F20625
:105040000440110598F08091BA039091BB03049736
:1050500019F48AE993E008C08091EC039091ED0384
:10506000049721F48CEC93E00E94A6150E94C10ED7
:10507000E0906A02F0906B0200916C0210916D0258
:105080009B01AC012E193F09400B510B21363A4EC2
:105090004105510540F060936A0270936B02809362
:1050A0006C0290936D028AE993E00E94341A8CECB2
:1050B00093E00E94341A8AE993E00E94C0198CECB4
:1050C00093E00E94C0190E94FE019C01019729F4FF
:1050D00090916102932590936E02CA94CD28A9F411
:1050E0000E891F890130110581F42230310569F4E0
:1050F000309267021092A8031092A7031092DA036D
:105100001092D90381E00E94661700916802109105
:1051100069020E94DC050E946F128091E70290E014
:105120000817190709F456C00E94DC050E946F1287
:105130008091E70290E090936902809368020E9458
:10514000DC056B017C010E946F120091E802C7012F
:10515000B6010E946F121091E702C701B601A501C6
:1051600094010E94A432CA01B9016C5F7F4F8F4F36
:105170009F4FA30192010E94A43281E001C0880FD9
:105180006A95EAF720E030E0F901E250FC4F9185A2
:10519000992371F0468140130BC04781411308C029
:1051A0004085482329F0913049F0923071F012C0C7
:1051B0002C5F3F4F2431310539F70CC080916102DB
:1051C000811108C090936E0205C080916102811127
:1051D00010926E020E94A82145CD89E291E00E94C2
:1051E0005F056ECD8AE291E00E945F0575CD89E290
:1051F00090E00E945F057CCD8AE290E00E945F050E
:1052000083CD109262021092630210926402109297
:1052100065029ACD0E941322809160028F5F809375
:1052200060021092A8031092A7031092DA03109262
:10523000D903CFCECF92DF92EF92FF920F931F93BD
:10524000CF93DF931092F0021092EF0288EEC82EF7
:1052500083E0D82EE12CF12CC092F102D092F20220
:10526000E092F302F092F4028EE291E09093EE026B
:105270008093ED0285EC90E09093FA028093F9021E
:1052800084EC90E09093FC028093FB0280EC90E031
:105290009093FE028093FD0281EC90E090930003D6
:1052A0008093FF0282EC90E09093020380930103CD
:1052B00086EC90E09093040380930303109206031E
:1052C00010920703109208031092090310928D03A5
:1052D00010928C0310928B0310928A030E94CD14BB
:1052E0001092910310929003C0929203D092930374
:1052F000E0929403F09295038EE391E090938F03F4
:1053000080938E0310923D0410923C0489E591E055
:1053100090933B0480933A0482E08093450410927A
:10532000440480E28093430410923E0410924804A7
:10533000109218041092190410921A0410921B046F
:105340008FED95E0A5EDB9E480931C0490931D04C6
:10535000A0931E04B0931F041092280410922904F5
:1053600010922A0410922B04109224041092250407
:105370001092260410922704109220041092210407
:10538000109222041092230480E090E0A0E0BFE39A
:1053900080932E0490932F04A0933004B093310493
:1053A0008093320490933304A0933404B093350473
:1053B0001092360410923704109238041092390477
:1053C00010922C0410922D040EEF13E0C0E0D0E0F8
:1053D000CE010E945C32F80181938F012196CC337B
:1053E000D105B1F78091FE039091FF038537994075
:1053F00009F47AC085E799E09093FF038093FE0358
:10540000109200048CE090E09093020480930104D9
:1054100081E08093030480E090E0FC01E250FC4FC7
:105420001186168217821086049684319105A9F799
:105430008EE380930A048093060497E1909304041A
:1054400097E09093080491EC90930E0423E120934D
:105450000C04909312049FE0909310048093160420
:105460008EE0809314041092180410921904109284
:105470001A0410921B04109228041092290410920E
:105480002A0410922B0410922404109225041092E6
:1054900026041092270410922004109221041092E6
:1054A00022041092230480912E0490912F04A09145
:1054B0003004B09131048093320490933304A0936C
:1054C0003404B093350410923604109237041092CD
:1054D00038041092390410922C0410922D048EEF8F
:1054E00093E00E94FC0565C080910004823010F0BA
:1054F000109200044091010450910204EAE4F1E0AA
:1055000020E081E0E535F80739F0819190E08417DB
:105510009507B9F721E0F5CF211106C08CE090E0A6
:105520009093020480930104E7E0F4E080818330EB
:1055300008F01082DF0113978C91883108F01C92DB
:10554000DF0112978C918C3308F01C92DF018E9151
:105550008F778C93349624E0EB31F20739F7809102
:105560001804082E000C990B97FF03C091958195A4
:105570009109069714F01092180480911904082ECE
:10558000000C990B97FF03C091958195910906979F
:1055900014F01092190480911A04865F8B3010F079
:1055A00010921A0480911B04865F8B3010F01092C9
:1055B0001B0481E080939A038CEC93E090939C030E
:1055C00080939B0388E090E090939E0380939D03DB
:1055D0008AE090E09093A00380939F0381E090E0A5
:1055E0009093A2038093A10327E030E03093A403BB
:1055F0002093A3031092A6031092A5031092A80370
:105600001092A7031092A9031092AA031092AB0361
:105610001092AC031092AD031092AE031092AF0340
:105620001092B0031092B1031092B2031092B30320
:105630001092B4031092B5031092B6031092B70300
:105640001092B8031092B9031092BB031092BA03E0
:105650008EEA90E4A7E0B5E48093BC039093BD0389
:10566000A093BE03B093BF031092C8031092C90366
:105670001092CA031092CB031092C4031092C50378
:105680001092C6031092C7031092C0031092C10378
:105690001092C2031092C30342E04093CC034AE944
:1056A00053E05093CE034093CD033093D003209327
:1056B000CF0329E030E03093D2032093D10310923E
:1056C000D4031092D30326E030E03093D603209326
:1056D000D5031092D8031092D7031092DA031092D8
:1056E000D9031092DB031092DC031092DD031092B9
:1056F000DE031092DF031092E0031092E103109298
:10570000E2031092E3031092E4031092E503109277
:10571000E6031092E7031092E8031092E903109257
:10572000EA031092EB031092ED031092EC038093C6
:10573000EE039093EF03A093F003B093F103109264
:10574000FA031092FB031092FC031092FD031092D7
:10575000F6031092F7031092F8031092F9031092D7
:10576000F2031092F3031092F4031092F503DF9109
:10577000CF911F910F91FF90EF90DF90CF90089500
:10578000DB018F939F930E949132BF91AF91A29FB3
:10579000800D911DA39F900DB29F900D112408952F
:1057A000991B79E004C0991F961708F0961B881F73
:1057B0007A95C9F780950895AA1BBB1B51E107C0D4
:1057C000AA1FBB1FA617B70710F0A61BB70B881F91
:1057D000991F5A95A9F780959095BC01CD01089520
:1057E00097FB072E16F4009407D077FD09D00E948E
:1057F000DC2B07FC05D03EF4909581959F4F0895D2
:10580000709561957F4F0895EE0FFF1F0590F491FD
:10581000E02D09945058BB27AA270E94222C0C94F3
:10582000FD2D0E94EF2D38F00E94F62D20F039F466
:105830009F3F19F426F40C94C52D0EF4E095E7FB78
:105840000C94BF2DE92F0E940E2E58F3BA17620751
:1058500073078407950720F079F4A6F50C94302E91
:105860000EF4E0950B2EBA2FA02D0B01B90190017B
:105870000C01CA01A0011124FF27591B99F0593FBF
:1058800050F4503E68F11A16F040A22F232F342F07
:105890004427585FF3CF469537952795A795F04055
:1058A0005395C9F77EF41F16BA0B620B730B840B6A
:1058B000BAF09150A1F0FF0FBB1F661F771F881F22
:1058C000C2F70EC0BA0F621F731F841F48F487957A
:1058D00077956795B795F7959E3F08F0B0CF93956C
:1058E000880F08F09927EE0F9795879508950E94E5
:1058F0009B2D08F481E008950E94902C0C94FD2DBE
:105900000E94F62D58F00E94EF2D40F029F45F3FE1
:1059100029F00C94BF2D51110C94312E0C94C52DEF
:105920000E940E2E68F39923B1F3552391F3951B32
:10593000550BBB27AA2762177307840738F09F5FB0
:105940005F4F220F331F441FAA1FA9F335D00E2E1D
:105950003AF0E0E832D091505040E695001CCAF78A
:105960002BD0FE2F29D0660F771F881FBB1F26174D
:1059700037074807AB07B0E809F0BB0B802DBF0124
:10598000FF2793585F4F3AF09E3F510578F00C94F3
:10599000BF2D0C94312E5F3FE4F3983ED4F38695EF
:1059A00077956795B795F7959F5FC9F7880F911D14
:1059B0009695879597F90895E1E0660F771F881F00
:1059C000BB1F621773078407BA0720F0621B730BB3
:1059D000840BBA0BEE1F88F7E095089529F416F0B2
:1059E0000C94BF2D0C94302E0C94C52D0E94162EB5
:1059F000A8F39638A0F707F80F92E8942BE33AEA59
:105A000048EB5FE70E94C82E0F920F920F924DB79E
:105A10005EB70F920E947E2EEAEAF0E00E94C82D47
:105A20004F915F91EF91FF91E595EE1FFF1F49F0B8
:105A3000FE57E0684427EE0F441FFA95E1F74195C1
:105A4000550B0E94482E0F9007FE0C943C2E089593
:105A50000E942F2D6894B1110C94312E08950E944C
:105A6000162E88F09F5798F0B92F9927B751B0F0AC
:105A7000E1F0660F771F881F991F1AF0BA95C9F7D2
:105A800014C0B13091F00E94302EB1E008950C9412
:105A9000302E672F782F8827B85F39F0B93FCCF3C5
:105AA000869577956795B395D9F73EF4909580954F
:105AB000709561957F4F8F4F9F4F0895E89409C06F
:105AC00097FB3EF490958095709561957F4F8F4F31
:105AD0009F4F9923A9F0F92F96E9BB279395F69547
